:100000000C9446000C9465000C9465000C946500FB
:100010000C9465000C9465000C9465000C946500CC
:100020000C9465000C9465000C9465000C946500BC
:100030000C9465000C9465000C9465000C946500AC
:100040000C9465000C9465000C9465000C9465009C
:100050000C9465000C9465000C9465000C9465008C
:100060000C9465000C9465000C9465000C9465007C
:100070000C9465000C9465000C9465000C9465006C
:100080000C9465000C9465000C94650011241FBE4F
:10009000CFEFD0E1DEBFCDBF14E0A0E0B1E0ECE8EF
:1000A000F8E400E00BBF02C007900D92AA3FB10731
:1000B000D9F715E0AAEFB4E001C01D92A830B1074E
:1000C000E1F70E94A5200C9444240C940000EF92C8
:1000D000FF920F931F937B018C0120E030E040E002
:1000E0005FE40E94670388238CF0C801B70120E019
:1000F00030E040E05FE40E94DF010E94C7039B0103
:10010000AC01205030404040504806C0C801B70103
:100110000E94C7039B01AC01B901CA011F910F9155
:10012000FF90EF900895A0E0B0E0E9E9F0E00C94D2
:10013000B822DC012B01FA019C91923008F439C1FC
:10014000EB018881823008F433C1943069F4843043
:1001500009F02FC111969C9111978981981709F484
:1001600028C1A7EFB1E025C1843009F421C1823054
:10017000A9F4923009F01DC19A01AD0188E0EA01AD
:100180000990AE01E90109929E018150C1F7E20197
:10019000898111969C918923818308C1923009F449
:1001A00007C112962D903C901397EB018A819B8199
:1001B0001496AD90BD90CD90DC901797EC80FD80AB
:1001C0000E811F819101281B390BB90137FF04C033
:1001D00066277727621B730B603271050CF061C0D4
:1001E000121613066CF537014801062E04C09694CA
:1001F0008794779467940A94D2F721E030E040E046
:1002000050E004C0220F331F441F551F6A95D2F7D8
:1002100021503040404050402E213F214023512367
:10022000211531054105510521F021E030E040E084
:1002300050E079018A01E628F728082919293CC0ED
:10024000232BD1F1260E371E35014601062E04C0A0
:1002500096948794779467940A94D2F721E030E0DB
:1002600040E050E004C0220F331F441F551F6A9521
:10027000D2F721503040404050402A213B214C21B0
:100280005D21211531054105510521F021E030E0C6
:1002900040E050E059016A01A628B728C828D928AB
:1002A0000BC0821593052CF01C01AA24BB24650108
:1002B00003C0EE24FF24870111969C91D201119670
:1002C0008C91981709F445C0992339F0A80197013A
:1002D0002A193B094C095D0906C0A60195012E1992
:1002E0003F09400B510B57FD08C011823382228217
:1002F00024833583468357831DC081E08183338205
:10030000228288279927DC01821B930BA40BB50B53
:1003100084839583A683B7830DC0220F331F441FA8
:10032000551F2483358346835783828193810197A8
:10033000938382832481358146815781DA01C90103
:100340000197A109B1098F5F9F4FAF4FBF4328F3BA
:100350000BC0918333822282EA0CFB1C0C1D1D1DF5
:10036000E482F5820683178383E0808324813581CC
:100370004681578157FF1AC0C901AA2797FDA0954A
:10038000BA2F81709070A070B070569547953795D0
:100390002795822B932BA42BB52B84839583A6833F
:1003A000B78382819381019693838283DF0101C0A9
:1003B000D201CD01CDB7DEB7E2E10C94D422A0E2A8
:1003C000B0E0E5EEF1E00C94C42269837A838B837C
:1003D0009C832D833E834F835887E9E0EE2EF12CDA
:1003E000EC0EFD1ECE010196B7010E94B8058E01EC
:1003F0000F5E1F4FCE010596B8010E94B8058A898D
:1004000091E089278A8BC701B801AE01475E5F4F33
:100410000E9493000E94E304A096E6E00C94E02280
:10042000A0E2B0E0E6E1F2E00C94C42269837A83B2
:100430008B839C832D833E834F835887F9E0EF2E77
:10044000F12CEC0EFD1ECE010196B7010E94B805FD
:100450008E010F5E1F4FCE010596B8010E94B805B0
:10046000C701B801AE01475E5F4F0E9493000E9432
:10047000E304A096E6E00C94E022A0E2B0E0E3E41E
:10048000F2E00C94B82269837A838B839C832D835A
:100490003E834F835887CE010196BE01675F7F4F31
:1004A0000E94B805CE010596BE016F5E7F4F0E9487
:1004B000B8059985923088F089898230C8F09430E7
:1004C00019F4823051F404C0843029F4923081F45C
:1004D00087EF91E0C6C0923049F420E09A858A897E
:1004E000981321E02A87CE010996BBC0823049F4D7
:1004F00020E09A858A89981321E02A8BCE014196C3
:10050000B0C02D843E844F8458886D887E888F8843
:10051000988CEE24FF248701AA24BB24650140E0C7
:1005200050E060E070E0E0E0F0E0C10181709070C8
:10053000892BE9F0E60CF71C081D191D9A01AB0187
:100540002A0D3B1D4C1D5D1D80E090E0A0E0B0E059
:10055000E614F7040805190520F481E090E0A0E016
:10056000B0E0BA01A901480F591F6A1F7B1FAA0CEE
:10057000BB1CCC1CDD1C97FE08C081E090E0A0E015
:10058000B0E0A82AB92ACA2ADB2A3196E032F1055E
:1005900049F0660C771C881C991C56944794379434
:1005A0002794C3CFFA85EA892B893C898B859C8562
:1005B000280F391F2E5F3F4F17C0CA0181709070FE
:1005C000892B61F016950795F794E79480E090E009
:1005D000A0E0B0E8E82AF92A0A2B1B2B769567954C
:1005E000579547952F5F3F4F77FDE7CF0CC0440FDE
:1005F000551F661F771F17FD4160EE0CFF1C001F83
:10060000111F21503040403090E0590790E06907B9
:1006100090E4790760F32B8F3C8FDB01CA018F7761
:100620009070A070B07080349105A105B10561F49F
:1006300047FD0AC0E114F1040105110529F0405CF1
:100640005F4F6F4F7F4F40781A8EFE1711F081E099
:100650008A8F4D8F5E8F6F8F78A383E0898FCE0155
:1006600049960E94E304A096E2E10C94D422A8E10A
:10067000B0E0EDE3F3E00C94C42269837A838B83CA
:100680009C832D833E834F83588789E0E82EF12C8D
:10069000EC0EFD1ECE010196B7010E94B8058E0139
:1006A0000F5E1F4FCE010596B8010E94B8058985DF
:1006B000823040F08989823028F0C701B8010E9459
:1006C000300601C08FEF6896E6E00C94E022A8E1C6
:1006D000B0E0EDE6F3E00C94C42269837A838B8367
:1006E0009C832D833E834F83588789E0E82EF12C2D
:1006F000EC0EFD1ECE010196B7010E94B8058E01D9
:100700000F5E1F4FCE010596B8010E94B80589857E
:10071000823040F08989823028F0C701B8010E94F8
:10072000300601C08FEF6896E6E00C94E022A8E165
:10073000B0E0EDE9F3E00C94C42269837A838B8303
:100740009C832D833E834F83588789E0E82EF12CCC
:10075000EC0EFD1ECE010196B7010E94B8058E0178
:100760000F5E1F4FCE010596B8010E94B80589851E
:10077000823040F08989823028F0C701B8010E9498
:10078000300601C081E06896E6E00C94E022ACE01F
:10079000B0E0EDECF3E00C94C82269837A838B839C
:1007A0009C83CE010196BE016B5F7F4F0E94B8050E
:1007B0008D81823061F1823050F1843021F48E815C
:1007C000882351F12EC02F81388537FD20C06E81DE
:1007D0002F3131051CF06623F9F023C08EE190E043
:1007E000821B930B29853A854B855C8504C0569501
:1007F0004795379527958A95D2F76623B1F050959E
:100800004095309521953F4F4F4F5F4F0EC020E0F0
:1008100030E040E050E009C02FEF3FEF4FEF5FE7DF
:1008200004C020E030E040E050E8B901CA012C9655
:10083000E2E00C94E422A8E0B0E0E1E2F4E00C9401
:10084000C0227B018C01611571058105910519F4A8
:1008500082E0898360C083E089838EE1C82ED12C39
:10086000DC82CB82ED82FE820F831887C801B7013C
:100870000E949404FC013197F7FF3BC022273327E5
:100880002E1B3F0B57016801022E04C0D694C7945B
:10089000B794A7940A94D2F740E050E060E070E08B
:1008A00081E090E0A0E0B0E004C0880F991FAA1F8B
:1008B000BB1F2A95D2F70197A109B1098E219F216B
:1008C000A023B1230097A105B10521F041E050E03C
:1008D00060E070E04A295B296C297D294D835E83A5
:1008E0006F8378878EE190E08E1B9F0B9C838B83B8
:1008F00012C0309781F00E2E04C0EE0CFF1C001FBA
:10090000111F0A94D2F7ED82FE820F831887CE1A48
:10091000DF0ADC82CB821A82CE0101960E94E304B8
:100920002896EAE00C94DC22EF92FF920F931F933B
:100930007B018C0180E0E81680E0F80681E0080782
:1009400080E0180788F48FEFE816F104010511051F
:1009500031F028F088E090E0A0E0B0E017C080E03F
:1009600090E0A0E0B0E012C080E0E81680E0F80679
:1009700080E0080781E0180728F088E190E0A0E017
:10098000B0E004C080E190E0A0E0B0E020E230E020
:1009900040E050E0281B390B4A0B5B0B04C0169556
:1009A0000795F794E7948A95D2F7F701E150FE4F47
:1009B0008081281B310941095109C9011F910F91FB
:1009C000FF90EF900895DF92EF92FF920F931F93A5
:1009D000FC01E480F58006811781D180808182301E
:1009E00048F480E090E0A0E1B0E0E82AF92A0A2B80
:1009F0001B2BA5C0843009F49FC0823021F4EE2463
:100A0000FF24870105C0E114F1040105110519F463
:100A1000E0E0F0E096C0628173819FEF6238790771
:100A20000CF05BC022E83FEF261B370B2A31310563
:100A30002CF020E030E040E050E02AC0B801A701EF
:100A4000022E04C076956795579547950A94D2F77C
:100A500081E090E0A0E0B0E004C0880F991FAA1FD9
:100A6000BB1F2A95D2F70197A109B1098E219F21B9
:100A7000A023B1230097A105B10521F081E090E00A
:100A8000A0E0B0E09A01AB01282B392B4A2B5B2B5D
:100A9000DA01C9018F779070A070B0708034910531
:100AA000A105B10539F427FF09C0205C3F4F4F4F26
:100AB0005F4F04C0215C3F4F4F4F5F4FE0E0F0E0DD
:100AC0002030A0E03A07A0E04A07A0E45A0710F05F
:100AD000E1E0F0E079018A0127C06038710564F532
:100AE000FB01E158FF4FD801C7018F779070A070CC
:100AF000B07080349105A105B10539F4E7FE0DC051
:100B000080E490E0A0E0B0E004C08FE390E0A0E0DB
:100B1000B0E0E80EF91E0A1F1B1F17FF05C016954F
:100B20000795F794E794319687E016950795F79423
:100B3000E7948A95D1F705C0EE24FF248701EFEFF3
:100B4000F0E06E2F679566276795902F9F77D79473
:100B5000DD24D7948E2F8695492F462B582F5D295B
:100B6000B701CA011F910F91FF90EF90DF90089598
:100B7000FC01DB01408151812281622F6F7770E09F
:100B8000221F2227221F9381892F880F822B282F33
:100B900030E0991F9927991F11969C931197211561
:100BA0003105A9F5411551056105710511F482E082
:100BB00037C082E89FEF13969C938E9312979A0109
:100BC000AB0167E0220F331F441F551F6A95D1F711
:100BD00083E08C930DC0220F331F441F551F1296C4
:100BE0008D919C911397019713969C938E931297D6
:100BF000203080E0380780E0480780E4580758F349
:100C000014962D933D934D935C93179708952F3F22
:100C1000310579F4411551056105710519F484E038
:100C20008C93089564FF03C081E08C9312C01C92E2
:100C300010C02F57304013963C932E93129783E0A9
:100C40008C9387E0440F551F661F771F8A95D1F755
:100C5000706414964D935D936D937C9317970895EC
:100C60001F93DC01FB019C91923008F447C0808106
:100C7000823008F443C0943051F411961C918430B2
:100C800099F58181682F70E0611B71093FC0843044
:100C900021F0923031F48230B9F18181882389F1D9
:100CA0002DC011961C9111978230F1F08181181797
:100CB000D9F412962D913C911397828193818217DA
:100CC000930794F028173907BCF014968D919D91E5
:100CD0000D90BC91A02D2481358146815781281724
:100CE00039074A075B0718F4112341F00AC082173D
:100CF0009307A407B50740F4112319F061E070E0F1
:100D000005C06FEF7FEF02C060E070E0CB011F9184
:100D10000895DF93CF93CDB7DEB7A7E2B0E0E7E267
:100D2000F0E0808180648C93A7E2B0E0E7E2F0E03D
:100D300080818F778C93A6E2B0E0E6E2F0E08081DC
:100D400081608C93A6E2B0E0E6E2F0E08081826010
:100D50008C93A6E2B0E0E6E2F0E0808184608C93C0
:100D6000A7E2B0E0E7E2F0E080818F7D8C93A6E21D
:100D7000B0E0E6E2F0E080818F7B8C93CF91DF9151
:100D80000895DF93CF93CDB7DEB7A6E2B0E0E6E2F9
:100D9000F0E0808180688C93CF91DF910895DF939C
:100DA000CF93CDB7DEB7A6E2B0E0E6E2F0E0808117
:100DB00080648C93CF91DF910895DF93CF930F924E
:100DC000CDB7DEB78983A7E2B0E0E7E2F0E080814B
:100DD000807E8C93A7E2B0E0E7E2F0E09081898129
:100DE000892B8C930F90CF91DF910895DF93CF9350
:100DF000CDB7DEB7E6E2F0E0808182958F70882F74
:100E000090E0817090700097A9F3A6E2B0E0E6E26E
:100E1000F0E0808180618C93CF91DF910895DF9322
:100E2000CF9300D0CDB7DEB79A838983E4E2F0E0B8
:100E300080819181E981FA8191838083E4E2F0E00D
:100E4000118210820F900F90CF91DF910895DF9360
:100E5000CF93CDB7DEB7EAE3F0E01082E7E3F0E04E
:100E60001082E4E3F0E01082E1E3F0E01082E2E2DD
:100E7000F0E082E28083E1E6F0E01082E4E6F0E078
:100E80001082EBE3F0E01082E8E3F0E01082E5E3AB
:100E9000F0E01082E2E3F0E01082E3E2F0E080E2D2
:100EA0008083E2E6F0E01082E5E6F0E01082CF9188
:100EB000DF910895DF93CF93CDB7DEB728970FB6B4
:100EC000F894DEBF0FBECDBF8A836B834C8319823B
:100ED0008B81883008F096C18C81813009F0C2C0C6
:100EE0008A81282F30E038872F838F81988583303F
:100EF000910509F464C02F8138852430310584F4CC
:100F00008F8198858130910591F12F81388522302C
:100F100031050CF040C08F8198850097A1F09FC0EB
:100F20002F8138852530310509F471C08F8198856E
:100F3000853091050CF457C02F8138852630310556
:100F400009F479C08CC0AAE3B0E0EAE3F0E0808164
:100F5000482F8B81282F30E081E090E0022E02C0E4
:100F6000880F991F0A94E2F7842B8C934DC1A7E355
:100F7000B0E0E7E3F0E08081482F8B81282F30E05C
:100F800081E090E0022E02C0880F991F0A94E2F7D8
:100F9000842B8C9339C1A4E3B0E0E4E3F0E08081DA
:100FA000482F8B81282F30E081E090E0022E02C094
:100FB000880F991F0A94E2F7842B8C9325C1A1E333
:100FC000B0E0E1E3F0E08081482F8B81282F30E012
:100FD00081E090E0022E02C0880F991F0A94E2F788
:100FE000842B8C9311C1A2E2B0E0E2E2F0E08081B8
:100FF000482F8B81282F30E081E090E0022E02C044
:10100000880F991F0A94E2F7842B8C93FDC0A1E608
:10101000B0E0E1E6F0E08081482F8B81282F30E0BE
:1010200081E090E0022E02C0880F991F0A94E2F737
:10103000842B8C93E9C0A4E6B0E0E4E6F0E0808184
:10104000482F8B81282F30E081E090E0022E02C0F3
:10105000880F991F0A94E2F7842B8C93D5C082E005
:101060008983D2C08C81882309F0C9C08A81282F46
:1010700030E03E832D838D819E818330910509F47C
:1010800067C02D813E812430310584F48D819E819D
:101090008130910599F12D813E81223031050CF08E
:1010A00042C08D819E810097A1F0A6C02D813E8116
:1010B0002530310509F476C08D819E8185309105FA
:1010C0000CF45BC02D813E812630310509F47FC0D0
:1010D00093C0AAE3B0E0EAE3F0E08081482F8B817F
:1010E000282F30E081E090E0022E02C0880F991F87
:1010F0000A94E2F7809584238C9386C0A7E3B0E03E
:10110000E7E3F0E08081482F8B81282F30E081E0F9
:1011100090E0022E02C0880F991F0A94E2F7809592
:1011200084238C9371C0A4E3B0E0E4E3F0E0808119
:10113000482F8B81282F30E081E090E0022E02C002
:10114000880F991F0A94E2F7809584238C935CC0E2
:10115000A1E3B0E0E1E3F0E08081482F8B81282F0C
:1011600030E081E090E0022E02C0880F991F0A94BF
:10117000E2F7809584238C9347C0A2E2B0E0E2E2DC
:10118000F0E08081482F8B81282F30E081E090E0D3
:10119000022E02C0880F991F0A94E2F780958423DB
:1011A0008C9332C0A1E6B0E0E1E6F0E08081482F08
:1011B0008B81282F30E081E090E0022E02C0880F62
:1011C000991F0A94E2F7809584238C931DC0A4E6AE
:1011D000B0E0E4E6F0E08081482F8B81282F30E0FA
:1011E00081E090E0022E02C0880F991F0A94E2F776
:1011F000809584238C9308C082E0898305C084E0B5
:10120000898302C081E08983898128960FB6F8948A
:10121000DEBF0FBECDBFCF91DF910895DF93CF9397
:10122000CDB7DEB728970FB6F894DEBF0FBECDBF9F
:101230008A836B834C8319828B81883008F096C136
:101240008C81813009F0C2C08A81282F30E0388734
:101250002F838F8198858330910509F464C02F8195
:1012600038852430310584F48F819885813091054B
:1012700091F12F813885223031050CF040C08F81EB
:1012800098850097A1F09FC02F81388525303105C2
:1012900009F471C08F819885853091050CF457C091
:1012A0002F8138852630310509F479C08CC0ABE335
:1012B000B0E0EBE3F0E08081482F8B81282F30E015
:1012C00081E090E0022E02C0880F991F0A94E2F795
:1012D000842B8C934DC1A8E3B0E0E8E3F0E080817B
:1012E000482F8B81282F30E081E090E0022E02C051
:1012F000880F991F0A94E2F7842B8C9339C1A5E3D8
:10130000B0E0E5E3F0E08081482F8B81282F30E0CA
:1013100081E090E0022E02C0880F991F0A94E2F744
:10132000842B8C9325C1A2E3B0E0E2E3F0E080815E
:10133000482F8B81282F30E081E090E0022E02C000
:10134000880F991F0A94E2F7842B8C9311C1A3E2B2
:10135000B0E0E3E2F0E08081482F8B81282F30E07D
:1013600081E090E0022E02C0880F991F0A94E2F7F4
:10137000842B8C93FDC0A2E6B0E0E2E6F0E0808131
:10138000482F8B81282F30E081E090E0022E02C0B0
:10139000880F991F0A94E2F7842B8C93E9C0A5E685
:1013A000B0E0E5E6F0E08081482F8B81282F30E027
:1013B00081E090E0022E02C0880F991F0A94E2F7A4
:1013C000842B8C93D5C082E08983D2C08C81882302
:1013D00009F0C9C08A81282F30E03E832D838D819A
:1013E0009E818330910509F467C02D813E812430B0
:1013F000310584F48D819E818130910599F12D8193
:101400003E81223031050CF042C08D819E810097D3
:10141000A1F0A6C02D813E812530310509F476C0AA
:101420008D819E81853091050CF45BC02D813E81BC
:101430002630310509F47FC093C0ABE3B0E0EBE3A5
:10144000F0E08081482F8B81282F30E081E090E010
:10145000022E02C0880F991F0A94E2F78095842318
:101460008C9386C0A8E3B0E0E8E3F0E08081482FE9
:101470008B81282F30E081E090E0022E02C0880F9F
:10148000991F0A94E2F7809584238C9371C0A5E399
:10149000B0E0E5E3F0E08081482F8B81282F30E039
:1014A00081E090E0022E02C0880F991F0A94E2F7B3
:1014B000809584238C935CC0A2E3B0E0E2E3F0E08B
:1014C0008081482F8B81282F30E081E090E0022E30
:1014D00002C0880F991F0A94E2F7809584238C93A9
:1014E00047C0A3E2B0E0E3E2F0E08081482F8B81C7
:1014F000282F30E081E090E0022E02C0880F991F73
:101500000A94E2F7809584238C9332C0A2E6B0E07F
:10151000E2E6F0E08081482F8B81282F30E081E0E7
:1015200090E0022E02C0880F991F0A94E2F780957E
:1015300084238C931DC0A5E6B0E0E5E6F0E0808151
:10154000482F8B81282F30E081E090E0022E02C0EE
:10155000880F991F0A94E2F7809584238C9308C022
:1015600082E0898305C083E0898302C081E08983AA
:10157000898128960FB6F894DEBF0FBECDBFCF91FC
:10158000DF910895DF93CF93CDB7DEB727970FB6DE
:10159000F894DEBF0FBECDBF8A836B835D834C831F
:1015A0001982EC81FD8110828B81883008F0C2C0E5
:1015B0008A81282F30E03F832E834E815F81433024
:1015C000510509F464C08E819F818430910584F4B3
:1015D0002E813F812130310591F14E815F81423072
:1015E00051050CF040C08E819F810097A1F09FC0F3
:1015F0002E813F812530310509F471C04E815F8114
:10160000453051050CF457C08E819F81863091057D
:1016100009F479C08CC0E9E3F0E08081282F30E044
:101620008B81882F90E0A90102C0559547958A9536
:10163000E2F7CA018170EC81FD8180837DC0E6E321
:10164000F0E08081282F30E08B81882F90E0A90185
:1016500002C0559547958A95E2F7CA018170EC81E1
:10166000FD81808369C0E3E3F0E08081282F30E0D2
:101670008B81882F90E0A90102C0559547958A95E6
:10168000E2F7CA018170EC81FD81808355C0E0E3FF
:10169000F0E08081282F30E08B81882F90E0A90135
:1016A00002C0559547958A95E2F7CA018170EC8191
:1016B000FD81808341C0E1E2F0E08081282F30E0AD
:1016C0008B81882F90E0A90102C0559547958A9596
:1016D000E2F7CA018170EC81FD8180832DC0E0E2D8
:1016E000F0E08081282F30E08B81882F90E0A901E5
:1016F00002C0559547958A95E2F7CA018170EC8141
:10170000FD81808319C0E3E6F0E08081282F30E07E
:101710008B81882F90E0A90102C0559547958A9545
:10172000E2F7CA018170EC81FD81808305C082E00F
:10173000898302C081E08983898127960FB6F89456
:10174000DEBF0FBECDBFCF91DF910895DF93CF9362
:1017500000D000D00F92CDB7DEB78A836B83198299
:101760008B81883008F0C2C08A81282F30E03D8309
:101770002C838C819D818330910509F464C02C8178
:101780003D812430310584F48C819D818130910527
:1017900091F12C813D81223031050CF040C08C81CB
:1017A0009D810097A1F09FC02C813D81253031059E
:1017B00009F471C08C819D81853091050CF457C06E
:1017C0002C813D812630310509F479C08CC0ABE312
:1017D000B0E0EBE3F0E08081482F8B81282F30E0F0
:1017E00081E090E0022E02C0880F991F0A94E2F770
:1017F00084278C937DC0A8E3B0E0E8E3F0E080812B
:10180000482F8B81282F30E081E090E0022E02C02B
:10181000880F991F0A94E2F784278C9369C0A5E387
:10182000B0E0E5E3F0E08081482F8B81282F30E0A5
:1018300081E090E0022E02C0880F991F0A94E2F71F
:1018400084278C9355C0A2E3B0E0E2E3F0E080810E
:10185000482F8B81282F30E081E090E0022E02C0DB
:10186000880F991F0A94E2F784278C9341C0A3E262
:10187000B0E0E3E2F0E08081482F8B81282F30E058
:1018800081E090E0022E02C0880F991F0A94E2F7CF
:1018900084278C932DC0A2E6B0E0E2E6F0E08081E0
:1018A000482F8B81282F30E081E090E0022E02C08B
:1018B000880F991F0A94E2F784278C9319C0A5E634
:1018C000B0E0E5E6F0E08081482F8B81282F30E002
:1018D00081E090E0022E02C0880F991F0A94E2F77F
:1018E00084278C9305C082E0898302C081E08983CC
:1018F00089810F900F900F900F900F90CF91DF91F3
:101900000895DF93CF93CDB7DEB729970FB6F8943C
:10191000DEBF0FBECDBF8A836B8319828A81873079
:1019200008F0F4C08B818F3F09F051C08A81282FC5
:1019300030E039872887888599858330910599F12A
:1019400028853985243031057CF488859985813056
:101950009105F9F02885398522303105FCF4888518
:101960009985009789F0D4C02885398525303105BF
:1019700021F18885998585309105D4F028853985B0
:1019800026303105F9F0C4C0EAE3F0E08FEF808340
:10199000BFC0E7E3F0E08FEF8083BAC0E4E3F0E09C
:1019A0008FEF8083B5C0E1E3F0E08FEF8083B0C0BC
:1019B000E2E2F0E08FEF8083ABC0E1E6F0E08FEF92
:1019C0008083A6C0E4E6F0E08FEF8083A1C08B8126
:1019D000882309F04AC08A81282F30E03F832E8374
:1019E0008E819F818330910581F12E813F8124304A
:1019F00031057CF48E819F8181309105F1F02E813B
:101A00003F8122303105ECF48E819F81009789F06F
:101A10007FC02E813F8125303105F9F08E819F8175
:101A200085309105B4F02E813F8126303105C9F013
:101A30006FC0EAE3F0E010826BC0E7E3F0E01082F1
:101A400067C0E4E3F0E0108263C0E1E3F0E01082FD
:101A50005FC0E2E2F0E010825BC0E1E6F0E01082FD
:101A600057C0E4E6F0E0108253C08A81282F30E0AE
:101A70003D832C838C819D818330910599F12C814C
:101A80003D81243031057CF48C819D81813091052C
:101A9000F9F02C813D8122303105FCF48C819D814F
:101AA000009789F035C02C813D812530310521F129
:101AB0008C819D8185309105D4F02C813D8126302B
:101AC0003105F9F025C0EAE3F0E08B81808320C086
:101AD000E7E3F0E08B8180831BC0E4E3F0E08B81DF
:101AE000808316C0E1E3F0E08B81808311C0E2E2E5
:101AF000F0E08B8180830CC0E1E6F0E08B81808395
:101B000007C0E4E6F0E08B81808302C085E0898332
:101B1000898129960FB6F894DEBF0FBECDBFCF9155
:101B2000DF910895DF93CF93CDB7DEB729970FB636
:101B3000F894DEBF0FBECDBF8A836B8319828A8182
:101B4000873008F0F4C08B818F3F09F051C08A8143
:101B5000282F30E03987288788859985833091053B
:101B600099F128853985243031057CF4888599855B
:101B700081309105F9F02885398522303105FCF452
:101B800088859985009789F0D4C0288539852530C6
:101B9000310521F18885998585309105D4F0288516
:101BA000398526303105F9F0C4C0EBE3F0E08FEF62
:101BB0008083BFC0E8E3F0E08FEF8083BAC0E5E345
:101BC000F0E08FEF8083B5C0E2E3F0E08FEF808339
:101BD000B0C0E3E2F0E08FEF8083ABC0E2E6F0E07C
:101BE0008FEF8083A6C0E5E6F0E08FEF8083A1C091
:101BF0008B81882309F04AC08A81282F30E03F83F7
:101C00002E838E819F818330910581F12E813F81CA
:101C1000243031057CF48E819F8181309105F1F073
:101C20002E813F8122303105ECF48E819F81009717
:101C300089F07FC02E813F8125303105F9F08E81FA
:101C40009F8185309105B4F02E813F81263031058A
:101C5000C9F06FC0EBE3F0E010826BC0E8E3F0E0A6
:101C6000108267C0E5E3F0E0108263C0E2E3F0E0D9
:101C700010825FC0E3E2F0E010825BC0E2E6F0E0D9
:101C8000108257C0E5E6F0E0108253C08A81282F09
:101C900030E03D832C838C819D818330910599F1C7
:101CA0002C813D81243031057CF48C819D818130F3
:101CB0009105F9F02C813D8122303105FCF48C81B5
:101CC0009D81009789F035C02C813D8125303105FB
:101CD00021F18C819D8185309105D4F02C813D814D
:101CE00026303105F9F025C0EBE3F0E08B818083ED
:101CF00020C0E8E3F0E08B8180831BC0E5E3F0E0E7
:101D00008B81808316C0E2E3F0E08B81808311C079
:101D1000E3E2F0E08B8180830CC0E2E6F0E08B81AF
:101D2000808307C0E5E6F0E08B81808302C085E018
:101D30008983898129960FB6F894DEBF0FBECDBF87
:101D4000CF91DF910895DF93CF9300D000D000D0E2
:101D5000CDB7DEB78A837C836B831982EB81FC81EC
:101D600010828A81873008F062C08A81282F30E093
:101D70003E832D838D819E8183309105C9F12D8114
:101D80003E81243031057CF48D819E818130910526
:101D900009F12D813E81223031051CF58D819E8116
:101DA000009789F041C02D813E812530310571F1C8
:101DB0008D819E818530910514F12D813E812630E3
:101DC000310559F131C0E9E3F0E08081EB81FC811C
:101DD00080832FC0E6E3F0E08081EB81FC8180838B
:101DE00028C0E3E3F0E08081EB81FC81808321C0A7
:101DF000E0E3F0E08081EB81FC8180831AC0E1E2C6
:101E0000F0E08081EB81FC81808313C0E0E2F0E0B0
:101E10008081EB81FC8180830CC0E3E6F0E080816F
:101E2000EB81FC81808305C082E0898302C085E06C
:101E30008983898126960FB6F894DEBF0FBECDBF89
:101E4000CF91DF910895DF93CF9300D000D0CDB72D
:101E5000DEB78A8319828A81873008F069C08A8157
:101E6000282F30E03C832B838B819C81833091052C
:101E7000E1F12B813C81243031057CF48B819C8104
:101E80008130910511F12B813C81223031052CF5F7
:101E90008B819C81009789F048C02B813C81253043
:101EA000310599F18B819C818530910534F12B812D
:101EB0003C812630310589F138C0ABE3B0E0EBE37B
:101EC000F0E0808180958C9335C0A8E3B0E0E8E332
:101ED000F0E0808180958C932DC0A5E3B0E0E5E330
:101EE000F0E0808180958C9325C0A2E3B0E0E2E32E
:101EF000F0E0808180958C931DC0A3E2B0E0E3E226
:101F0000F0E0808180958C9315C0A2E6B0E0E2E617
:101F1000F0E0808180958C930DC0A5E6B0E0E5E609
:101F2000F0E0808180958C9305C082E0898302C0B7
:101F300085E0898389810F900F900F900F90CF914A
:101F4000DF910895DF93CF93CDB7DEB7ACE2B0E079
:101F5000ECE2F0E0808184608C93ACE2B0E0ECE2F3
:101F6000F0E0808182608C93CF91DF910895DF93C0
:101F7000CF9300D00F92CDB7DEB79A8389836B835E
:101F8000AFE5B0E0EFE5F0E080818F778C93EDE294
:101F9000F0E08B818083EEE3F0E089819A81918388
:101FA0008083ACE2B0E0ECE2F0E0808184608C936E
:101FB000ACE2B0E0ECE2F0E0808182608C93AFE5CF
:101FC000B0E0EFE5F0E0808180688C93ECE2F0E037
:101FD00080818695882F90E0817090708823B1F77A
:101FE0000F900F900F90CF91DF910895DF93CF93D3
:101FF00000D0CDB7DEB79A838983AFE5B0E0EFE5D7
:10200000F0E080818F778C93EEE3F0E089819A8114
:1020100091838083ACE2B0E0ECE2F0E0808181600B
:102020008C93AFE5B0E0EFE5F0E0808180688C93C1
:10203000EDE2F0E080810F900F90CF91DF91089555
:10204000DF93CF93CDB7DEB761970FB6F894DEBFBD
:102050000FBECDBF8F87798B688B8F850E94DD0681
:102060000E94C1060E94CF060E94F60688899989BF
:102070000E940F07E889F98980819181CC01A0E055
:10208000B0E0BC01CD010E941B04DC01CB01BC010E
:10209000CD012AE63CEB44EA5FE30E943D02DC010D
:1020A000CB01BC01CD0120E030E74BE254E40E94BB
:1020B000DF01DC01CB01BC01CD010E946700DC0126
:1020C000CB01E889F9899183808380E090E0A0EAE0
:1020D000B0E48B879C87AD87BE876B857C858D85BB
:1020E0009E8520E030E04AE755E40E943D02DC0195
:1020F000CB018F839887A987BA876F817885898577
:102100009A8520E030E040E85FE30E94970388234F
:102110002CF481E090E09E838D833FC06F817885B1
:1021200089859A8520E03FEF4FE757E40E94370307
:1021300018164CF56B857C858D859E8520E030E0FA
:1021400040E251E40E943D02DC01CB01BC01CD0123
:102150000E946700DC01CB019E838D830FC080E964
:1021600091E09C838B838B819C810197F1F79C8309
:102170008B838D819E8101979E838D838D819E812E
:10218000009769F714C06F81788589859A850E94C8
:102190006700DC01CB019E838D838D819E819A83B4
:1021A000898389819A810197F1F79A83898361965E
:1021B0000FB6F894DEBF0FBECDBFCF91DF9108956B
:1021C000DF93CF93CDB7DEB761970FB6F894DEBF3C
:1021D0000FBECDBF8F87798B688B8F850E94DD0600
:1021E0000E94C1060E94CF060E94F606888999893E
:1021F0000E940F07E889F98980819181CC01A0E0D4
:10220000B0E028E833E140E050E0BC01CD010E949D
:102210007722DC01CB01072E7AE0B695A79597953A
:1022200087957A95D1F7702D2AE030E040E050E0B4
:10223000BC01CD010E949622DA01C901E889F98921
:102240009183808380E090E0A0EAB0E48B879C8754
:10225000AD87BE876B857C858D859E8520E030E0CF
:102260004AE755E40E943D02DC01CB018F83988749
:10227000A987BA876F81788589859A8520E030E0C3
:1022800040E85FE30E94970388232CF481E090E00C
:102290009E838D833FC06F81788589859A8520E0F4
:1022A0003FEF4FE757E40E94370318164CF56B8554
:1022B0007C858D859E8520E030E040E251E40E94DF
:1022C0003D02DC01CB01BC01CD010E946700DC01B5
:1022D000CB019E838D830FC080E991E09C838B832B
:1022E0008B819C810197F1F79C838B838D819E81EB
:1022F00001979E838D838D819E81009769F714C01D
:102300006F81788589859A850E946700DC01CB0101
:102310009E838D838D819E819A83898389819A8111
:102320000197F1F79A83898361960FB6F894DEBF1F
:102330000FBECDBFCF91DF910895DF93CF93CDB77F
:10234000DEB761970FB6F894DEBF0FBECDBF8F87A3
:10235000798B688B8F850E94DD060E94C1060E94E2
:10236000CF060E94F606888999890E940F0780E0AF
:1023700090E0A0EAB0E48B879C87AD87BE876B8531
:102380007C858D859E8520E030E04AE755E40E94FB
:102390003D02DC01CB018F839887A987BA876F81C3
:1023A000788589859A8520E030E040E85FE30E94E7
:1023B000970388232CF481E090E09E838D833FC0B7
:1023C0006F81788589859A8520E03FEF4FE757E454
:1023D0000E94370318164CF56B857C858D859E858C
:1023E00020E030E040E251E40E943D02DC01CB01FC
:1023F000BC01CD010E946700DC01CB019E838D836F
:102400000FC080E991E09C838B838B819C81019735
:10241000F1F79C838B838D819E8101979E838D83B1
:102420008D819E81009769F714C06F8178858985B9
:102430009A850E946700DC01CB019E838D838D818C
:102440009E819A83898389819A810197F1F79A8382
:10245000898361960FB6F894DEBF0FBECDBFCF91D2
:10246000DF910895DF93CF9300D0CDB7DEB79A8385
:102470008983E981FA8111821082E981FA811382CC
:1024800012820F900F90CF91DF910895DF93CF9339
:10249000CDB7DEB72A970FB6F894DEBF0FBECDBF1B
:1024A0009F838E83798768874A878FE090E00E94B8
:1024B000EF229D838C831B8215C08B81482F50E0B7
:1024C0008B81282F30E088859985FC01E20FF31F6E
:1024D00020818C819D81FC01E40FF51F20838B817D
:1024E0008F5F8B838B818B3040F3EC81FD81138672
:1024F000EC81FD818A858487EC81FD8116861586B5
:10250000EE81FF8180819181009739F4EE81FF8116
:102510008C819D819183808319C0EE81FF818081B0
:1025200091819A83898306C0E981FA8185859685A0
:102530009A838983E981FA81858596850097A1F739
:10254000E981FA818C819D8196878587EE81FF8163
:10255000828193810196EE81FF81938382832A9603
:102560000FB6F894DEBF0FBECDBFCF91DF910895B7
:102570000F931F93DF93CF93CDB7DEB72F970FB68F
:10258000F894DEBF0FBECDBF9F838E8348875987E7
:102590006A877B870C871D872E873F87EE81FF81A7
:1025A000828193818D83EE81FF81808191819C83E3
:1025B0008B831A8219828B819C81009709F457C002
:1025C00052C0EB81FC818485813001F58A81882F9E
:1025D00090E09695982F8827979587959C0144279A
:1025E00037FD4095542F88859985AA85BB85820F34
:1025F000931FA41FB51F2B813C81BC01CD01A901F4
:102600000E945F1E8A818F5F8A8324C0EB81FC81D8
:1026100084858230F9F48981882F90E09695982FEF
:102620008827979587959C01442737FD4095542F1F
:102630008C859D85AE85BF85820F931FA41FB51F16
:102640002B813C81BC01CD01A9010E945F1E8981C3
:102650008F5F8983EB81FC81858596859C838B8345
:102660008D8181508D838D81882309F0AACF2F968B
:102670000FB6F894DEBF0FBECDBFCF91DF911F9193
:102680000F910895DF93CF93CDB7DEB7E2970FB6E2
:10269000F894DEBF0FBECDBF98AB8FA77AAB69AB06
:1026A0001B861A86E9A9FAA9808191819987888772
:1026B000E9A9FAA9808191819F838E831D8215C02B
:1026C0008D81482F50E08D81282F30E08FA598A96B
:1026D000FC01E20FF31F2081CE010C96FC01E40FF8
:1026E000F51F20838D818F5F8D838D818B3040F32B
:1026F0001C8217C08C81482F50E0E9A9FAA92081DB
:1027000031818C81882F90E0F901E80FF91F208139
:10271000CE014896FC01E40FF51F20838C818F5F6A
:102720008C838C818B3030F31B821CC08B81282FD3
:1027300030E0CE010C96FC01E20FF31F40818B814B
:10274000282F30E0CE014896FC01E20FF31F808174
:10275000481729F41A868B818F5F8B8303C081E031
:102760008A8703C08B818B3008F38A85882309F020
:1027700078C081E08B87E885F98585859685E9A90C
:10278000FAA991838083888599850E949C23E9A971
:10279000FAA9828193810197E9A9FAA99383828397
:1027A00060C01A8215C08A81482F50E08A81282F84
:1027B00030E088859985FC01E20FF31F2081CE016E
:1027C0008496FC01E40FF51F20838A818F5F8A8342
:1027D0008A818B3040F319821CC08981282F30E018
:1027E000CE010C96FC01E20FF31F40818981282F56
:1027F00030E0CE018496FC01E20FF31F8081481780
:1028000029F41A8689818F5F898303C081E08A87D2
:1028100003C089818B3008F38A858823C1F481E065
:102820008B87E885F98585859685EE81FF8196877A
:102830008587888599850E949C23E9A9FAA98281C8
:1028400093810197E9A9FAA99383828312C08885AD
:1028500099859F838E83E885F985858596859987F7
:10286000888788859985009721F08B85813009F0CC
:1028700098CFE2960FB6F894DEBF0FBECDBFCF91D2
:10288000DF910895DF93CF93CDB7DEB7A8970FB64A
:10289000F894DEBF0FBECDBF9CA38BA37EA36DA318
:1028A00058A74FA3EFA1F8A5808191819C878B87C2
:1028B00018861F821E8227C08E81482F50E08E818D
:1028C000282F30E08DA19EA1FC01E20FF31F208193
:1028D000CE010D96FC01E40FF51F20838E81482F59
:1028E00050E08E81282F30E08B859C85FC01E20F23
:1028F000F31F2081CE014896FC01E40FF51F2083D1
:102900008E818F5F8E838E818B30B0F21D821CC0D2
:102910008D81282F30E0CE010D96FC01E20FF31FD0
:1029200040818D81282F30E0CE014896FC01E20FD6
:10293000F31F8081481729F41F828D818F5F8D835B
:1029400003C081E08F8303C08D818B3008F38F81BA
:10295000882309F07EC081E088871C8215C08C81A5
:10296000282F30E08BA19CA1DC01A20FB31F8C812A
:10297000282F30E08B859C85FC01E20FF31F8081BE
:102980008C938C818F5F8C838C818B3040F361C002
:102990001B8215C08B81482F50E08B81282F30E09F
:1029A0008B859C85FC01E20FF31F2081CE014896A8
:1029B000FC01E40FF51F20838B818F5F8B838B815C
:1029C0008B3040F31A821CC08A81282F30E0CE0160
:1029D0000D96FC01E20FF31F40818A81282F30E021
:1029E000CE014896FC01E20FF31F8081481729F4BD
:1029F0001F828A818F5F8A8303C081E08F8303C037
:102A00008A818B3008F38F818823E9F481E08887FD
:102A1000198215C08981282F30E08BA19CA1DC018F
:102A2000A20FB31F8981282F30E08B859C85FC0184
:102A3000E20FF31F80818C9389818F5F8983898165
:102A40008B3040F30EC0EB85FC85858596859C8791
:102A50008B878B859C85009721F08885882309F4D6
:102A600097CF8885882321F480E091E09CA38BA3F5
:102A7000A8960FB6F894DEBF0FBECDBFCF91DF9101
:102A80000895DF93CF9300D000D0CDB7DEB79C83FD
:102A90008B831092FA048091FA04882F90E09C01B5
:102AA000EB81FC8182819381482FC901642F0E94B0
:102AB00037248091FA048F5F8093FA04EB81FC81C4
:102AC000808191819A83898327C049815A8180912D
:102AD000FA04882F90E09C01CA01B9014BE050E054
:102AE0000E942D248091FA04855F8093FA048091DE
:102AF000FA04882F90E0E981FA812485622F0E94F0
:102B000037248091FA048F5F8093FA04E981FA8177
:102B1000858596859A83898389819A810097A9F60C
:102B20000F900F900F900F90CF91DF910895DF934A
:102B3000CF93CDB7DEB72F970FB6F894DEBF0FBE99
:102B4000CDBF9F878E871092FA048091FA04882F58
:102B500090E00E9425248A838091FA048F5F8093FD
:102B6000FA048A818F3F69F129C08091FA04882F85
:102B700090E09C01CE010396B9014BE050E00E9429
:102B800015248091FA04855F8093FA048091FA04F9
:102B9000882F90E00E94252489838091FA048F5F1A
:102BA0008093FA048E859F859E012D5F3F4FB9016A
:102BB00049810E9446128A8181508A838A818823B2
:102BC000A1F62F960FB6F894DEBF0FBECDBFCF9102
:102BD000DF910895DF93CF9300D0CDB7DEB79A830E
:102BE000898389819A81009721F089819A810E9445
:102BF000A61F0F900F90CF91DF910895DF93CF9391
:102C0000CDB7DEB7CF91DF910895DF93CF930F92C9
:102C1000CDB7DEB7198282E091E00E94EA150E94EA
:102C20003B16898389810F90CF91DF910895DF93BF
:102C3000CF930F92CDB7DEB719820E94051681306F
:102C4000A9F486E091E00E94EA150E943B168130CB
:102C500069F485E093E08C599F4F20E131E0B901A0
:102C60000E94FB23009711F081E0898389810F90F6
:102C7000CF91DF910895EF92FF920F931F93DF930F
:102C8000CF930F92CDB7DEB71092FB041DC045E085
:102C900053E08091FB04282F30E084E690E0BC01F3
:102CA000269FC001279F900D369F900D1124840F01
:102CB000951F60E070E044E650E00E94F4238091AC
:102CC000FB048F5F8093FB048091FB048530F8F256
:102CD00019821092FB047DC01092FC0439C08091CF
:102CE000FB04E82EFF248091FC04082F10E00E94D2
:102CF000851F282F84E690E0AC01E49EC001E59E8C
:102D0000900DF49E900D1124800F911FFC01EB5F3C
:102D1000FC4F208345E053E08091FB04282F30E0F6
:102D200084E690E0BC01269FC001279F900D369F4E
:102D3000900D1124840F951F2BE131E0B9010E9401
:102D4000FB23009749F48091FC048F5F8093FC047F
:102D50008091FC04843618F245E053E08091FB0436
:102D6000282F30E084E690E0BC01269FC001279F19
:102D7000900D369F900D1124840F951F2EE131E0A8
:102D8000B9010E94FB23009719F081E0898326C0D6
:102D900045E053E08091FB04282F30E084E690E08A
:102DA000BC01269FC001279F900D369F900D1124D6
:102DB000840F951F23E231E0B9010E94FB230097A5
:102DC00019F082E089830AC08091FB048F5F8093B1
:102DD000FB048091FB04853008F47ECF89810F903D
:102DE000CF91DF911F910F91FF90EF900895DF93A6
:102DF000CF93CDB7DEB7ED970FB6F894DEBF0FBE19
:102E0000CDBF9BAF8AAF7DAF6CAF19AE8AAD9BAD26
:102E1000009709F4F3C18CAD9DAD009709F4EEC1A4
:102E20000E940516813009F0EBC18BE291E00E940F
:102E3000EA1580E090E0AAE7B4E48DAB9EABAFABBF
:102E4000B8AF6DA97EA98FA998AD20E030E04AE720
:102E500055E40E943D02DC01CB0189AB9AABABABE0
:102E6000BCAB69A97AA98BA99CA920E030E040E815
:102E70005FE30E94970388232CF481E090E098ABF5
:102E80008FA73FC069A97AA98BA99CA920E03FEF31
:102E90004FE757E40E94370318164CF56DA97EA939
:102EA0008FA998AD20E030E040E251E40E943D025D
:102EB000DC01CB01BC01CD010E946700DC01CB012C
:102EC00098AB8FA70FC080E991E09EA78DA78DA535
:102ED0009EA50197F1F79EA78DA78FA598A90197A9
:102EE00098AB8FA78FA598A9009769F714C069A917
:102EF0007AA98BA99CA90E946700DC01CB0198AB41
:102F00008FA78FA598A99CA78BA78BA59CA5019798
:102F1000F1F79CA78BA70E943B16813009F070C186
:102F200086E391E00E94EA158AAD9BAD0E94EA1506
:102F300080E491E00E94EA1580E090E0AAE7B4E422
:102F40008FA398A7A9A7BAA76FA178A589A59AA5C5
:102F500020E030E04AE755E40E943D02DC01CB016D
:102F60008BA39CA3ADA3BEA36BA17CA18DA19EA1AD
:102F700020E030E040E85FE30E94970388232CF4D0
:102F800081E090E09AA389A33FC06BA17CA18DA1B1
:102F90009EA120E03FEF4FE757E40E943703181649
:102FA0004CF56FA178A589A59AA520E030E040E214
:102FB00051E40E943D02DC01CB01BC01CD010E9425
:102FC0006700DC01CB019AA389A30FC080E991E0DF
:102FD00098A38F8F8F8D98A10197F1F798A38F8F6A
:102FE00089A19AA101979AA389A389A19AA100977F
:102FF00069F714C06BA17CA18DA19EA10E946700FE
:10300000DC01CB019AA389A389A19AA19E8F8D8F00
:103010008D8D9E8D0197F1F79E8F8D8F8CAD9DAD1F
:103020000E94EA1580E090E0A8ECB2E4898F9A8FC4
:10303000AB8FBC8F698D7A8D8B8D9C8D20E030E0BD
:103040004AE755E40E943D02DC01CB018D8B9E8B4B
:10305000AF8BB88F6D897E898F89988D20E030E0A5
:1030600040E85FE30E94970388232CF481E090E01E
:103070009C8B8B8B3FC06D897E898F89988D20E0DA
:103080003FEF4FE757E40E94370318164CF5698D60
:103090007A8D8B8D9C8D20E030E040E251E40E94DF
:1030A0003D02DC01CB01BC01CD010E946700DC01C7
:1030B000CB019C8B8B8B0FC080E991E09A8B898B25
:1030C00089899A890197F1F79A8B898B8B899C89D9
:1030D00001979C8B8B8B8B899C89009769F714C017
:1030E0006D897E898F89988D0E946700DC01CB01F4
:1030F0009C8B8B8B8B899C89988B8F878F859889EC
:103100000197F1F7988B8F8783E491E00E94EA158D
:1031100080E090E0AAE7B4E48B879C87AD87BE8708
:103120006B857C858D859E8520E030E04AE755E4FF
:103130000E943D02DC01CB018F839887A987BA8763
:103140006F81788589859A8520E030E040E85FE3EB
:103150000E94970388232CF481E090E09E838D8366
:103160003FC06F81788589859A8520E03FEF4FE7E2
:1031700057E40E94370318164CF56B857C858D85C6
:103180009E8520E030E040E251E40E943D02DC01F7
:10319000CB01BC01CD010E946700DC01CB019E8305
:1031A0008D830FC080E991E09C838B838B819C8110
:1031B0000197F1F79C838B838D819E8101979E837C
:1031C0008D838D819E81009769F714C06F8178850A
:1031D00089859A850E946700DC01CB019E838D83DF
:1031E0008D819E819A83898389819A810197F1F7E4
:1031F0009A8389830E943B1689AF02C083E089AF1E
:1032000089ADED960FB6F894DEBF0FBECDBFCF915E
:10321000DF910895DF93CF93CDB7DEB765970FB6F3
:10322000F894DEBF0FBECDBF998B888B7B8B6A8BEA
:103230005D8B4C8B1F8688899989009709F4AEC0F5
:103240008A899B89009709F4A9C08C899D89009778
:1032500009F4A4C00E940516813009F0A1C08BE2D8
:1032600091E00E94EA150E943B16813009F098C057
:1032700086E391E00E94EA15888999890E94EA15FF
:1032800080E491E00E94EA1580E090E0A0E2B1E4E1
:103290008B879C87AD87BE876B857C858D859E855A
:1032A00020E030E04AE755E40E943D02DC01CB011A
:1032B0008F839887A987BA876F81788589859A8552
:1032C00020E030E040E85FE30E94970388232CF47D
:1032D00081E090E09E838D833FC06F8178858985F2
:1032E0009A8520E03FEF4FE757E40E943703181616
:1032F0004CF56B857C858D859E8520E030E040E235
:1033000051E40E943D02DC01CB01BC01CD010E94D1
:103310006700DC01CB019E838D830FC080E991E0C3
:103320009C838B838B819C810197F1F79C838B839A
:103330008D819E8101979E838D838D819E810097D3
:1033400069F714C06F81788589859A850E94670026
:10335000DC01CB019E838D838D819E819A8389833D
:1033600089819A810197F1F79A83898386E491E0B4
:103370000E94EA158A899B890E94EA158FE991E0EB
:103380000E94EA158C899D890E94EA1583E491E0E8
:103390000E94EA150E943B168F8702C083E08F8748
:1033A0008F8565960FB6F894DEBF0FBECDBFCF9167
:1033B000DF910895DF93CF9300D00F92CDB7DEB7A2
:1033C0009B838A8319828A819B810097E1F00E9406
:1033D00005168130A1F481EA91E00E94EA150E946D
:1033E0003B16813061F48CEA91E00E94EA158A81F3
:1033F0009B810E94EA1580EB91E00E94EA150E94F1
:103400003B16898302C083E0898389810F900F90E6
:103410000F90CF91DF9108950F931F93DF93CF9378
:10342000CDB7DEB7C855D0400FB6F894DEBF0FBE9B
:10343000CDBFFE01EB5AFF4F91838083FE01E95A15
:10344000FF4F718360838BE291E00E94EA158AE06E
:103450000E944C1FFE01EF5AFF4F80E090E0A8EC65
:10346000B2E480839183A283B3838E01035B1F4FF9
:10347000FE01EF5AFF4F608171818281938120E0CC
:1034800030E04AE755E40E943D02DC01CB01F8013F
:1034900080839183A283B383FE01E35BFF4F60814E
:1034A00071818281938120E030E040E85FE30E94F7
:1034B0009703882344F4FE01E55BFF4F81E090E031
:1034C0009183808364C0FE01E35BFF4F6081718163
:1034D0008281938120E03FEF4FE757E40E9437035A
:1034E00018160CF043C0FE01EF5AFF4F6081718146
:1034F0008281938120E030E040E251E40E943D026D
:10350000DC01CB018E01055B1F4FBC01CD010E9488
:103510006700DC01CB01F801918380831FC0FE01AD
:10352000E75BFF4F80E991E091838083FE01E75BD9
:10353000FF4F808191810197F1F7FE01E75BFF4F1B
:1035400091838083DE01A55BBF4FFE01E55BFF4FEA
:1035500080819181019711969C938E93FE01E55B8A
:10356000FF4F808191810097D1F627C08E01055BC6
:103570001F4FFE01E35BFF4F608171818281938168
:103580000E946700DC01CB01F80191838083DE019A
:10359000A95BBF4FFE01E55BFF4F808191818D9359
:1035A0009C93FE01E95BFF4F808191810197F1F7C8
:1035B000FE01E95BFF4F9183808386E391E00E94E7
:1035C000EA158AE00E944C1FFE01ED5BFF4F80E090
:1035D00090E0A8ECB2E480839183A283B3838E0150
:1035E000015C1F4FFE01ED5BFF4F608171818281A5
:1035F000938120E030E04AE755E40E943D02DC017F
:10360000CB01F80180839183A283B383FE01FF96EF
:10361000608171818281938120E030E040E85FE346
:103620000E94970388232CF481E090E09EAF8DAF39
:1036300046C0FE01FF96608171818281938120E006
:103640003FEF4FE757E40E943703181664F5FE0179
:10365000ED5BFF4F608171818281938120E030E0DA
:1036600040E251E40E943D02DC01CB01BC01CD01EE
:103670000E946700DC01CB019EAF8DAF0FC080E9D7
:1036800091E09CAF8BAF8BAD9CAD0197F1F79CAFF8
:103690008BAF8DAD9EAD01979EAF8DAF8DAD9EADC5
:1036A000009769F716C0FE01FF96608171818281E3
:1036B00093810E946700DC01CB019EAF8DAF8DAD81
:1036C0009EAD9AAF89AF89AD9AAD0197F1F79AAFE8
:1036D00089AFFE01EB5AFF4F808191810E94EA156C
:1036E0008AE00E944C1F80E090E0A8ECB2E48DAB31
:1036F0009EABAFABB8AF6DA97EA98FA998AD20E006
:1037000030E04AE755E40E943D02DC01CB0189AB81
:103710009AABABABBCAB69A97AA98BA99CA920E0F9
:1037200030E040E85FE30E94970388232CF481E0B7
:1037300090E098AB8FA73FC069A97AA98BA99CA9F3
:1037400020E03FEF4FE757E40E94370318164CF58F
:103750006DA97EA98FA998AD20E030E040E251E448
:103760000E943D02DC01CB01BC01CD010E9467003B
:10377000DC01CB0198AB8FA70FC080E991E09EA739
:103780008DA78DA59EA50197F1F79EA78DA78FA563
:1037900098A9019798AB8FA78FA598A9009769F76B
:1037A00014C069A97AA98BA99CA90E946700DC01B1
:1037B000CB0198AB8FA78FA598A99CA78BA78BA5AA
:1037C0009CA50197F1F79CA78BA780E491E00E944C
:1037D000EA158AE00E944C1F80E090E0A8ECB2E479
:1037E0008FA398A7A9A7BAA76FA178A589A59AA51D
:1037F00020E030E04AE755E40E943D02DC01CB01C5
:103800008BA39CA3ADA3BEA36BA17CA18DA19EA104
:1038100020E030E040E85FE30E94970388232CF427
:1038200081E090E09AA389A33FC06BA17CA18DA108
:103830009EA120E03FEF4FE757E40E9437031816A0
:103840004CF56FA178A589A59AA520E030E040E26B
:1038500051E40E943D02DC01CB01BC01CD010E947C
:103860006700DC01CB019AA389A30FC080E991E036
:1038700098A38F8F8F8D98A10197F1F798A38F8FC1
:1038800089A19AA101979AA389A389A19AA10097D6
:1038900069F714C06BA17CA18DA19EA10E94670055
:1038A000DC01CB019AA389A389A19AA19E8F8D8F58
:1038B0008D8D9E8D0197F1F79E8F8D8FFE01E95AB8
:1038C000FF4F808191810E94EA158AE00E944C1F7F
:1038D00080E090E0A8ECB2E4898F9A8FAB8FBC8F28
:1038E000698D7A8D8B8D9C8D20E030E04AE755E420
:1038F0000E943D02DC01CB018D8B9E8BAF8BB88F7C
:103900006D897E898F89988D20E030E040E85FE303
:103910000E94970388232CF481E090E09C8B8B8B92
:103920003FC06D897E898F89988D20E03FEF4FE7FA
:1039300057E40E94370318164CF5698D7A8D8B8DEC
:103940009C8D20E030E040E251E40E943D02DC0129
:10395000CB01BC01CD010E946700DC01CB019C8B37
:103960008B8B0FC080E991E09A8B898B89899A892A
:103970000197F1F79A8B898B8B899C8901979C8B96
:103980008B8B8B899C89009769F714C06D897E8920
:103990008F89988D0E946700DC01CB019C8B8B8BFB
:1039A0008B899C89988B8F878F8598890197F1F7F0
:1039B000988B8F8783E491E00E94EA158AE00E9449
:1039C0004C1F80E090E0A8ECB2E48B879C87AD8729
:1039D000BE876B857C858D859E8520E030E04AE73B
:1039E00055E40E943D02DC01CB018F839887A987B3
:1039F000BA876F81788589859A8520E030E040E834
:103A00005FE30E94970388232CF481E090E09E837B
:103A10008D833FC06F81788589859A8520E03FEF4F
:103A20004FE757E40E94370318164CF56B857C85E9
:103A30008D859E8520E030E040E251E40E943D0209
:103A4000DC01CB01BC01CD010E946700DC01CB0190
:103A50009E838D830FC080E991E09C838B838B8153
:103A60009C810197F1F79C838B838D819E810197C7
:103A70009E838D838D819E81009769F714C06F812D
:103A8000788589859A850E946700DC01CB019E8339
:103A90008D838D819E819A83898389819A81019703
:103AA000F1F79A838983C85ADF4F0FB6F894DEBFC7
:103AB0000FBECDBFCF91DF911F910F910895DF937E
:103AC000CF9300D0CDB7DEB79A8389838CEA91E09B
:103AD0000E94EA1589819A810E94EA1580EB91E0A3
:103AE0000E94EA150F900F90CF91DF910895DF9318
:103AF000CF93CDB7DEB70E94DC1FCF91DF91089541
:103B0000DF93CF93CDB7DEB72C970FB6F894DEBF17
:103B10000FBECDBF6F83788789879A875C874B8775
:103B20008F818E838F819885A985BA85892F9A2F59
:103B3000AB2FBB278D838F819885A985BA85CD0151
:103B4000AA27BB278C838F819885A985BA858B2F5F
:103B50009927AA27BB278B838B858A838B859C8596
:103B6000892F992789838AEA0E9400208DE30E9489
:103B700000208B810E9400208C810E9400208D817A
:103B80000E9400208E810E94002089810E940020D6
:103B90008A810E9400208CEC0E94002083E30E9416
:103BA000002083EC0E9400208CE30E9400202C96D1
:103BB0000FB6F894DEBF0FBECDBFCF91DF91089551
:103BC000DF93CF93CDB7DEB72A970FB6F894DEBF59
:103BD0000FBECDBF6F83788789879A878F818E8349
:103BE0008F819885A985BA85892F9A2FAB2FBB27FE
:103BF0008D838F819885A985BA85CD01AA27BB279A
:103C00008C838F819885A985BA858B2F9927AA27C0
:103C1000BB278B831A8219828AEA0E9400208EE3D6
:103C20000E9400208B810E9400208C810E94002035
:103C30008D810E9400208E810E9400208CEC0E94C9
:103C4000002083E30E94002083EC0E9400208CE38C
:103C50000E9400200E941A208A3AE1F70E941A204E
:103C60008E33E1F70E941A20882F90E09A8389838F
:103C700089819A81982F88279A8389830E941A20A4
:103C8000882F90E09A8389830E941A208C3CE1F768
:103C90000E941A208333E1F70E941A20833CE1F747
:103CA0000E941A208C33E1F789819A812A960FB6F7
:103CB000F894DEBF0FBECDBFCF91DF910895DF93A3
:103CC000CF93CDB7DEB72A970FB6F894DEBF0FBEFD
:103CD000CDBF6D837E838F8398875A8749878D8177
:103CE0008C838D819E81AF81B885892F9A2FAB2FD0
:103CF000BB278B838D819E81AF81B885CD01AA279B
:103D0000BB278A838D819E81AF81B8858B2F9927B0
:103D1000AA27BB2789838AEA0E94002082E40E94A6
:103D2000002089810E9400208A810E9400208B81CE
:103D30000E9400208C810E94002089859A850E9423
:103D40002B208CEC0E94002083E30E94002083EC57
:103D50000E9400208CE30E9400202A960FB6F8945F
:103D6000DEBF0FBECDBFCF91DF910895DF93CF931C
:103D7000CDB7DEB72A970FB6F894DEBF0FBECDBF22
:103D80006D837E838F8398875A8749878D818C8343
:103D90008D819E81AF81B885892F9A2FAB2FBB274C
:103DA0008B838D819E81AF81B885CD01AA27BB27EA
:103DB0008A838D819E81AF81B8858B2F9927AA2711
:103DC000BB2789838AEA0E94002083E40E940020A6
:103DD00089810E9400208A810E9400208B810E949C
:103DE00000208C810E9400208CEC0E94002083E344
:103DF0000E94002083EC0E9400208CE30E9400209F
:103E00000E941A208A3AE1F70E941A208334E1F7CF
:103E100089859A850E9463200E941A208C3CE1F7D4
:103E20000E941A208333E1F70E941A20833CE1F7B5
:103E30000E941A208C33E1F72A960FB6F894DEBF61
:103E40000FBECDBFCF91DF910895DF93CF93CDB754
:103E5000DEB7A5E9B0E0E5E9F0E0808182608C930F
:103E6000A5E9B0E0E5E9F0E0808184608C93E9E2C7
:103E7000F0E087E68083AAE2B0E0EAE2F0E0808149
:103E800088608C93AAE2B0E0EAE2F0E08081806191
:103E90008C93CF91DF910895DF93CF930F92CDB79D
:103EA000DEB78983EBE2F0E08081829586958770AA
:103EB000882F90E0817090700097A1F3ECE2F0E021
:103EC00089818083EBE2F0E08081829586958695FA
:103ED0008370882F90E081709070009799F30F9015
:103EE000CF91DF910895DF93CF9300D0CDB7DEB7A8
:103EF0009A83898389819A819093FE048093FD043B
:103F00000F900F90CF91DF910895DF93CF93CDB7AE
:103F1000DEB7EBE2F0E080818823DCF7ECE2F0E052
:103F20008081CF91DF910895DF93CF9300D0CDB7FB
:103F3000DEB79A8389838091FF04909100059A836C
:103F400089830F900F90CF91DF910895DF93CF93E6
:103F500000D0CDB7DEB79A83898324C0EBE2F0E0CE
:103F60008081829586958770882F90E0817090700F
:103F70000097A1F3ECE2F0E0A981BA818C918083F3
:103F8000EBE2F0E080818295869586958370882F9C
:103F900090E081709070009799F389819A810196E1
:103FA0009A838983E981FA8180818823B9F60F9009
:103FB0000F90CF91DF910895DF93CF93CDB7DEB708
:103FC000AAE9B0E0EAE9F0E080818B7F8C93EDE92B
:103FD000F0E086E08083E9E9F0E088E08083AAE908
:103FE000B0E0EAE9F0E0808180618C93AAE9B0E07A
:103FF000EAE9F0E0808188608C93CF91DF910895A9
:10400000DF93CF930F92CDB7DEB78983EBE9F0E072
:104010008081829586958770882F90E0817090705E
:104020000097A1F3ECE9F0E0898180830F90CF91B4
:10403000DF910895DF93CF930F92CDB7DEB7EBE911
:10404000F0E080818823DCF7ECE9F0E080810F90DC
:10405000CF91DF910895DF93CF9300D0CDB7DEB736
:104060009A83898317C0EBE9F0E080818295869579
:104070008770882F90E0817090700097A1F3ACE971
:10408000B0E0E981FA8180818C9389819A810196DF
:104090009A838983E981FA818081882321F7EBE97A
:1040A000F0E08081829586958770882F90E08170FE
:1040B00090700097A1F3ECE9F0E010820F900F9060
:1040C000CF91DF910895DF93CF9300D0CDB7DEB7C6
:1040D0009A838983EBE9F0E080818823DCF7ECE9BF
:1040E000F0E08081E981FA81808310C0EBE9F0E0A3
:1040F00080818823DCF789819A8101969A8389835C
:10410000ECE9F0E08081E981FA818083E981FA813C
:104110008081882359F70F900F90CF91DF910895F8
:10412000DF93CF93CDB7DEB7AAE9B0E0EAE9F0E0DC
:1041300080818F7E8C93AAE9B0E0EAE9F0E080818B
:10414000877F8C93CF91DF9108950F931F93DF9317
:10415000CF93CDB7DEB7CD56D0400FB6F894DEBFC3
:104160000FBECDBF0E94251F0E94771D0E948906A9
:10417000198E84EB91E0988F8F8B81EC91E09E8B70
:104180008D8B80ED91E09C8B8B8B1A8A80ED91E07A
:10419000998B888B88E2FE017A96DF01982F1D9219
:1041A0009A95E9F781ED91E09B8F8A8F8DED91E0F3
:1041B0009D8F8C8F89EE91E09F8F8E8F1E8680ED74
:1041C00091E09D878C8780ED91E09B878A87198697
:1041D00018861F821E8285EF91E09D838C83CE011D
:1041E00086599F4F0E9432121B8217C08B81882FE5
:1041F00090E003969695982F882797958795AA27FC
:1042000097FDA095BA2F2C813D81BC01CD01A9015C
:104210000E945F1E8B818F5F8B838B81863330F38F
:10422000CE0186599F4F0E949715198E1A8237C06A
:104230008A81282F30E060E070E088E090E0A901FA
:104240000E94801D8A81282F30E088EC90E0821B3C
:10425000930B9C0162E070E088E090E0A9010E946D
:10426000801D8A81882F90E0C2979C016EE070E0EB
:1042700088E090E0A9010E94801D8A81282F30E00B
:1042800086E990E0821B930B9C0160E170E088E07E
:1042900090E0A9010E94801D8A818F5F8A838A81B4
:1042A000893C30F280ED91E0998B888B288939899F
:1042B00060E070E080E090E0A9010E94B61E88896D
:1042C00099899C8B8B8BE889F98980818033B1F542
:1042D00088899989FC0131968081813379F508C0FC
:1042E000898D8F5F898F888999890196998B888BB1
:1042F000E889F9898081882399F7898D8B3061F469
:104300002F89388D60E071E080E090E0A9010E9483
:104310005F1E81E08A8B23C02D893E8960E071E0B9
:1043200080E090E0A9010E945F1E6AE070E088E0F2
:1043300090E040E050E00E94801D11C02D893E8930
:1043400060E071E080E090E0A9010E945F1E6AE0F9
:1043500070E088E090E040E050E00E94801D8A8993
:10436000882309F466C06AE070E088E090E00E946B
:10437000E01D009709F45DC068E070E088E090E01F
:104380000E94E01D8F878F858130E9F42B893C895D
:1043900060E870E080E090E0A9010E945F1E8F85D8
:1043A000282F30E06CE070E088E090E0A9010E94E6
:1043B000801DCE0186599F4F2B893C89B9014F85BD
:1043C0000E9446121FC08F858230E1F42B893C8900
:1043D00060E870E080E090E0A9010E945F1E8F8598
:1043E000282F30E06CE070E088E090E0A9010E94A6
:1043F000801DCE0186599F4F2B893C89B9014F857D
:104400000E9446126AE070E088E090E040E050E0F0
:104410000E94801D64E070E088E090E041E050E0A0
:104420000E94801D1A8ACE0186599F4F0E94411515
:1044300050C08A89882309F44CC062E170E088E0AA
:1044400090E00E94E01D009709F443C08B899C898D
:104450009E0126593F4FB9010E94421362E170E06C
:1044600088E090E040E050E00E94801D64E070E051
:1044700088E090E041E050E00E94801D1A8ACE0161
:1044800086599F4F0E9441152C813D8160E871E063
:1044900080E090E0A9010E945F1E198217C0898107
:1044A000882F90E003969695982F88279795879563
:1044B000AA2797FDA095BA2F2C813D81BC01CD0183
:1044C000A9010E945F1E89818F5F8983898186335C
:1044D00030F3CE0186599F4F40E851E060E070E034
:1044E00000E01FE020E030E00E94B8129ECE629F04
:1044F000D001739FF001829FE00DF11D649FE00DDC
:10450000F11D929FF00D839FF00D749FF00D659F3C
:10451000F00D9927729FB00DE11DF91F639FB00D3B
:10452000E11DF91FBD01CF0111240895A1E21A2E4A
:10453000AA1BBB1BFD010DC0AA1FBB1FEE1FFF1F47
:10454000A217B307E407F50720F0A21BB30BE40B97
:10455000F50B661F771F881F991F1A9469F76095DE
:104560007095809590959B01AC01BD01CF01089598
:104570002F923F924F925F926F927F928F929F9273
:10458000AF92BF92CF92DF92EF92FF920F931F9361
:10459000CF93DF93CDB7DEB7CA1BDB0B0FB6F89412
:1045A000DEBF0FBECDBF09942A88398848885F8452
:1045B0006E847D848C849B84AA84B984C884DF80C3
:1045C000EE80FD800C811B81AA81B981CE0FD11DA7
:1045D0000FB6F894DEBF0FBECDBFED010895CF93A7
:1045E000DF93BC018230910510F462E070E0A0918D
:1045F0000605B0910705ED01E0E0F0E040E050E095
:1046000021C0888199818617970769F48A819B81E7
:10461000309719F09383828304C0909307058093A9
:104620000605FE0134C06817790738F441155105B5
:1046300019F08417950708F4AC01FE018A819B816B
:104640009C01E9012097E9F641155105A9F1CA013C
:10465000861B970B049708F4BA01E0E0F0E02AC04B
:104660008D919C91119784179507F9F4641775073C
:1046700081F412968D919C911397309719F0938342
:10468000828304C09093070580930605FD0132964E
:104690004FC0CA01861B970BFD01E80FF91F6193FC
:1046A000719302978D939C9343C0FD018281938106
:1046B0009C01D9011097A1F6809104059091050500
:1046C000892B41F480910103909102039093050599
:1046D0008093040540910303509104034115510553
:1046E00041F44DB75EB78091FF0290910003481BE3
:1046F000590B209104053091050524173507B0F4B6
:10470000CA01821B930B8617970780F0AB014E5F9F
:104710005F4F8417950750F0420F531F50930505C4
:1047200040930405F9016193719302C0E0E0F0E069
:10473000CF01DF91CF910895CF93DF93009709F4D4
:1047400050C0EC0122971B821A82A0910605B091FD
:104750000705109709F140E050E0AC17BD0708F1DC
:10476000BB83AA83FE0121913191E20FF31FAE17A3
:10477000BF0779F48D919C911197280F391F2E5FF7
:104780003F4F3983288312968D919C9113979B8379
:104790008A834115510571F4D0930705C09306052E
:1047A00020C012968D919C911397AD01009711F046
:1047B000DC01D3CFFA01D383C28321913191E20F7F
:1047C000F31FCE17DF0769F488819981280F391FFD
:1047D0002E5F3F4FFA01318320838A819B8193832F
:1047E0008283DF91CF910895DC0101C06D93415028
:1047F0005040E0F70895FB0151915523A9F0BF0106
:10480000DC014D9145174111E1F759F4CD010190BB
:10481000002049F04D9140154111C9F3FB014111B0
:10482000EFCF81E090E001970895DC01CB01FC011E
:10483000E199FECF06C0FFBBEEBBE09A31960DB208
:104840000D9241505040B8F70895E199FECF9FBBBB
:104850008EBBE09A99278DB30895DC01CB0103C08C
:104860002D910E94382441505040D0F70895262FB2
:10487000E199FECF9FBB8EBB2DBB0FB6F894E29A99
:0C488000E19A0FBE01960895F894FFCF56
:10488C00300041540D0041542B435245473F0D001D
:10489C002B435245473A20302C31000D0A004F4B28
:1048AC000D0A004552524F520D0A0041542B434DF4
:1048BC0047463D310D0041542B434D47533D22009B
:1048CC00220D001A0D00506C656173652064656CD7
:1048DC0065746520225B646F745D2220666F726D57
:1048EC0020746865206C696E6B2062656C6F772034
:1048FC007468656E206F70656E2069742E0D687417
:10490C007470733A2F2F6D6170732E676F5B646FC9
:10491C00745D6F676C652E636F6D2F3F713D002C5E
:10492C000041542B434D47463D300D00415444004B
:10493C003B0D0A0056616C6964204E756D626572A0
:10494C0000496E56616C6964204E756D626572002B
:10495C000030313036333438323839300030313081
:10496C003737373737373737003031303030303032
:10497C00303030300020000000000000000000004B
:10498C0001020203030303040404040404040405E5
:10499C0005050505050505050505050505050506BA
:1049AC00060606060606060606060606060606069B
:1049BC00060606060606060606060606060606078A
:1049CC00070707070707070707070707070707076B
:1049DC00070707070707070707070707070707075B
:1049EC00070707070707070707070707070707074B
:1049FC00070707070707070707070707070707083A
:104A0C00080808080808080808080808080808081A
:104A1C00080808080808080808080808080808080A
:104A2C0008080808080808080808080808080808FA
:104A3C0008080808080808080808080808080808EA
:104A4C0008080808080808080808080808080808DA
:104A5C0008080808080808080808080808080808CA
:104A6C0008080808080808080808080808080808BA
:104A7C000808080808080808080808080808082092
:104A8C0000080500003000000000000000000000DD
:104A9C00000000000000000000000000000000000A
:104AAC0000000000000000000000000000000000FA
:104ABC0000000000000000000000000000000000EA
:104ACC0000000000000000000000000000000000DA
:104ADC0000000000000000000000000000000000CA
:104AEC00000000000000000000300000000000008A
:104AFC0000000000000000000000000000000000AA
:104B0C000000000000000000000000000000000099
:104B1C000000000000000000000000000000000089
:104B2C000000000000000000000000000000000079
:104B3C000000000000000000000000000000000069
:104B4C000000000000000000000000000030000029
:104B5C000000000000000000000000000000000049
:104B6C000000000000000000000000000000000039
:104B7C000000000000000000000000000000000029
:104B8C000000000000000000000000000000000019
:104B9C000000000000000000000000000000000009
:104BAC0000000000000000000000000000000000F9
:104BBC0000300000000000000000000000000000B9
:104BCC0000000000000000000000000000000000D9
:104BDC0000000000000000000000000000000000C9
:104BEC0000000000000000000000000000000000B9
:104BFC0000000000000000000000000000000000A9
:104C0C000000000000000000000000000000000098
:104C1C000000000000300000000000000000000058
:104C2C000000000000000000000000000000000078
:104C3C000000000000000000000000000000000068
:104C4C000000000000000000000000000000000058
:104C5C000000000000000000000000000000000048
:104C6C000000000000000000000000000000000038
:0A4C7C00000000000000000000002E
:00000001FF
