:100000000C9446000C9465000C9465000C946500FB
:100010000C9465000C9465000C9465000C946500CC
:100020000C9465000C9465000C9465000C946500BC
:100030000C9465000C9465000C9465000C946500AC
:100040000C9465000C9465000C9465000C9465009C
:100050000C9465000C9465000C9465000C9465008C
:100060000C9465000C9465000C9465000C9465007C
:100070000C9465000C9465000C9465000C9465006C
:100080000C9465000C9465000C94650011241FBE4F
:10009000CFEFD0E1DEBFCDBF14E0A0E0B1E0E0E003
:1000A000F5E200E00BBF02C007900D92A63CB1073D
:1000B000D9F714E0A6ECB4E001C01D92A33DB1074E
:1000C000E1F70E943F100C947E120C940000EF9216
:1000D000FF920F931F937B018C0120E030E040E002
:1000E0005FE40E94370388238CF0C801B70120E049
:1000F00030E040E05FE40E94DF010E9467039B0163
:10010000AC01205030404040504806C0C801B70103
:100110000E9467039B01AC01B901CA011F910F91B5
:10012000FF90EF900895A0E0B0E0E9E9F0E00C94D2
:10013000F910DC012B01FA019C91923008F439C1CD
:10014000EB018881823008F433C1943069F4843043
:1001500009F02FC111969C9111978981981709F484
:1001600028C1A4ECB1E025C1843009F421C182305A
:10017000A9F4923009F01DC19A01AD0188E0EA01AD
:100180000990AE01E90109929E018150C1F7E20197
:10019000898111969C918923818308C1923009F449
:1001A00007C112962D903C901397EB018A819B8199
:1001B0001496AD90BD90CD90DC901797EC80FD80AB
:1001C0000E811F819101281B390BB90137FF04C033
:1001D00066277727621B730B603271050CF061C0D4
:1001E000121613066CF537014801062E04C09694CA
:1001F0008794779467940A94D2F721E030E040E046
:1002000050E004C0220F331F441F551F6A95D2F7D8
:1002100021503040404050402E213F214023512367
:10022000211531054105510521F021E030E040E084
:1002300050E079018A01E628F728082919293CC0ED
:10024000232BD1F1260E371E35014601062E04C0A0
:1002500096948794779467940A94D2F721E030E0DB
:1002600040E050E004C0220F331F441F551F6A9521
:10027000D2F721503040404050402A213B214C21B0
:100280005D21211531054105510521F021E030E0C6
:1002900040E050E059016A01A628B728C828D928AB
:1002A0000BC0821593052CF01C01AA24BB24650108
:1002B00003C0EE24FF24870111969C91D201119670
:1002C0008C91981709F445C0992339F0A80197013A
:1002D0002A193B094C095D0906C0A60195012E1992
:1002E0003F09400B510B57FD08C011823382228217
:1002F00024833583468357831DC081E08183338205
:10030000228288279927DC01821B930BA40BB50B53
:1003100084839583A683B7830DC0220F331F441FA8
:10032000551F2483358346835783828193810197A8
:10033000938382832481358146815781DA01C90103
:100340000197A109B1098F5F9F4FAF4FBF4328F3BA
:100350000BC0918333822282EA0CFB1C0C1D1D1DF5
:10036000E482F5820683178383E0808324813581CC
:100370004681578157FF1AC0C901AA2797FDA0954A
:10038000BA2F81709070A070B070569547953795D0
:100390002795822B932BA42BB52B84839583A6833F
:1003A000B78382819381019693838283DF0101C0A9
:1003B000D201CD01CDB7DEB7E2E10C941511A0E278
:1003C000B0E0E5EEF1E00C94051169837A838B834C
:1003D0009C832D833E834F835887E9E0EE2EF12CDA
:1003E000EC0EFD1ECE010196B7010E9458058E014C
:1003F0000F5E1F4FCE010596B8010E9458058A89ED
:1004000091E089278A8BC701B801AE01475E5F4F33
:100410000E9493000E948304A096E6E00C942111B0
:10042000A0E2B0E0E6E1F2E00C94051169837A8382
:100430008B839C832D833E834F835887F9E0EF2E77
:10044000F12CEC0EFD1ECE010196B7010E9458055D
:100450008E010F5E1F4FCE010596B8010E94580510
:10046000C701B801AE01475E5F4F0E9493000E9432
:100470008304A096E6E00C942111A0E2B0E0E3E44E
:10048000F2E00C94F91069837A838B839C832D832B
:100490003E834F835887CE010196BE01675F7F4F31
:1004A0000E945805CE010596BE016F5E7F4F0E94E7
:1004B00058059985923088F089898230C8F0943047
:1004C00019F4823051F404C0843029F4923081F45C
:1004D00084EC91E0C6C0923049F420E09A858A8984
:1004E000981321E02A87CE010996BBC0823049F4D7
:1004F00020E09A858A89981321E02A8BCE014196C3
:10050000B0C02D843E844F8458886D887E888F8843
:10051000988CEE24FF248701AA24BB24650140E0C7
:1005200050E060E070E0E0E0F0E0C10181709070C8
:10053000892BE9F0E60CF71C081D191D9A01AB0187
:100540002A0D3B1D4C1D5D1D80E090E0A0E0B0E059
:10055000E614F7040805190520F481E090E0A0E016
:10056000B0E0BA01A901480F591F6A1F7B1FAA0CEE
:10057000BB1CCC1CDD1C97FE08C081E090E0A0E015
:10058000B0E0A82AB92ACA2ADB2A3196E032F1055E
:1005900049F0660C771C881C991C56944794379434
:1005A0002794C3CFFA85EA892B893C898B859C8562
:1005B000280F391F2E5F3F4F17C0CA0181709070FE
:1005C000892B61F016950795F794E79480E090E009
:1005D000A0E0B0E8E82AF92A0A2B1B2B769567954C
:1005E000579547952F5F3F4F77FDE7CF0CC0440FDE
:1005F000551F661F771F17FD4160EE0CFF1C001F83
:10060000111F21503040403090E0590790E06907B9
:1006100090E4790760F32B8F3C8FDB01CA018F7761
:100620009070A070B07080349105A105B10561F49F
:1006300047FD0AC0E114F1040105110529F0405CF1
:100640005F4F6F4F7F4F40781A8EFE1711F081E099
:100650008A8F4D8F5E8F6F8F78A383E0898FCE0155
:1006600049960E948304A096E2E10C941511A8E13A
:10067000B0E0EDE3F3E00C94051169837A838B839A
:100680009C832D833E834F83588789E0E82EF12C8D
:10069000EC0EFD1ECE010196B7010E9458058E0199
:1006A0000F5E1F4FCE010596B8010E94580589853F
:1006B000823040F08989823028F0C701B8010E9459
:1006C000D00501C08FEF6896E6E00C942111ACE0F4
:1006D000B0E0EDE6F3E00C94091169837A838B8333
:1006E0009C83CE010196BE016B5F7F4F0E9458052F
:1006F0008D81823061F1823050F1843021F48E811D
:10070000882351F12EC02F81388537FD20C06E819E
:100710002F3131051CF06623F9F023C08EE190E003
:10072000821B930B29853A854B855C8504C05695C1
:100730004795379527958A95D2F76623B1F050955E
:100740004095309521953F4F4F4F5F4F0EC020E0B1
:1007500030E040E050E009C02FEF3FEF4FEF5FE7A0
:1007600004C020E030E040E050E8B901CA012C9616
:10077000E2E00C942511A8E0B0E0E1ECF3E00C9489
:1007800001117B018C01611571058105910519F439
:1007900082E0898360C083E089838EE1C82ED12CFA
:1007A000DC82CB82ED82FE820F831887C801B701FD
:1007B0000E943404FC013197F7FF3BC02227332706
:1007C0002E1B3F0B57016801022E04C0D694C7941C
:1007D000B794A7940A94D2F740E050E060E070E04C
:1007E00081E090E0A0E0B0E004C0880F991FAA1F4C
:1007F000BB1F2A95D2F70197A109B1098E219F212C
:10080000A023B1230097A105B10521F041E050E0FC
:1008100060E070E04A295B296C297D294D835E8365
:100820006F8378878EE190E08E1B9F0B9C838B8378
:1008300012C0309781F00E2E04C0EE0CFF1C001F7A
:10084000111F0A94D2F7ED82FE820F831887CE1A09
:10085000DF0ADC82CB821A82CE0101960E948304D9
:100860002896EAE00C941D11EF92FF920F931F93CC
:100870007B018C0180E0E81680E0F80681E0080743
:1008800080E0180788F48FEFE816F10401051105E0
:1008900031F028F088E090E0A0E0B0E017C080E000
:1008A00090E0A0E0B0E012C080E0E81680E0F8063A
:1008B00080E0080781E0180728F088E190E0A0E0D8
:1008C000B0E004C080E190E0A0E0B0E020E230E0E1
:1008D00040E050E0281B390B4A0B5B0B04C0169517
:1008E0000795F794E7948A95D2F7F701E453FE4F02
:1008F0008081281B310941095109C9011F910F91BC
:10090000FF90EF900895DF92EF92FF920F931F9365
:10091000FC01E480F58006811781D18080818230DE
:1009200048F480E090E0A0E1B0E0E82AF92A0A2B40
:100930001B2BA5C0843009F49FC0823021F4EE2423
:10094000FF24870105C0E114F1040105110519F424
:10095000E0E0F0E096C0628173819FEF6238790732
:100960000CF05BC022E83FEF261B370B2A31310524
:100970002CF020E030E040E050E02AC0B801A701B0
:10098000022E04C076956795579547950A94D2F73D
:1009900081E090E0A0E0B0E004C0880F991FAA1F9A
:1009A000BB1F2A95D2F70197A109B1098E219F217A
:1009B000A023B1230097A105B10521F081E090E0CB
:1009C000A0E0B0E09A01AB01282B392B4A2B5B2B1E
:1009D000DA01C9018F779070A070B07080349105F2
:1009E000A105B10539F427FF09C0205C3F4F4F4FE7
:1009F0005F4F04C0215C3F4F4F4F5F4FE0E0F0E09E
:100A00002030A0E03A07A0E04A07A0E45A0710F01F
:100A1000E1E0F0E079018A0127C06038710564F5F2
:100A2000FB01E158FF4FD801C7018F779070A0708C
:100A3000B07080349105A105B10539F4E7FE0DC011
:100A400080E490E0A0E0B0E004C08FE390E0A0E09C
:100A5000B0E0E80EF91E0A1F1B1F17FF05C0169510
:100A60000795F794E794319687E016950795F794E4
:100A7000E7948A95D1F705C0EE24FF248701EFEFB4
:100A8000F0E06E2F679566276795902F9F77D79434
:100A9000DD24D7948E2F8695492F462B582F5D291C
:100AA000B701CA011F910F91FF90EF90DF90089559
:100AB000FC01DB01408151812281622F6F7770E060
:100AC000221F2227221F9381892F880F822B282FF4
:100AD00030E0991F9927991F11969C931197211522
:100AE0003105A9F5411551056105710511F482E043
:100AF00037C082E89FEF13969C938E9312979A01CA
:100B0000AB0167E0220F331F441F551F6A95D1F7D1
:100B100083E08C930DC0220F331F441F551F129684
:100B20008D919C911397019713969C938E93129796
:100B3000203080E0380780E0480780E4580758F309
:100B400014962D933D934D935C93179708952F3FE3
:100B5000310579F4411551056105710519F484E0F9
:100B60008C93089564FF03C081E08C9312C01C92A3
:100B700010C02F57304013963C932E93129783E06A
:100B80008C9387E0440F551F661F771F8A95D1F716
:100B9000706414964D935D936D937C9317970895AD
:100BA0001F93DC01FB019C91923008F447C08081C7
:100BB000823008F443C0943051F411961C91843073
:100BC00099F58181682F70E0611B71093FC0843005
:100BD00021F0923031F48230B9F18181882389F19A
:100BE0002DC011961C9111978230F1F08181181758
:100BF000D9F412962D913C9113978281938182179B
:100C0000930794F028173907BCF014968D919D91A5
:100C10000D90BC91A02D24813581468157812817E4
:100C200039074A075B0718F4112341F00AC08217FD
:100C30009307A407B50740F4112319F061E070E0B1
:100C400005C06FEF7FEF02C060E070E0CB011F9145
:100C500008953E9A3F98309A319A329A3D98369844
:100C60000895379A0895369A089597B1907E97B966
:100C700097B1982B97B90895349BFECF349A089575
:100C8000FC0184B195B19183808315B814B808959F
:100C90001ABA17BA14BA11BA82E282B91092610074
:100CA000109264001BBA18BA15BA12BA80E283B95E
:100CB00010926200109265000895683010F081E093
:100CC0000895413009F063C0833089F1843028F4FD
:100CD0008130B9F0823000F509C0853009F43DC09B
:100CE000853080F1863009F0C1C044C02AB381E06C
:100CF00090E002C0880F991F6A95E2F7282B2ABB63
:100D0000B3C027B381E090E002C0880F991F6A95B5
:100D1000E2F7282B27BBA8C024B381E090E002C0F3
:100D2000880F991F6A95E2F7282B24BB9DC021B339
:100D300081E090E002C0880F991F6A95E2F7282BA6
:100D400021BB92C022B181E090E002C0880F991FC0
:100D50006A95E2F7282B22B987C02091610081E0D3
:100D600090E002C0880F991F6A95E2F7282B209324
:100D700061007AC02091640081E090E002C0880F99
:100D8000991F6A95E2F7282B209364006DC04423D5
:100D900011F084E008958330A1F1843028F481308B
:100DA000C1F0823010F509C0853009F442C08530A9
:100DB000A0F1863009F05AC04AC02AB381E090E021
:100DC00002C0880F991F6A95E2F7809582238ABB3B
:100DD0004BC027B381E090E002C0880F991F6A954D
:100DE000E2F78095822387BB3FC024B381E090E087
:100DF00002C0880F991F6A95E2F78095822384BB11
:100E000033C021B381E090E002C0880F991F6A953A
:100E1000E2F78095822381BB27C022B181E090E078
:100E200002C0880F991F6A95E2F78095822382B9E4
:100E30001BC02091610081E090E002C0880F991FE3
:100E40006A95E2F780958223809361000DC020911E
:100E5000640081E090E002C0880F991F6A95E2F774
:100E6000809582238093640080E0089582E0089555
:100E7000683010F081E00895413009F063C083309C
:100E800089F1843028F48130B9F0823000F509C04E
:100E9000853009F43DC0853080F1863009F0C1C04D
:100EA00044C02BB381E090E002C0880F991F6A957F
:100EB000E2F7282B2BBBB3C028B381E090E002C03F
:100EC000880F991F6A95E2F7282B28BBA8C025B385
:100ED00081E090E002C0880F991F6A95E2F7282B05
:100EE00025BB9DC022B381E090E002C0880F991F0E
:100EF0006A95E2F7282B22BB92C023B181E090E0F3
:100F000002C0880F991F6A95E2F7282B23B987C082
:100F10002091620081E090E002C0880F991F6A95DD
:100F2000E2F7282B209362007AC02091650081E0CF
:100F300090E002C0880F991F6A95E2F7282B209352
:100F400065006DC0442311F083E008958330A1F162
:100F5000843028F48130C1F0823010F509C085302A
:100F600009F442C08530A0F1863009F05AC04AC069
:100F70002BB381E090E002C0880F991F6A95E2F7D9
:100F8000809582238BBB4BC028B381E090E002C0E8
:100F9000880F991F6A95E2F78095822388BB3FC02E
:100FA00025B381E090E002C0880F991F6A95E2F7AF
:100FB0008095822385BB33C022B381E090E002C0DC
:100FC000880F991F6A95E2F78095822382BB27C01C
:100FD00023B181E090E002C0880F991F6A95E2F783
:100FE0008095822383B91BC02091620081E090E04C
:100FF00002C0880F991F6A95E2F78095822380933B
:1010000062000DC02091650081E090E002C0880F71
:10101000991F6A95E2F7809582238093650080E0AE
:10102000089582E00895FA011082683010F081E09E
:1010300008958330A9F0843028F4813069F082303B
:1010400068F408C0853081F0853060F08630B9F0F2
:1010500082E0089589B309C086B307C083B305C091
:1010600080B303C081B101C080B190E002C095950A
:1010700087956A95E2F78170808380E0089580917A
:10108000630090E002C0959587956A95E2F78170BC
:10109000808380E00895683010F081E00895833007
:1010A00091F1843028F48130C1F0823008F50AC013
:1010B000853009F43EC0853088F1863009F447C098
:1010C00082E008952BB381E090E002C0880F991F61
:1010D0006A95E2F728272BBB38C028B381E090E05F
:1010E00002C0880F991F6A95E2F7282728BB2DC0F8
:1010F00025B381E090E002C0880F991F6A95E2F75E
:10110000282725BB22C022B381E090E002C0880FCF
:10111000991F6A95E2F7282722BB17C023B181E007
:1011200090E002C0880F991F6A95E2F7282723B93B
:101130000CC02091620081E090E002C0880F991FEE
:101140006A95E2F728272093620080E008952091B5
:10115000650081E090E002C0880F991F6A95E2F770
:1011600028272093650080E00895873010F085E0FF
:1011700008956F3F11F1662301F58330A1F08430AB
:1011800028F4813061F0823060F407C0853079F056
:10119000853058F0863091F50DC01ABA2DC017BAB7
:1011A0002BC014BA29C011BA27C012B825C010929A
:1011B000610022C0109264001FC08330A1F084300F
:1011C00028F4813061F0823060F407C0853079F016
:1011D000853058F0863091F40DC06ABB0DC067BBF6
:1011E0000BC064BB09C061BB07C062B905C0609396
:1011F000610002C06093640080E0089580E008957B
:10120000873010F085E008956F3F11F1662301F5F6
:101210008330A1F0843028F4813061F0823060F4B2
:1012200007C0853079F0853058F0863091F50DC0D3
:101230001BBA2DC018BA2BC015BA29C012BA27C0C4
:1012400013B825C01092620022C0109265001FC022
:101250008330A1F0843028F4813061F0823060F472
:1012600007C0853079F0853058F0863091F40DC094
:101270006BBB0DC068BB0BC065BB09C062BB07C0C0
:1012800063B905C06093620002C06093650080E0AE
:10129000089580E00895FB011082873010F085E00A
:1012A00008958330A9F0843028F4813069F08230C9
:1012B00068F408C0853081F0853060F0863081F0B8
:1012C00082E0089589B309C086B307C083B305C01F
:1012D00080B303C081B101C080B1808380E00895F4
:1012E00080916300808380E00895873010F085E06E
:1012F00008958330D9F0843028F4813079F0823039
:1013000088F408C08530D1F08530A0F08630E9F04F
:1013100082E008958BB380958BBB15C088B3809510
:1013200088BB11C085B3809585BB0DC082B3809505
:1013300082BB09C083B1809583B905C080916200EA
:1013400080958093620080E008958091650080958B
:101350008093650080E00895629A619A08952FB79E
:101360002F772FBF6DB99FBB8EBB629A619A8FB7E3
:1013700080688FBF6199FECF08952FB72F772FBF59
:101380009FBB8EBB609A8FB780688FBF8DB1089569
:101390000F931F938B010E9435060E9431060E9415
:1013A00033060E943C06C8010E94400680E29EE48B
:1013B0000197F1F71F910F9108950F931F938B01E0
:1013C0000E9435060E9431060E9433060E943C06A8
:1013D000C8010E944006F8016081718180E090E0C0
:1013E00028E833E140E050E00E94B8102AE09695EA
:1013F0008795779567952A95D1F72AE030E040E008
:1014000050E00E94D710F8013183208380E29EE4EF
:101410000197F1F71F910F9108950F931F938B017F
:101420000E9435060E9431060E9433060E943C0647
:10143000C8010E944006F8016081718180E090E05F
:101440000E94BB032AE63CEB44EA5FE30E943D02B4
:1014500020E030E74BE254E40E94DF010E94670085
:10146000F8017183608380E29EE40197F1F71F9198
:101470000F910895FC011182108213821282089547
:10148000CF92DF92EF92FF920F931F93DF93CF9350
:10149000CDB7DEB766970FB6F894DEBF0FBECDBFEF
:1014A0006C01FA014081518120E030E07E01089416
:1014B000E11CF11C8E01045F1F4FD701A20FB31F67
:1014C000FB01E20FF31F80818C93D801A20FB31FA1
:1014D000FA01E20FF31F80818C932F5F3F4F2B3077
:1014E000310559F720E030E08E010F5F1F4FBE013C
:1014F000645F7F4FF801E20FF31FDB01A20FB31F00
:1015000090818C91981711F010E04AC02F5F3F4FE7
:101510002B30310579F720E030E0F601E20FF31FC0
:10152000DA01A20FB31F8C9180832F5F3F4F2B30C6
:10153000310599F711E034C020E030E0FB01E20F03
:10154000F31FDA01A20FB31F8C9180832F5F3F4FEF
:101550002B30310599F720E030E0F701E20FF31F5F
:10156000DB01A20FB31F90818C919817A9F42F5F14
:101570003F4F2B30310589F720E030E0F601E20FD4
:10158000F31FDA01A20FB31F8C9180832F5F3F4FAF
:101590002B30310599F711C0FA014585568507C0F2
:1015A000BE01645F7F4F7E010894E11CF11C411570
:1015B000510519F0112309F4BFCF66960FB6F894C0
:1015C000DEBF0FBECDBFCF91DF911F910F91FF9076
:1015D000EF90DF90CF9008950F931F93CF93DF93F9
:1015E0008C011092C60480E090E0F80162810E94B4
:1015F00071128091C6048F5F8093C604F801C08188
:10160000D18119C06091C604CE0170E04BE050E07A
:101610000E9467128091C604855F8093C60490E0A3
:101620006C850E9471128091C6048F5F8093C604FE
:101630000D84DE85C02D209729F7DF91CF911F9172
:101640000F910895CF92DF92EF92FF920F931F9325
:10165000DF93CF93CDB7DEB7A4970FB6F894DEBF74
:101660000FBECDBFAC017B01FB010081118120E0E9
:1016700030E0BE01645F7F4FFB01E20FF31FDA0130
:10168000A20FB31F8C9180832F5F3F4F2B3031050A
:1016900099F720E030E0AE01485E5F4FFA01E20FBB
:1016A000F31FD801A20FB31F8C9180832F5F3F4F90
:1016B0002B30310599F720E030E0BE01645F7F4FA9
:1016C000AE01485E5F4FFB01E20FF31FDA01A20F8C
:1016D000B31F90818C91981731F42F5F3F4F2B30BF
:1016E000310589F748C01CA2A801BE016F5F7F4F7A
:1016F0008CE0C82ED12CCC0EDD1E36C020E030E0B0
:10170000FB01E20FF31FD801A20FB31F8C9180835E
:101710002F5F3F4F2B30310599F720E030E0F60185
:10172000E20FF31FDB01A20FB31F90818C9198177A
:10173000A9F42F5F3F4F2B30310589F7F8018585DC
:101740009685FA0196878587C8010E94DD11F70109
:10175000828193810197938382831FC0A801F8013E
:10176000858596859C01890101151105B1F0FCA1C3
:10177000F13021F612C0F80185859685F701918335
:101780008083C8010E94DD11F70182819381019756
:1017900093838283F1E0FCA3A7CFA4960FB6F894BD
:1017A000DEBF0FBECDBFCF91DF911F910F91FF9094
:1017B000EF90DF90CF9008956F927F928F929F92DB
:1017C000AF92BF92CF92DF92FF920F931F93CF936E
:1017D000DF93FC013A014B01580169018281C0810C
:1017E000D1812097B1F1F82E00E010E030C08C8557
:1017F0008130A1F4612F70E07695762F662777957A
:101800006795882777FD8095982F660D771D881D31
:10181000991DAE010E948B0F1F5F15C0823099F495
:10182000602F70E07695762F6627779567958827E5
:1018300077FD8095982F6A0D7B1D8C1D9D1DAE0137
:101840000E948B0F0F5F0D84DE85C02DFA94FF2060
:1018500071F6DF91CF911F910F91FF90DF90CF90A4
:10186000BF90AF909F908F907F906F900895DF9280
:10187000EF92FF920F931F93CF93DF938C017B0125
:10188000D42E8FE090E00E943011EC0120E030E097
:10189000FE01E20FF31FD701A20FB31F8C918083CB
:1018A0002F5F3F4F2B30310599F71B86DC861E8654
:1018B0001D86D801ED91FC911197309719F4CD93C5
:1018C000DC9309C0CF010584F685E02D3097D1F770
:1018D000FC01D687C587F8018281938101969383A5
:1018E0008283DF91CF911F910F91FF90EF90DF9056
:1018F0000895CF92DF92EF92FF920F931F93DF93A1
:10190000CF93CDB7DEB72B970FB6F894DEBF0FBEDF
:10191000CDBF6C011092C60480E090E00E945F127F
:10192000082F81E08093C6040F3FE1F421C060914D
:10193000C604C70170E04BE050E00E944F121091C6
:10194000C604812F855F8093C60490E00E945F12D9
:10195000482F145F1093C604C601B7010E94370CCC
:10196000015004C07E010894E11CF11C0023F9F62B
:101970002B960FB6F894DEBF0FBECDBFCF91DF918F
:101980001F910F91FF90EF90DF90CF9008950895F1
:10199000CF92DF92EF92FF920F931F93CF93DF933B
:1019A0001092C70424E60FC0829FC00111248E52FA
:1019B0009D4FDC01822F1D928A95E9F78091C70423
:1019C0008F5F8093C7048091C704853068F31092BD
:1019D000C70494E6C92ED12C84E6E82E47C01092A5
:1019E000C80423C00091C70410E00E94DF0F0C9DC3
:1019F000F0010D9DF00D1C9DF00D1124EF0DF11D5A
:101A0000EE52FD4F80838091C7048E9DC00111244A
:101A10008E529D4F60E071E00E943512009751F4A4
:101A20008091C8048F5F8093C804F090C804A3E637
:101A3000AF15C0F60091C7040E9DE0011124CE52EF
:101A4000DD4FCE0163E071E00E943512009711F086
:101A500081E012C0CE0168E071E00E94351200976B
:101A600011F082E009C00F5F0093C7048091C704A2
:101A7000853008F4B4CF80E0DF91CF911F910F91B2
:101A8000FF90EF90DF90CF900895009711F00E94A3
:101A9000E40F08950F931F938C0180E191E00E9461
:101AA000450DC8010E94450D84E191E00E94450D5D
:101AB0001F910F9108950F931F93CF93DF93EC0124
:101AC0008B0188E191E00E94450D8AE00E94D40FCD
:101AD00088EE93E020E931E0F9013197F1F70197C1
:101AE000D9F783E291E00E94450D8AE00E94D40F6D
:101AF00088EE93E020E931E0F9013197F1F70197A1
:101B0000D9F7CE010E94450D8AE00E94D40F88EEDD
:101B100093E020E931E0F9013197F1F70197D9F726
:101B20008DE291E00E94450D8AE00E94D40F88EE7C
:101B300093E020E931E0F9013197F1F70197D9F706
:101B4000C8010E94450D8AE00E94D40F88EE93E000
:101B500020E931E0F9013197F1F70197D9F780E3F6
:101B600091E00E94450D8AE00E94D40F88EE93E038
:101B700020E931E0F9013197F1F70197D9F7DF91C9
:101B8000CF911F910F91089583E391E00E94450D3D
:101B90000E94C80C0895CF93DF93EC01009711F4D5
:101BA00083E019C00E94C40D813099F487E391E06D
:101BB0000E94450D0E94C80C813059F480E191E0EB
:101BC0000E94450DCE010E94450D84E191E00E94E6
:101BD000450D0E94C80CDF91CF910895EF92FF92BE
:101BE0000F931F93CF93DF93EC018B017A01009742
:101BF000C1F161157105A9F14115510591F10E94DD
:101C0000C40D813061F588E191E00E94450D0E948C
:101C1000C80C813021F583E291E00E94450DCE0190
:101C20000E94450D8DE291E00E94450D80E49CE903
:101C30000197F1F782E491E00E94450DC8010E94EE
:101C4000450D8BE991E00E94450DC7010E94450DAD
:101C500080E391E00E94450D0E94C80C03C080E023
:101C600001C083E0DF91CF911F910F91FF90EF9022
:101C700008950F931F93CF93DF93EC018B0100978F
:101C800009F44CC06115710509F448C00E94C40DE7
:101C9000813009F041C088E191E00E94450D80E16A
:101CA00097E220E931E0F9013197F1F70197D9F78F
:101CB0000E94C80C813081F583E291E00E94450DBD
:101CC000CE010E94450D8DE291E00E94450D80E11C
:101CD00097E220E931E0F9013197F1F70197D9F75F
:101CE000C8010E94450D88EE93E020E931E0F9013A
:101CF0003197F1F70197D9F780E391E00E94450D04
:101D000080E197E220E931E0F9013197F1F701979D
:101D1000D9F70E94C80C03C080E001C083E0DF91C6
:101D2000CF911F910F9108950E94C40D8130A1F4AD
:101D30008DE991E00E94450D0E94C80C813061F44C
:101D400086E393E067EA71E00E9435129C0180E02F
:101D5000232B19F081E0089580E00895CF92DF925F
:101D6000EF92FF920F931F937B018C016A018AEA25
:101D70000E9402108DE30E940210812F9927AA274A
:101D8000BB270E940210C801AA27BB270E9402108D
:101D9000BB27A12F902F8F2D0E9402108E2D0E9405
:101DA00002108D2D0E9402108C2D0E9402108CECCE
:101DB0000E94021083E30E94021083EC0E94021032
:101DC0008CE30E9402101F910F91FF90EF90DF9023
:101DD000CF900895EF92FF920F931F937B018C0198
:101DE0008AEA0E9402108EE30E940210812F992736
:101DF000AA27BB270E940210C801AA27BB270E945E
:101E00000210BB27A12F902F8F2D0E9402108E2D24
:101E10000E9402108CEC0E94021083E30E940210C8
:101E200083EC0E9402108CE30E9402100E940A10B0
:101E30008A3AE1F70E940A108E33E1F70E940A10F5
:101E40000E940A10E82E0E940A108C3CE1F70E94C2
:101E50000A108333E1F70E940A10833CE1F70E94E5
:101E60000A108C33E1F78E2D90E01F910F91FF90B7
:101E7000EF900895EF92FF920F931F93CF93DF930C
:101E80007B018C01EA018AEA0E94021083E40E942D
:101E90000210812F9927AA27BB270E940210C80190
:101EA000AA27BB270E940210BB27A12F902F8F2D9E
:101EB0000E9402108E2D0E9402108CEC0E940210D3
:101EC00083E30E94021083EC0E9402108CE30E94C4
:101ED00002100E940A108A3AE1F70E940A10833425
:101EE000E1F7CE010E9424100E940A108C3CE1F719
:101EF0000E940A108333E1F70E940A10833CE1F745
:101F00000E940A108C33E1F7DF91CF911F910F915E
:101F1000FF90EF900895CF92DF92EF92FF920F9390
:101F20001F937B018C016A018AEA0E94021082E4FD
:101F30000E940210812F9927AA27BB270E94021016
:101F4000C801AA27BB270E940210BB27A12F902FF0
:101F50008F2D0E9402108E2D0E940210C6010E9439
:101F600011108CEC0E94021083E30E94021083EC9B
:101F70000E9402108CE30E9402101F910F91FF90AB
:101F8000EF90DF90CF9008950E94F00F0895E5E95B
:101F9000F0E080818260808380818460808387E636
:101FA00089B9539A549A08955D9BFECF8CB95E9B74
:101FB000FECF08959093CA048093C90408955F9B4F
:101FC000FECF8CB108950895FC0106C05D9BFECF45
:101FD0008CB95E9BFECF319680818823B9F7089536
:101FE000EAE9F0E080818B7F808386E080939D002A
:101FF00088E08093990080818061808380818860FF
:1020000080830895982F80919B0085FFFCCF90934B
:102010009C00089580919B0087FFFCCF80919C00DD
:102020000895FC0107C080919B0085FFFCCF909331
:102030009C00319690819923B1F780919B0085FF98
:10204000FCCF10929C000895FC0180919B0087FFBB
:10205000FCCF05C080919B0087FFFCCF319680911B
:102060009C00808380818823A9F70895EAE9F0E045
:1020700080818F7E80838081877F80830895AF9267
:10208000BF92CF92DF92EF92FF920F931F93DF9355
:10209000CF93CDB7DEB728970FB6F894DEBF0FBE4B
:1020A000CDBF0E94C70F0E94C40F0E9429061A824A
:1020B00019821C821B82CE0105960E943A0A90E882
:1020C000E92E91E0F92E012D112DC801B70142EB47
:1020D00051E00E948B0F80E890E0A0E0B0E0E80EB5
:1020E000F91E0A1F1B1F90E8E9169CE1F90690E013
:1020F000090790E0190749F78E010B5F1F4FC801D0
:102100000E94790C5E010894A11CB11C83E0C82ECA
:10211000D12CCC0EDD1E780180E0B5010E940D0AA5
:1021200081E0B6010E940D0A60E070E080E090E07E
:1021300044EB51E00E943A0F60E071E080E090E0F3
:1021400045EB51E00E948B0F6AE070E088E090E080
:1021500040E050E00E94AE0EC70140E851E060E070
:1021600070E000E01FE020E030E00E94DC0BD4CF04
:10217000629FD001739FF001829FE00DF11D649F6B
:10218000E00DF11D929FF00D839FF00D749FF00DF7
:10219000659FF00D9927729FB00DE11DF91F639F98
:1021A000B00DE11DF91FBD01CF0111240895A1E279
:1021B0001A2EAA1BBB1BFD010DC0AA1FBB1FEE1FC1
:1021C000FF1FA217B307E407F50720F0A21BB30B0C
:1021D000E40BF50B661F771F881F991F1A9469F788
:1021E00060957095809590959B01AC01BD01CF01E4
:1021F00008952F923F924F925F926F927F928F92AB
:102200009F92AF92BF92CF92DF92EF92FF920F9385
:102210001F93CF93DF93CDB7DEB7CA1BDB0B0FB68F
:10222000F894DEBF0FBECDBF09942A88398848884C
:102230005F846E847D848C849B84AA84B984C884E2
:10224000DF80EE80FD800C811B81AA81B981CE0FD9
:10225000D11D0FB6F894DEBF0FBECDBFED010895BE
:10226000CF93DF93BC018230910510F462E070E0FF
:10227000A091D104B091D204ED01E0E0F0E040E0A3
:1022800050E021C0888199818617970769F48A8177
:102290009B81309719F09383828304C09093D2047A
:1022A0008093D104FE0134C06817790738F44115D2
:1022B000510519F08417950708F4AC01FE018A81D5
:1022C0009B819C01E9012097E9F641155105A9F18F
:1022D000CA01861B970B049708F4BA01E0E0F0E00E
:1022E0002AC08D919C91119784179507F9F4641772
:1022F000750781F412968D919C911397309719F080
:102300009383828304C09093D2048093D104FD010F
:1023100032964FC0CA01861B970BFD01E80FF91FCB
:102320006193719302978D939C9343C0FD018281C9
:1023300093819C01D9011097A1F68091CF049091CF
:10234000D004892B41F48091CE029091CF029093DA
:10235000D0048093CF044091D0025091D102411516
:10236000510541F44DB75EB78091CC029091CD02FA
:10237000481B590B2091CF043091D0042417350706
:10238000B0F4CA01821B930B8617970780F0AB014C
:102390004E5F5F4F8417950750F0420F531F5093C5
:1023A000D0044093CF04F9016193719302C0E0E03F
:1023B000F0E0CF01DF91CF910895CF93DF930097A5
:1023C00009F450C0EC0122971B821A82A091D1041B
:1023D000B091D204109709F140E050E0AC17BD076E
:1023E00008F1BB83AA83FE0121913191E20FF31F13
:1023F000AE17BF0779F48D919C911197280F391F63
:102400002E5F3F4F3983288312968D919C911397AD
:102410009B838A834115510571F4D093D204C093F4
:10242000D10420C012968D919C911397AD01009715
:1024300011F0DC01D3CFFA01D383C2832191319112
:10244000E20FF31FCE17DF0769F488819981280F07
:10245000391F2E5F3F4FFA01318320838A819B8190
:1024600093838283DF91CF910895FB01519155238E
:10247000A9F0BF01DC014D9145174111E1F759F475
:10248000CD010190002049F04D9140154111C9F353
:10249000FB014111EFCF81E090E001970895DC014D
:1024A000CB01FC01E199FECF06C0FFBBEEBBE09A79
:1024B00031960DB20D9241505040B8F70895E19910
:1024C000FECF9FBB8EBBE09A99278DB30895DC01A8
:1024D000CB0103C02D910E94721241505040D0F7A1
:1024E0000895262FE199FECF9FBB8EBB2DBB0FB663
:1024F000F894E29AE19A0FBE01960895F894FFCFFE
:102500000D0A004F4B0D0A004552524F520D0A0062
:10251000415444003B0D0A0041542B434D47463D76
:10252000310D0041542B434D47533D2200220D00F5
:102530001A0D0041540D0041542B434D47463D3088
:102540000D00506C656173652064656C6574652071
:10255000225B646F745D2220666F726D2074686503
:10256000206C696E6B2062656C6F77207468656E95
:10257000206F70656E2069742E0D68747470733AE4
:102580002F2F6D6170732E676F5B646F745D6F6763
:102590006C652E636F6D2F3F713D002C0041542BF5
:1025A000435245473F0D002B435245473A20302CBC
:1025B0003100200000496E56616C6964204E756DD3
:1025C00062657200000000000000000000010202CD
:1025D00003030303040404040404040405050505BB
:1025E0000505050505050505050505050606060697
:1025F000060606060606060606060606060606067B
:102600000606060606060606060606060707070766
:10261000070707070707070707070707070707074A
:10262000070707070707070707070707070707073A
:10263000070707070707070707070707070707072A
:102640000707070707070707070707070808080816
:1026500008080808080808080808080808080808FA
:1026600008080808080808080808080808080808EA
:1026700008080808080808080808080808080808DA
:1026800008080808080808080808080808080808CA
:1026900008080808080808080808080808080808BA
:1026A00008080808080808080808080808080808AA
:1026B000080808080808080808080808080808089A
:1026C0000808080808080808080808082000D304B3
:1026D00000003000000000000000000000000000CA
:1026E00000000000000000000000000000000000EA
:1026F00000000000000000000000000000000000DA
:1027000000000000000000000000000000000000C9
:1027100000000000000000000000000000000000B9
:1027200000000000000000000000000000000000A9
:102730000000000000003000000000000000000069
:102740000000000000000000000000000000000089
:102750000000000000000000000000000000000079
:102760000000000000000000000000000000000069
:102770000000000000000000000000000000000059
:102780000000000000000000000000000000000049
:102790000000000000000000000030000000000009
:1027A0000000000000000000000000000000000029
:1027B0000000000000000000000000000000000019
:1027C0000000000000000000000000000000000009
:1027D00000000000000000000000000000000000F9
:1027E00000000000000000000000000000000000E9
:1027F00000000000000000000000000000003000A9
:1028000000000000000000000000000000000000C8
:1028100000000000000000000000000000000000B8
:1028200000000000000000000000000000000000A8
:102830000000000000000000000000000000000098
:102840000000000000000000000000000000000088
:102850000000000000000000000000000000000078
:102860000000300000000000000000000000000038
:102870000000000000000000000000000000000058
:102880000000000000000000000000000000000048
:102890000000000000000000000000000000000038
:1028A0000000000000000000000000000000000028
:1028B0000000000000000000000000000000000018
:0628C00000000000000012
:00000001FF
