:100000000C9446000C9465000C9465000C946500FB
:100010000C9465000C9465000C9465000C946500CC
:100020000C9465000C9465000C9465000C946500BC
:100030000C9465000C9465000C9465000C946500AC
:100040000C94570B0C9465000C9465000C9465009F
:100050000C9465000C9465000C9465000C9465008C
:100060000C9465000C9465000C9465000C9465007C
:100070000C9465000C9465000C9465000C9465006C
:100080000C9465000C9465000C94650011241FBE4F
:10009000CFEFD0E1DEBFCDBF17E0A0E0B1E0E8E1F7
:1000A000FDE200E00BBF02C007900D92A238B1073D
:1000B000D9F729E0A2E8B7E001C01D92A03AB20743
:1000C000E1F70E94300F0C948A160C940000FC019A
:1000D0008081803319F48181813391F046E253E0CD
:1000E00060E071E080E090E00E94BA0A50E040E0F9
:1000F0006AE070E088E090E00E943C0A80E00895A9
:1001000010927F0890917F08DF01A90FB11D8C919B
:1001100081110CC09B3011F745E353E060E071E0C2
:1001200080E090E00E94BA0A81E008959F5F90937A
:100130007F08E8CFCF92DF92EF92FF9280E8C82E3F
:10014000DD24D394E12CF12C46E256E0C701B60140
:100150000E94BA0A80E8C80ED11CE11CF11C80E89C
:10016000C81685E0D806E104F10471F7FF90EF901E
:10017000DF90CF9008950F931F93CF93DF93662363
:1001800009F460C0EC016AE070E088E090E00E9451
:10019000710A892B81F168E070E0CB010E94710A3D
:1001A0008C018FEF800F823090F4AE0160E870E038
:1001B00080E090E00E94BA0AA8015527BE018DE7B1
:1001C00098E00E9453048DE798E00E945F0550E09C
:1001D00040E06AE070E088E090E00E943C0A41E084
:1001E00050E064E070E088E090E0DF91CF911F91F3
:1001F0000F910C943C0A62E170E088E090E00E946C
:10020000710A892BF9F06DE778E0CE010E94E604CF
:100210008DE798E00E945F0550E040E062E170E009
:1002200088E090E00E943C0A41E050E064E070E029
:1002300088E090E00E943C0ADF91CF911F910F91DE
:100240000C949A00DF91CF911F910F9108950E9415
:10025000E00D0E943A0A0E94370B8DE798E00E9459
:100260004B0410927F08109280081092810810921F
:10027000C108E9E0F9E0119211921192119211AACC
:1002800012AA13AA14AA89E0E133F807A1F7109281
:1002900031091092660910923209109233091092B6
:1002A000340910923509109267091092680910926A
:1002B000690910926A0910926F09109270091092E0
:1002C000710910927209109273090E9475030E94BD
:1002D0009A008DE798E00C9413060F931F93CF9329
:1002E000DF93EC018C0108571F4F20E030E048E419
:1002F00052E4F80160817181828193810E946B0FC9
:100300000E944E10AB0160E070E088E090E00E9437
:100310003C0AF80160817181828193810E944E10B4
:10032000AB016EE070E088E090E00E943C0AC354AC
:10033000DF4F20E030E048EC52E4688179818A8127
:100340009B810E943B110E944E10AB0162E070E065
:1003500088E090E00E943C0A688179818A819B81D3
:100360000E944E10AB0160E170E088E090E00E94D6
:100370003C0A64E070E088E090E00E94710A892BFA
:10038000A1F04AE853E060E870E080E090E00E946D
:10039000BA0A50E040E064E070E088E090E0DF916D
:1003A000CF911F910F910C943C0ADF91CF911F9137
:1003B0000F910895CF92DF92EF92FF920F931F93C8
:1003C000CF93DF93CDB7DEB7C054D1090FB6F89401
:1003D000DEBF0FBECDBF10927F0841E858E060E855
:1003E00070E080E090E00E94EC0AE1E8F8E08191A2
:1003F00087AF882321F088E0E13CF807C1F781EC62
:1004000098E00E94670080938008682F81EC98E054
:100410000E94BB0080E00E947B076B017C0120E012
:1004200030E040E151E46091050970910609809146
:100430000709909108090E943B11A70196010E94AB
:100440006B0F20E030E040E251E40E94DC0F60934B
:10045000050970930609809307099093080981E0C4
:100460000E948E036B017C0120E030E040E151E40A
:1004700060913A0970913B0980913C0990913D0946
:100480000E943B11A70196010E946B0F20E030E013
:1004900040E251E40E94DC0F60933A0970933B09FB
:1004A00080933C0990933D090E94300460936B094E
:1004B00070936C0980936D0990936E0910910509F2
:1004C00000910609F0900709E090080920E030E06B
:1004D0004AEA52E4D801F7016B2F7A2F8F2F9E2F13
:1004E0000E943611181674F020E030E040EA51EC1A
:1004F000D801F7016B2F7A2F8F2F9E2F0E94D70FD5
:1005000087FFABC0EF92FF920F931F9382E493E0BB
:100510009F938F931F9280E48F93CE0101969F93B8
:100520008F930E9467130FB6F894DEBF0FBECDBF46
:1005300011E000913A09F0903B09E0903C09D0901D
:100540003D0920E030E040EA51E4602F7F2D8E2D00
:100550009D2D0E94361118160CF081C080916E09F5
:100560008F9380916D098F9380916C098F93809107
:100570006B098F93DF92EF92FF920F9387E593E0E1
:100580009F938F931F9280E48F93CE0101969F9348
:100590008F930E9467130FB6F894DEBF0FBECDBFD6
:1005A00081E08093730946E753E060E071E080E00A
:1005B00090E00E94BA0A80916F0990917009A09111
:1005C0007109B09172090097A105B10589F08857AA
:1005D0009C4EAF4FBF4F4091740950917509609187
:1005E000760970917709481759076A077B07C8F0A1
:1005F000E0917D08F0917E080081118101151105BF
:10060000D9F58091740990917509A0917609B091FE
:10061000770980936F0990937009A0937109B09343
:1006200072098DE798E00E946D0140E05FE060E8AC
:1006300071E08DE798E00E949504C05CDF4F0FB633
:10064000F894DEBF0FBECDBFDF91CF911F910F9108
:10065000FF90EF90DF90CF90089510E06ACF1111D6
:100660009FCF109273094BE853E060E071E080E0A7
:1006700090E00E94BA0AD5CFF801E080F1808DE7C2
:1006800093E00E94FD0DF7018081811113C087E87E
:1006900093E00E94FD0DCE0101967C01F70181914E
:1006A0007F0181110DC08AE10E941A0EF8010281BA
:1006B0001381A4CFFFEFEF1AFF0A0E941A0EE3CFB7
:1006C0000E941A0EEBCF0F931F93CF938C010E94C1
:1006D0006700C82F882321F0682FC8010E94BB0043
:1006E0008C2FCF911F910F91089580E090E0A0EFA3
:1006F000B1E48093890990938A09A0938B09B09300
:100700008C0980E090E0A0E0B4E4809385099093A8
:100710008609A0938709B093880908958F929F92C4
:10072000AF92BF92CF92DF92EF92FF921F93CF933F
:10073000DF93182FC8ECD5E0812F0E94410B8093E6
:100740009109BC017727072E000C880B990B0E949A
:1007500086106B017C018090850990908609A0909D
:100760008709B0908809A50194010E946A0F20E0D2
:1007700030E040E85AE30E943B11A50194010E9439
:100780006B0F9B01AC012093850930938609409340
:10079000870950938809C701B6010E946A0F6093C8
:1007A0008D0970938E0980938F09909390099B0116
:1007B000AC010E943B116093960970939709809356
:1007C0009809909399092091920930919309409149
:1007D0009409509195090E946B0F60939209709350
:1007E00093098093940990939509219709F0A4CFD8
:1007F00020E030E049EB54E40E94DC0F0E94AE118F
:100800006B017C012DE33AE04BE95BE360918909E0
:1008100070918A0980918B0990918C090E943B11FB
:10082000A70196010E943B11609381097093820990
:1008300080938309909384091092920910929309EE
:100840001092940910929509DF91CF911F91FF901A
:10085000EF90DF90CF90BF90AF909F908F900895D2
:1008600020E030E04CE553E40E943B11089561150F
:10087000710561F0FC01DB010B9631912D91321372
:1008800005C0E817F907C9F781E0089580E00895E9
:10089000109278090895009729F0FC0111821082C6
:1008A000138212820895FF920F931F93CF93DF93C9
:1008B000009769F16115710551F1F42EEB018C017E
:1008C0008FE090E00E940312DC01009701F1FE012D
:1008D000EC01CF010B9621912993E817F907D9F77D
:1008E0001B961C921B971C96FC921C971E961C92A2
:1008F0001E921D97E801E881F981309779F4B98358
:10090000A883F80182819381019693838283DF918A
:10091000CF911F910F91FF900895FC0185859685D9
:100920000097D9F7B687A587ECCF8F929F92AF92A9
:10093000BF92CF92DF92EF92FF920F931F93CF93CC
:10094000DF93009719F1FC01C081D1812097F1F06C
:10095000480159016A017B0100E010E08C8581307B
:1009600011F5F0E81F9FB0011124072E000C880B31
:10097000990B6C0D7D1D8E1D9F1DAE010E94BA0A44
:100980001F5F0D84DE85C02D209741F7DF91CF9149
:100990001F910F91FF90EF90DF90CF90BF90AF909D
:1009A0009F908F900895823061F780E8089FB00192
:1009B0001124072E000C880B990B680D791D8A1DD8
:1009C0009B1DAE010E94BA0A0F5FDBCFCF92DF9270
:1009D000EF92FF920F931F93CF93DF9361157105F1
:1009E000F9F00097E9F0FB01C081D1812097C1F0B7
:1009F0008B017C01BC01CE010E943704D12CC12C9B
:100A00008823E1F08D859E85F80191838083CE0156
:100A10000E949F12F80182819381019793838283C0
:100A2000DF91CF911F910F91FF90EF90DF90CF90CA
:100A300008956E012115310599F3E901B701CE0141
:100A40000E9437042D853E85882399F3F601368769
:100A50002587DDCFEF92FF920F931F93CF93DF9304
:100A60004115510509F161157105F1F00097E1F0AB
:100A70007B018C01FA01C081D181209729F480E3A8
:100A8000F8018083118210C0B701CE010E943704A3
:100A9000882389F0F801CE010B9629912193C8177C
:100AA000D907D9F7F8011386DF91CF911F910F91E4
:100AB000FF90EF9008950D84DE85C02DDECFFF926C
:100AC0000F931F93CF93DF93CDB7DEB72C970FB65D
:100AD000F894DEBF0FBECDBF8C0165E973E081E005
:100AE00090E001151105B9F163EC73E083E090E04B
:100AF0000E94EA0E4AE0BE016F5F7F4FF8018281DB
:100B000093810E944213AE014F5F5F4F6AEE73E024
:100B100084E090E00E94060F1092780966EF73E07F
:100B200083E090E00E94EA0E80917809F8016281EA
:100B300090E00E947D16809178098F5F80937809FC
:100B4000F80100811181F12C0115110591F469E67C
:100B500074E083E090E00E94EA0E2C960FB6F894C1
:100B6000DEBF0FBECDBFDF91CF911F910F91FF90E0
:100B700008954AE0BE016F5F7F4F8F2D90E00E9485
:100B80004213AE014F5F5F4F68E174E084E090E094
:100B90000E94060F809178094AE0BE016F5F7F4F87
:100BA00090E00E944213AE014F5F5F4F67E274E036
:100BB00084E090E00E94060FA80163E474E084E002
:100BC00090E00E94060F6091780970E04BE050E0E1
:100BD000C8010E94731680917809855F8093780917
:100BE000F80184854AE0BE016F5F7F4F90E00E946C
:100BF0004213AE014F5F5F4F62E574E084E090E026
:100C00000E94060F80917809F801648590E00E94A7
:100C10007D16809178098F5F80937809F8010585AA
:100C20001685F39491CFBF92CF92DF92EF92FF920D
:100C30000F931F93CF93DF93CDB7DEB768970FB6AF
:100C4000F894DEBF0FBECDBF6C016FE874E081E0A9
:100C500090E0C114D104F1F16EEB74E083E090E018
:100C60000E94EA0E1092780990E080E00E946B16D4
:100C7000182F81E080937809E12EF12C4AE0BE0123
:100C80006F5F7F4FC7010E944213AE014F5F5F4FFE
:100C900066EE74E084E090E00E94060F1F3FB1F022
:100CA00010E000E04AE0BE016F5F7F4FC8010E1503
:100CB0001F0511F50E944213AE014F5F5F4F6EE8B2
:100CC00075E083E090E00E94060F06C069EF74E0D3
:100CD00082E090E00E94EA0E68960FB6F894DEBFBC
:100CE0000FBECDBFDF91CF911F910F91FF90EF907D
:100CF000DF90CF90BF9008950E944213AE014F5FE6
:100D00005F4F69E375E084E090E00E94060F8091F8
:100D100078094AE0BE016F5F7F4F90E00E94421366
:100D2000AE014F5F5F4F68E475E084E090E00E94A1
:100D3000060F6091780970E04BE050E0CE010D960F
:100D40000E945B1680917809855F80937809188EE0
:100D5000AE01435F5F4F66E675E084E090E00E947D
:100D6000060F8091780990E00E946B16B82E4AE039
:100D7000BE016F5F7F4F90E00E944213AE014F5F54
:100D80005F4F6AE775E084E090E00E94060F809173
:100D900078098F5F809378094B2DBE01635F7F4F89
:100DA000C6010E9453040F5F1F4F7CCF0895089522
:100DB0000895EF92FF921F93CF93DF93CDB7DEB7E5
:100DC0002C970FB6F894DEBF0FBECDBF7C016FEB42
:100DD00075E081E090E0E114F10409F474C0A7012A
:100DE0006AEE75E083E090E00E94060F10927809A9
:100DF00090E080E00E946B16182F4AE0BE016F5F02
:100E00007F4F90E00E944213AE014F5F5F4F6AE058
:100E100076E084E090E00E94060F1F3F39F468E21C
:100E200076E083E090E00E94EA0E10E01F5F4AE067
:100E3000BE016F5F7F4F812F90E00E944213AE0191
:100E40004F5F5F4F62E576E084E090E00E94060F1E
:100E500080917809612F90E00E947D168CE0189FA8
:100E6000102D11241B50109378094AE0BE016F5FCA
:100E70007F4F812F90E00E944213AE014F5F5F4F82
:100E800067E274E084E090E00E94060F60917809C8
:100E900070E04BE050E0C7010E9473168091780922
:100EA000855F8093780962E676E083E090E00E94B7
:100EB000EA0E8091780961E090E00E947D1669E871
:100EC00076E083E090E00E94EA0E2C960FB6F8944C
:100ED000DEBF0FBECDBFDF91CF911F91FF90EF908E
:100EE0000895009711F00C94D9060895009711F019
:100EF0000C94710708954F925F926F927F928F9238
:100F00009F92AF92BF92CF92DF92EF92FF92CF93D8
:100F1000DF93CDB7DEB728970FB6F894DEBF0FBECC
:100F2000CDBF0E94410BBC01990F880B990B0E9409
:100F3000861029E031E34BE95BE30E943B116B0132
:100F40007C012DEC3CEC4CE350E40E943611181669
:100F50000CF4B6C029E23CE54FE05FE3C701B601FF
:100F60000E94361118160CF084C028EB3EE145E8CB
:100F70005FE3C701B6010E94361118160CF086C057
:100F800022E538EB4EEF5FE3C701B6010E94361150
:100F900018160CF088C083E090E0FDEC8F2EFCEC7E
:100FA0009F2EFCE3AF2EF0E4BF2E24E030E0880F4C
:100FB000991F880F991FFC01E250FD4F408051801E
:100FC000628073808E5E9C4FFC0140815181628102
:100FD000738149835A836B837C83220F331F220FD3
:100FE000331FF901E250FD4FA3019201608171812D
:100FF000828193810E946A0F6D837E838F8398879D
:1010000029813A814B815C81C701B6010E946A0F38
:101010009B01AC016D817E818F8198850E943B117F
:101020006B017C0129813A814B815C81C501B4014E
:101030000E946A0F9B01AC01C701B6010E94DC0F40
:10104000A30192010E946B0F28960FB6F894DEBFA1
:101050000FBECDBFDF91CF91FF90EF90DF90CF908B
:10106000BF90AF909F908F907F906F905F904F90C8
:10107000089590E080E0E9E28E2EECE59E2EEFE010
:10108000AE2EEFE3BE2E21E030E091CF81E090E084
:1010900078EB872E7EE1972E75E8A72E7FE3B72E9B
:1010A00022E030E084CF82E090E062E5862E68EBBB
:1010B000962E6EEFA62E6FE3B62E23E030E077CFAC
:1010C00060E070E0CB01C0CF009711F00C94FD0DF3
:1010D000089508950F931F93CF93DF9310927A0989
:1010E00094E680917A09853070F010927A09D4E6FE
:1010F00080917A098530A8F090E080E0DF91CF916F
:101100001F910F910895899FF0011124E050FF4F26
:10111000DF01292F1D922A95E9F78F5F80937A09C5
:10112000E0CF10927909C091790900917A0910E015
:10113000C436C8F40E94F80DD09FF001D19FF00D85
:101140001124E050FF4FEC0FF11D808380917A094C
:101150008D9FC001112468E873E080509F4F0E946A
:101160002813892B89F0C0917A09CD9F8001112421
:1011700000501F4F69EB76E0C8010E942813892BAD
:1011800049F081E090E0BACF809179098F5F809338
:101190007909C9CF6EEB76E0C8010E942813892B2C
:1011A00021F4CF5FC0937A09A3CF82E090E0A6CF6D
:1011B00086EC96E00E94FD0D0C946A080E94D80807
:1011C000019719F080E090E008958AEC96E00E9483
:1011D000FD0D0E946A080197A9F764ED76E084E6A8
:1011E00091E00E94281331E020E0892B09F430E0DF
:1011F000832F922F08950F931F93CF93DF93009720
:1012000009F452C06115710509F44EC0EB018C015F
:101210000E94D808019739F090E080E0DF91CF91EB
:101220001F910F9108958FED96E00E94FD0D2FE321
:101230008DE093E0215080409040E1F700C0000035
:101240000E946A08019741F78DE793E00E94FD0D27
:10125000C8010E9464088AEE96E00E94FD0D2FE30B
:101260008DE093E0215080409040E1F700C0000005
:10127000CE010E94640887EA91E60197F1F700C069
:1012800000008DEE96E00E94FD0D9FE32DE083E0CF
:10129000915020408040E1F700C00000DF91CF91E5
:1012A0001F910F910C946A0883E090E0B7CFEF9202
:1012B000FF920F931F93CF93DF93009709F44BC0D6
:1012C0006115710509F447C04115510509F443C082
:1012D000EA018B017C010E94D808019749F090E057
:1012E00080E0DF91CF911F910F91FF90EF900895D3
:1012F0008FED96E00E94FD0D0E946A08019779F734
:101300008DE793E00E94FD0DC7010E9464088AEEFC
:1013100096E00E94FD0D83EC99E00197F1F700C083
:10132000000080EF96E00E94FD0DC8010E94640855
:1013300089E497E00E94FD0DCE010E9464088DEEC5
:1013400096E00E94FD0DDF91CF911F910F91FF90CC
:10135000EF900C946A0883E090E0C3CFCF93DF93C3
:101360000097E1F0EC010E94D808019799F48BE412
:1013700097E00E94FD0D0E946A08019759F486E5E6
:1013800097E00E94FD0DCE010E9464088AE597E077
:101390000E94FD0DDF91CF910C946A0883E090E0EC
:1013A000DF91CF9108950F931F93CF93DF938C011B
:1013B000EB018FED96E00E94FD0D8AE00E94ED0D9D
:1013C00087EA91E60197F1F700C000008DE793E00E
:1013D0000E94FD0D8AE00E94ED0D87EA91E60197DB
:1013E000F1F700C00000C8010E9464088AE00E9472
:1013F000ED0D87EA91E60197F1F700C000008AEE53
:1014000096E00E94FD0D8AE00E94ED0D87EA91E6CC
:101410000197F1F700C00000CE010E9464088AE045
:101420000E94ED0D87EA91E60197F1F700C00000F8
:101430008DEE96E00E94FD0D8AE00E94ED0D87EA98
:1014400091E60197F1F700C00000DF91CF911F9165
:101450000F910895CF93DF93EC0186E597E00E940A
:10146000FD0DCE010E9464088AE597E0DF91CF91DF
:101470000C94FD0D0C94080EEF92FF920F931F93A6
:10148000CF93DF93162F072FF82EE92EEA018AEA71
:101490000E941A0E8DE30E941A0E8E2D0E941A0EC3
:1014A0008F2D0E941A0E802F0E941A0E812F0E94EB
:1014B0001A0E8D2F0E941A0E8C2F0E941A0E8CEC81
:1014C0000E941A0E83E30E941A0E83EC0E941A0EE9
:1014D0008CE3DF91CF911F910F91FF90EF900C94CF
:1014E0001A0E0F931F93CF93DF93EB01182F092F41
:1014F0008AEA0E941A0E8EE30E941A0E802F0E9422
:101500001A0E812F0E941A0E8D2F0E941A0E8C2FF8
:101510000E941A0E8CEC0E941A0E83E30E941A0E8F
:1015200083EC0E941A0E8CE30E941A0E0E94210E78
:101530008A3AE1F70E94210E8E33E1F70E94210ED4
:101540000E94210EC82FD0E00E94210E8C3CE1F7B2
:101550000E94210E8333E1F70E94210E833CE1F7C4
:101560000E94210E8C33E1F7CE01DF91CF911F91C4
:101570000F910895EF92FF920F931F93CF93DF93F4
:10158000162F072FF82EE92EEA018AEA0E941A0E7A
:1015900082E40E941A0E8E2D0E941A0E8F2D0E9438
:1015A0001A0E802F0E941A0E812F0E941A0ECE0151
:1015B0000E94280E8CEC0E941A0E83E30E941A0EE1
:1015C00083EC0E941A0E8CE3DF91CF911F910F9153
:1015D000FF90EF900C941A0EEF92FF920F931F93CF
:1015E000CF93DF93162F072FF82EE92EEA018AEA10
:1015F0000E941A0E83E40E941A0E8E2D0E941A0E6B
:101600008F2D0E941A0E802F0E941A0E812F0E9489
:101610001A0E8CEC0E941A0E83E30E941A0E83ECC1
:101620000E941A0E8CE30E941A0E0E94210E8A3A22
:10163000E1F70E94210E8334E1F7CE010E943A0EB9
:101640000E94210E8C3CE1F70E94210E8333E1F7CA
:101650000E94210E833CE1F70E94210E8C33E1F7BA
:10166000DF91CF911F910F91FF90EF9008953E9AD7
:101670003F983D983598309A319A329A339A379AF2
:10168000089597B1907E892B87B9369A349BFECF07
:10169000349A84B195B1089597B1907E892B87B91A
:1016A000369A089590937C0980937B0908951F9240
:1016B0000F920FB60F9211240BB60F922F933F93F8
:1016C0004F935F936F937F938F939F93AF93BF934A
:1016D000EF93FF93E0917B09F0917C090995FF91CD
:1016E000EF91BF91AF919F918F917F916F915F919A
:1016F0004F913F912F910F900BBE0F900FBE0F9007
:101700001F9018958730E0F4E82FF0E0E657F44F8B
:101710000C944D0F910B930B950B970B990B9B0B07
:101720009E0B6ABB089567BB089564BB089561BBB7
:10173000089562B90895609361000895609364000C
:101740000895413009F05AC0873008F056C0E82F9C
:10175000F0E0E355F44F0C944D0FB40BBE0BC80BE7
:10176000D20BDC0BE60BF20B8AB321E030E001C0B8
:10177000220F6A95EAF7822B8ABB089587B321E08E
:1017800030E001C0220F6A95EAF7822B87BB0895EB
:1017900084B321E030E001C0220F6A95EAF7822B82
:1017A00084BB089581B321E030E001C0220F6A9527
:1017B000EAF7822B81BB089582B121E030E001C0BD
:1017C000220F6A95EAF7822B82B908958091610011
:1017D00021E030E001C0220F6A95EAF7822B809366
:1017E000610008958091640021E030E001C0220F83
:1017F0006A95EAF7822B8093640008954111FDCF2A
:101800008730D8F7E82FF0E0E85FF34F0C944D0FE6
:101810000F0C190C230C2D0C370C410C4C0C2AB35B
:1018200081E090E001C0880F6A95EAF780958223F5
:10183000A3CF27B381E090E001C0880F6A95EAF753
:1018400080958223A3CF24B381E090E001C0880F6C
:101850006A95EAF780958223A3CF21B381E090E0D7
:1018600001C0880F6A95EAF780958223A3CF22B141
:1018700081E090E001C0880F6A95EAF780958223A5
:10188000A3CF2091610081E090E001C0880F6A95AC
:10189000EAF780958223A3CF2091640081E090E055
:1018A00001C0880F6A95EAF780958223A4CF87301C
:1018B00008F0ADC0E82FF0E0E05AF34F0C944D0F64
:1018C000670C7F0C970CAF0CC70CDF0CFA0C413087
:1018D00051F48BB321E030E001C0220F6A95EAF7A2
:1018E000822B8BBB0895411192C02BB381E090E015
:1018F00001C0880F6A95EAF780958223F2CF4130C4
:1019000051F488B321E030E001C0220F6A95EAF774
:10191000822B88BB089541117AC028B381E090E002
:1019200001C0880F6A95EAF780958223F2CF413093
:1019300051F485B321E030E001C0220F6A95EAF747
:10194000822B85BB0895411162C025B381E090E0F0
:1019500001C0880F6A95EAF780958223F2CF413063
:1019600051F482B321E030E001C0220F6A95EAF71A
:10197000822B82BB089541114AC022B381E090E0DE
:1019800001C0880F6A95EAF780958223F2CF413033
:1019900051F483B121E030E001C0220F6A95EAF7EB
:1019A000822B83B90895411132C023B181E090E0C8
:1019B00001C0880F6A95EAF780958223F2CF413003
:1019C00061F48091620021E030E001C0220F6A954D
:1019D000EAF7822B809362000895411118C020918C
:1019E000620081E090E001C0880F6A95EAF7809577
:1019F0008223F0CF413061F48091650021E030E036
:101A000001C0220F6A95EAF7822B80936500089542
:101A10004111FDCF2091650081E090E001C0880F69
:101A20006A95EAF780958223F0CF8730B0F4E82FEB
:101A3000F0E0E35EF24F0C944D0F240D2F0D310DAD
:101A4000330D350D370D390D89B390E002C09595F2
:101A500087956A95E2F7982F9170892F089586B33C
:101A6000F4CF83B3F2CF80B3F0CF81B1EECF80B1AA
:101A7000ECCF80916300E9CF873008F056C0E82FA3
:101A8000F0E0EB5BF24F0C944D0F4C0D560D600DDA
:101A90006A0D740D7E0D8A0D8BB321E030E001C01C
:101AA000220F6A95EAF782278BBB089588B321E05D
:101AB00030E001C0220F6A95EAF7822788BB0895BB
:101AC00085B321E030E001C0220F6A95EAF7822752
:101AD00085BB089582B321E030E001C0220F6A95F2
:101AE000EAF7822782BB089583B121E030E001C08C
:101AF000220F6A95EAF7822783B9089580916200E0
:101B000021E030E001C0220F6A95EAF78227809336
:101B1000620008958091650021E030E001C0220F4D
:101B20006A95EAF782278093650008958730E0F48C
:101B3000E82FF0E0E256F24F0C944D0FA50DA70DE3
:101B4000A90DAB0DAD0DAF0DB20D6BBB089568BB0C
:101B5000089565BB089562BB089563B908956093C5
:101B6000620008956093650008958730B0F4E82F0F
:101B7000F0E0E354F24F0C944D0FC40DD10DD30D92
:101B8000D50DD70DD90DDC0D2AB330E0062E02C0DD
:101B9000359527950A94E2F72170211110C00C9415
:101BA000570C27B3F2CF24B3F0CF21B3EECF22B13D
:101BB000ECCF20916100E9CF20916400E6CF089539
:101BC000E5E9F0E0808182608083808184608083A9
:101BD00087E689B9539A549A08955D9BFECF8CB9D4
:101BE0005E9BFECF08959093800980937F090895AE
:101BF0005F9BFECF8CB108950895FC0191919111E6
:101C000001C008955D9BFECF9CB95E9BFECFF6CFD1
:101C1000EAE9F0E080818B7F808386E080939D00FD
:101C200087E68093990080818061808380818860CD
:101C30008083089590919B0095FFFCCF80939C003A
:101C4000089580919B0087FFFCCF80919C000895B0
:101C5000FC019191911107C080919B0085FFFCCF01
:101C600010929C00089580919B0085FFFCCF90937B
:101C70009C00EFCF20919B0027FFFCCF20919C0080
:101C8000FC0120838191811101C0089580919B0006
:101C900087FFFCCF80919C008083F4CFEAE9F0E0DD
:101CA00080818F7E80838081877F80830895629A80
:101CB000619A08959C019FB79F779FBF6DB93FBB05
:101CC0002EBB629A619A8FB780688FBF6199FECFF1
:101CD00008959C019FB79F779FBF3FBB2EBB609A23
:101CE0008FB780688FBF8DB10895CF93DF939B012D
:101CF00021503109FC01E60FF71FDC01AD01481B43
:101D0000590B421753071CF0DF91CF9108954D9165
:101D10005291ED0121975883408321503109EECF34
:101D2000CF92DF92EF92FF920F931F93CF93DF93A7
:101D3000EB016A01009769F480E388831982CE0180
:101D4000DF91CF911F910F91FF90EF90DF90CF9097
:101D5000089597FF32C04A30510579F591958195E4
:101D6000910901E010E07E01F0E0E0E001C0F9013E
:101D7000B6010E94390F8A309105ECF0895A9F0113
:101D80002F5F3F4FD7018D937D01CB01009779F7EE
:101D9000012B41F02C0F3D1F8DE2D9018C939F0147
:101DA0002E5F3F4FFE01E20FF31F1082B901CE01FB
:101DB0000E94750EC4CF805DE2CF10E000E0D3CF6B
:101DC0009093F5028093F4020E94080E8EE597E04E
:101DD0000C94280ECF93DF932091F4023091F502FA
:101DE0002817390780F0EB0189E797E00E94280E59
:101DF000CE010E94280E8DE00E941A0E8AE0DF912B
:101E0000CF910C941A0EDF91CF9108950F931F93E9
:101E1000CF93DF932091F4023091F5022817390710
:101E2000D0F0EA018B0189E797E00E94280EC801F3
:101E30000E94280E85E296E00E94280ECE010E94A4
:101E4000280E8DE00E941A0E8AE0DF91CF911F913B
:101E50000F910C941A0EDF91CF911F910F9108955D
:101E60000E9427010E94DA0182E897E00E946D013A
:101E7000F9CF97FB072E16F4009407D077FD09D011
:101E80000E94560F07FC05D03EF4909581959F4F18
:101E90000895709561957F4F0895EE0FFF1F002400
:101EA000001C0BBE0790F691E02D0994AA1BBB1BEA
:101EB00051E107C0AA1FBB1FA617B70710F0A61B4A
:101EC000B70B881F991F5A95A9F780959095BC016B
:101ED000CD0108955058BB27AA270E94820F0C9469
:101EE000FC100E94EE1038F00E94F51020F039F43A
:101EF0009F3F19F426F40C94EB100EF4E095E7FBE9
:101F00000C94E510E92F0E940D1158F3BA176207DF
:101F100073078407950720F079F4A6F50C942F1128
:101F20000EF4E0950B2EBA2FA02D0B01B9019001F4
:101F30000C01CA01A0011124FF27591B99F0593F38
:101F400050F4503E68F11A16F040A22F232F342F80
:101F50004427585FF3CF469537952795A795F040CE
:101F60005395C9F77EF41F16BA0B620B730B840BE3
:101F7000BAF09150A1F0FF0FBB1F661F771F881F9B
:101F8000C2F70EC0BA0F621F731F841F48F48795F3
:101F900077956795B795F7959E3F08F0B0CF9395E5
:101FA000880F08F09927EE0F9795879508950E945E
:101FB000C11008F481E008950E94F00F0C94FC1009
:101FC0000E94F51058F00E94EE1040F029F45F3F97
:101FD00029F00C94E51051110C9430110C94EB1075
:101FE0000E940D1168F39923B1F3552391F3951BCA
:101FF000550BBB27AA2762177307840738F09F5F2A
:102000005F4F220F331F441FAA1FA9F335D00E2E96
:102010003AF0E0E832D091505040E695001CCAF703
:102020002BD0FE2F29D0660F771F881FBB1F2617C6
:1020300037074807AB07B0E809F0BB0B802DBF019D
:10204000FF2793585F4F3AF09E3F510578F00C946C
:10205000E5100C9430115F3FE4F3983ED4F386957D
:1020600077956795B795F7959F5FC9F7880F911D8D
:102070009695879597F90895E1E0660F771F881F79
:10208000BB1F621773078407BA0720F0621B730B2C
:10209000840BBA0BEE1F88F7E09508950E94551047
:1020A0006894B1110C94301108950E94151188F0B4
:1020B0009F5798F0B92F9927B751B0F0E1F0660F0C
:1020C000771F881F991F1AF0BA95C9F714C0B1304D
:1020D00091F00E942F11B1E008950C942F11672FF9
:1020E000782F8827B85F39F0B93FCCF3869577957C
:1020F0006795B395D9F73EF4909580957095619565
:102100007F4F8F4F9F4F0895E89409C097FB3EF48F
:1021100090958095709561957F4F8F4F9F4F992334
:10212000A9F0F92F96E9BB279395F69587957795B2
:102130006795B795F111F8CFFAF4BB0F11F460FF72
:102140001BC06F5F7F4F8F4F9F4F16C0882311F0CA
:1021500096E911C0772321F09EE8872F762F05C0DE
:10216000662371F096E8862F70E060E02AF09A9579
:10217000660F771F881FDAF7880F9695879597F96E
:102180000895990F0008550FAA0BE0E8FEEF161608
:102190001706E807F907C0F012161306E407F5075B
:1021A00098F0621B730B840B950B39F40A2661F0CF
:1021B000232B242B252B21F408950A2609F4A14072
:1021C000A6958FEF811D811D089597F99F6780E87F
:1021D00070E060E008959FEF80EC089500240A9479
:1021E0001616170618060906089500240A941216F2
:1021F0001306140605060895092E0394000C11F425
:10220000882352F0BB0F40F4BF2B11F460FF04C0D1
:102210006F5F7F4F8F4F9F4F089557FD9058440F2A
:10222000551F59F05F3F71F04795880F97FB991F35
:1022300061F09F3F79F087950895121613061406F2
:10224000551FF2CF4695F1DF08C01616170618067F
:10225000991FF1CF86957105610508940895E8945A
:10226000BB2766277727CB0197F908950E94C110F5
:1022700008F48FEF08950E944E110C94FC100E94F8
:10228000EE1038F00E94F51020F0952311F00C9418
:10229000E5100C94EB1011240C9430110E940D11D8
:1022A00070F3959FC1F3950F50E0551F629FF001A9
:1022B000729FBB27F00DB11D639FAA27F00DB11DC2
:1022C000AA1F649F6627B00DA11D661F829F22274B
:1022D000B00DA11D621F739FB00DA11D621F839FD2
:1022E000A00D611D221F749F3327A00D611D231FA8
:1022F000849F600D211D822F762F6A2F11249F57F6
:1023000050409AF0F1F088234AF0EE0FFF1FBB1FF8
:10231000661F771F881F91505040A9F79E3F5105B7
:1023200080F00C94E5100C9430115F3FE4F3983E7C
:10233000D4F3869577956795B795F795E7959F5F61
:10234000C1F7FE2B880F911D9695879597F90895F3
:1023500019F416F40C94EB100C94EE110E94151164
:10236000B8F39923C9F3B6F39F57550B87FF0E9423
:10237000FC110024A0E640EA9001805856959795FC
:1023800028F4805C660F771F881F20F02617370718
:10239000480730F4621B730B840B202931294A2B28
:1023A000A69517940794202531254A2758F7660FDC
:1023B000771F881F20F026173707480730F4620B75
:1023C000730B840B200D311D411DA09581F7B901C0
:1023D000842F9158880F9695879508959F3F31F0E7
:1023E000915020F4879577956795B795880F911D43
:1023F0009695879597F9089591505040660F771FED
:10240000881FD2F708950F931F93CF93DF938230E5
:10241000910510F482E090E0E0919E09F0919F090F
:1024200030E020E0B0E0A0E0309799F421153105CC
:1024300009F44AC0281B390B24303105D8F58A81AC
:102440009B816115710589F1FB0193838283FE01F4
:1024500011C0408151810281138148175907E0F072
:102460004817590799F4109761F012960C93129738
:1024700013961C933296CF01DF91CF911F910F914C
:10248000089500939E0910939F09F4CF21153105FB
:1024900051F04217530738F0A901DB019A01BD0141
:1024A000DF01F801C1CFEF01F9CF90939F0980932D
:1024B0009E09CDCFFE01E20FF31F8193919322502D
:1024C000310939832883D7CF20919C0930919D0908
:1024D000232B41F42091F8023091F90230939D09A9
:1024E00020939C092091F6023091F70221153105C5
:1024F00041F42DB73EB74091FA025091FB02241BE4
:10250000350BE0919C09F0919D09E217F307A0F4C7
:102510002E1B3F0B2817390778F0AC014E5F5F4F39
:102520002417350748F04E0F5F1F50939D094093C5
:102530009C09819391939FCFF0E0E0E09CCFCF93F3
:10254000DF930097E9F0FC01329713821282A09189
:102550009E09B0919F09ED0130E020E01097A1F4B1
:1025600020813181820F931F20919C0930919D0918
:102570002817390709F061C0F0939D09E0939C0981
:10258000DF91CF910895EA01CE17DF07E8F54A8180
:102590005B819E0141155105B1F7E901FB83EA8397
:1025A00049915991C40FD51FEC17FD0761F4808143
:1025B00091810296840F951FE90199838883828116
:1025C00093819B838A83F0E0E0E012968D919C9149
:1025D00013970097B9F52D913C911197CD01029673
:1025E000820F931F20919C0930919D09281739076C
:1025F00039F6309751F510929F0910929E09B093C9
:102600009D09A0939C09BCCFD383C2834081518193
:10261000840F951FC817D90761F44E5F5F4F8881FB
:102620009981480F591F518340838A819B819383ED
:1026300082832115310509F0B0CFF0939F09E09313
:102640009E099ECFFD01DC01C0CF13821282D7CF3D
:10265000FB0151915523A9F0BF01DC014D914517B4
:102660004111E1F759F4CD010190002049F04D915D
:1026700040154111C9F3FB014111EFCF81E090E01A
:1026800001970895BB274A3031F4992322F4BDE223
:10269000909581959F4F0C944E13BB27FB015527B6
:1026A000AA27880F991FAA1FA41710F0A41B8395AF
:1026B0005051B9F7A05DAA3308F0A95DA193009726
:1026C00079F7B111B1931192CB010C94BD150F9311
:1026D0001F93CF93DF93CDB7DEB72E970FB6F89445
:1026E000DEBF0FBECDBF0D891E898F89988D26E074
:1026F0002C831A83098397FF02C080E090E801973A
:102700009E838D83AE01455E5F4F698D7A8DCE01CC
:1027100001960E94A4134D815E8157FD0AC02F814E
:102720003885421753070CF49A01020F131FF80162
:1027300010822E960FB6F894DEBF0FBECDBFDF918C
:10274000CF911F910F9108952F923F924F925F92D8
:102750006F927F928F929F92AF92BF92CF92DF92B1
:10276000EF92FF920F931F93CF93DF93CDB7DEB716
:102770002B970FB6F894DEBF0FBECDBF7C013B0197
:102780008A01FC0117821682838181FFDDC1CE019F
:1027900001965C01F7019381F30193FD859193FF0D
:1027A00081913F01882309F453C1853239F493FDA7
:1027B000859193FF81913F01853229F4B70190E023
:1027C0000E94CD15E7CF912C212C312CFFE1F31580
:1027D00038F08B3211F190F4803209F1833229F113
:1027E00037FC3CC020ED280F2A3050F536FE20C0C3
:1027F0008AE0989E200D1124922E06C08D3291F011
:10280000803371F7689430F8F30193FD859193FF5D
:1028100081913F018111DACF21C0689431F8689429
:1028200032F8F2CF689433F8EFCF689434F8ECCFF5
:10283000EAE02E9E200D1124222E689435F8E4CF74
:102840008E3229F436FC04C1689436F8DDCF8C361C
:1028500019F4689437F8D8CF8836B1F2982F9F7D55
:1028600095549330E0F08336A1F18337C1F183357D
:1028700009F063C02801F2E04F0E511CF801C0803E
:10288000D180692D70E036FC02C06FEF7FEFC6018A
:102890000E94A7154C01689437F882010AC00C5FAA
:1028A0001F4FFFE3F98388248394912C6501E894FA
:1028B00037F833FE2DC0522C8114910471F5552048
:1028C00009F468CFB70180E290E00E94CD155A94D8
:1028D000F6CFF801808189830E5F1F4FE4CF280176
:1028E000F2E04F0E511CF801C080D180692D70E0DC
:1028F00036FC02C06FEF7FEFC6010E94B2154C019B
:102900008201D5CFB70180E290E00E94CD152A94D4
:102910002814190409F0B0F7CECFF60137FC8591E1
:1029200037FE81916F01B70190E00E94CD155110E3
:102930005A94F1E08F1A9108BFCF843619F0893686
:1029400009F077C0F80137FE6BC060817181828128
:1029500093810C5F1F4FF32DFF763F2E97FF09C029
:1029600090958095709561957F4F8F4F9F4F68949C
:1029700037F82AE030E0A5010E94FD15C82ECA18DC
:102980008C2C432C36FE0CC0E89440F8C91440F45B
:1029900034FE05C032FC03C0F32DFE7E4F2E892C81
:1029A00044FEAAC0FE01EC0DF11D8081803309F0C8
:1029B0009CC0242D297E422E842D8870582E43FCE5
:1029C000AAC040FEA4C09C2C821418F42C0C922C9B
:1029D000981844FEA6C0B70180E390E00E94CD1590
:1029E00042FE09C088E790E041FE02C088E590E021
:1029F000B7010E94CD15C91408F49FC0CA94D12C08
:102A00009FEFC91AD90ACA0CDB1CF60182916F012B
:102A1000B70190E00E94CD15AC14BD04B1F74FCFC3
:102A200060817181072E000C880B990B0E5F1F4F80
:102A300092CFD32CE894D4F82AE030E08537E1F146
:102A4000232D297FD22E8F36A9F1F0F4883551F14C
:102A5000F701868197812B960FB6F894DEBF0FBEE3
:102A6000CDBFDF91CF911F910F91FF90EF90DF903D
:102A7000CF90BF90AF909F908F907F906F905F901E
:102A80004F903F902F900895803749F0883701F795
:102A9000D4FE02C06894D2F820E130E00DC0689402
:102AA000D4F8F6CF34FE03C0822F8660D82E20E102
:102AB00032E002C028E030E0F801D7FE0FC06081AC
:102AC0007181828193810C5F1F4FA5010E94FD15CA
:102AD000C82ECA183D2CE89437F852CF6081718116
:102AE00090E080E00E5F1F4FF0CF42FC02C0839465
:102AF00063CF8394839460CF842D867809F45CCF70
:102B0000F6CFB70180E290E00E94CD158394821445
:102B1000C0F3512C5ECF522C5818821408F459CFB0
:102B2000F8CF842D867809F466CF8BE241FE80E2EF
:102B300047FC8DE2B70190E05CCFB70180E390E005
:102B40000E94CD159A9457CF8FEF9FEF84CFFC0151
:102B50000590615070400110D8F7809590958E0FC8
:102B60009F1F0895FC016150704001900110D8F73B
:102B7000809590958E0F9F1F0895DC01FC01672FB3
:102B800071917723E1F7329704C07C916D93708344
:102B90006291AE17BF07C8F308950F931F93CF93A9
:102BA000DF93182F092FEB018B8181FD09C01FEFE7
:102BB0000FEF812F902FDF91CF911F910F910895EB
:102BC00082FF14C02E813F818C819D812817390797
:102BD0003CF4E881F981CF010196998388831083C1
:102BE0008E819F8101969F838E83E3CFE885F9854F
:102BF000812F0995892BA1F3DACFFA01AA27283072
:102C000051F1203181F1E8946F936E7F6E5F7F4FB9
:102C10008F4F9F4FAF4FB1E03ED0B4E03CD0670F35
:102C2000781F891F9A1FA11D680F791F8A1F911D88
:102C3000A11D6A0F711D811D911DA11D20D009F4D8
:102C400068943F912AE0269F11243019305D31931A
:102C5000DEF6CF010895462F4770405D4193B3E003
:102C60000FD0C9F7F6CF462F4F70405D4A3318F0AA
:102C7000495D31FD4052419302D0A9F7EACFB4E05B
:102C8000A6959795879577956795BA95C9F7009713
:102C90006105710508959B01AC010A2E06945795B4
:102CA000479537952795BA95C9F7620F731F841F0B
:102CB000951FA01D0895DC01CB01FC01E199FECF19
:102CC00006C0FFBBEEBBE09A31960DB20D924150AB
:102CD0005040B8F70895E199FECF9FBB8EBBE09AB4
:102CE00099278DB30895DC01CB0103C02D910E947B
:102CF0007E1641505040D0F70895262FE199FECF1F
:102D00009FBB8EBB2DBB0FB6F894E29AE19A0FBE23
:082D100001960895F894FFCF2D
:102D1800300000000000000000000000000000007B
:102D2800000000000000000000000000000000009B
:102D3800000000000000000000000000000000008B
:102D4800000000000000000000000000000000007B
:102D5800000000000000000000000000000000006B
:102D6800000000000000000000000000000000005B
:102D7800000000003000000000000000000000001B
:102D8800000000000000000000000000000000003B
:102D9800000000000000000000000000000000002B
:102DA800000000000000000000000000000000001B
:102DB800000000000000000000000000000000000B
:102DC80000000000000000000000000000000000FB
:102DD80000000000000000003000000000000000BB
:102DE80000000000000000000000000000000000DB
:102DF80000000000000000000000000000000000CB
:102E080000000000000000000000000000000000BA
:102E180000000000000000000000000000000000AA
:102E2800000000000000000000000000000000009A
:102E3800000000000000000000000000300000005A
:102E4800000000000000000000000000000000007A
:102E5800000000000000000000000000000000006A
:102E6800000000000000000000000000000000005A
:102E7800000000000000000000000000000000004A
:102E8800000000000000000000000000000000003A
:102E9800000000000000000000000000000000002A
:102EA80030000000000000000000000000000000EA
:102EB800000000000000000000000000000000000A
:102EC80000000000000000000000000000000000FA
:102ED80000000000000000000000000000000000EA
:102EE80000000000000000000000000000000000DA
:102EF80000000000000000000000000000000000CA
:102F08000000000003000000A009200005000000E8
:102F180000000000C841000048420000C84200000C
:102F28001643C1CAA13D295C0F3FB81E853F52B860
:102F3800FE3FCDCC3C40496E76616C6964204E758D
:102F48006D6265720056616C6964204E756D6265CC
:102F5800720054454D5020414C41524D3A20543D49
:102F6800252E316620430043555252454E54204188
:102F78004C41524D3A20493D252E31664120503D65
:102F8800252E31665700414C41524D210041542BAA
:102F9800434D47533D2200220D0A0053797374654F
:102FA8006D204F4B004552524F523A204E756C6C73
:102FB800206C69737420706F696E74657220696E15
:102FC8002053746F72654C697374546F4545505241
:102FD8004F4D00494E464F3A205374617274696EE2
:102FE8006720746F2073746F7265206C6973742026
:102FF800746F20454550524F4D004C6973742073CF
:10300800697A653A2000494E464F3A2057726974EA
:10301800696E67206C6973742073697A6520746FB0
:1030280020454550524F4D0057726974696E6720AC
:103038006E6F646520230057726974696E67207427
:103048006F20454550524F4D20616464726573731B
:103058003A200050686F6E65206E756D6265723A31
:10306800200057726974696E6720534D5343414C71
:103078004C20666C61673A2000494E464F3A20461C
:10308800696E69736865642073746F72696E67200E
:103098006C69737420746F20454550524F4D00453C
:1030A80052524F523A204E756C6C206C69737420E2
:1030B800706F696E74657220696E20526561644C28
:1030C80069737446726F6D454550524F4D00494EB5
:1030D800464F3A205374617274696E6720746F208A
:1030E80072656164206C6973742066726F6D204527
:1030F8004550524F4D0053746F726564206C69736C
:10310800742073697A653A20005741524E494E47F8
:103118003A20496E76616C696420454550524F4D9E
:103128002076616C75652064657465637465642CCC
:1031380020706F737369626C79206669727374208A
:1031480074696D65207573650052656164696E67A1
:10315800206E6F646520230052656164696E672084
:1031680066726F6D20454550524F4D206164647200
:103178006573733A2000526561642070686F6E65EC
:10318800206E756D6265723A200052656164205345
:103198004D5343414C4C20666C61673A20004669A8
:1031A8006E69736865642072656164696E67206C16
:1031B8006973742066726F6D20454550524F4D2CCF
:1031C800206E6F64657320666F756E643A200045E3
:1031D80052524F523A204E756C6C2070686F6E6573
:1031E800206E756D62657220696E204164644E754B
:1031F8006D546F454550524F4D00416464696E6788
:103208002070686F6E65206E756D62657220746FD0
:1032180020454550524F4D3A200043757272656EF5
:1032280074206C6973742073697A6520696E20450F
:103238004550524F4D3A2000494E464F3A20496E6C
:10324800697469616C697A696E6720454550524FA7
:103258004D207769746820656D707479206C697386
:1032680074004E6577206C6973742073697A653AC7
:103278002000494E464F3A2053657474696E6720A2
:1032880061732043616C6C696E675F6C697374204D
:10329800747970652028312900494E464F3A2050EC
:1032A800686F6E65206E756D626572206164646515
:1032B8006420746F20454550524F4D2073756363E9
:1032C80065737366756C6C79004F4B0D0A00455237
:1032D800524F520D0A0041540D0041542B435245A0
:1032E800473F0D002B435245473A20302C310041CF
:1032F800542B434D47463D310D00220D001A0D0059
:10330800506C656173652064656C65746520225B2B
:10331800646F745D2220666F726D20746865206C1E
:10332800696E6B2062656C6F77207468656E206FBC
:1033380070656E2069742E0D68747470733A2F2F3F
:103348006D6170732E676F5B646F745D6F676C651A
:103358002E636F6D2F3F713D002C0041542B434D60
:1033680047463D300D00415444003B0D0A0044459A
:10337800425547204C4F4747455220494E495449EA
:10338800414C495A45440D0A005B44454255475D46
:02339800200013
:00000001FF
