:100000000C9434000C9451000C9451000C94510049
:100010000C9451000C9451000C9451000C9451001C
:100020000C9451000C9451000C9451000C9451000C
:100030000C9451000C9451000C9451000C945100FC
:100040000C94AB090C9451000C9451000C94510089
:100050000C9451000C9451000C9451000C945100DC
:100060000C9451000C94510011241FBECFEFD8E026
:10007000DEBFCDBF14E0A0E0B1E0E6E8F7E202C0E9
:1000800005900D92AA33B107D9F726E0AAE3B4E0B0
:1000900001C01D92A835B207E1F70E94C50C0C946F
:1000A000C1130C940000FC018081803319F481811C
:1000B000813391F044E253E060E071E080E090E051
:1000C0000E940E0950E040E06AE070E088E090E0B5
:1000D0000E94900880E008951092370590913705AE
:1000E000DF01A90FB11D8C9181110CC09B3011F75C
:1000F00043E353E060E071E080E090E00E940E098D
:1001000081E008959F5F90933705E8CFCF92DF920B
:10011000EF92FF9280E8C82EDD24D394E12CF12CDD
:1001200040E453E0C701B6010E940E0980E8C80E02
:10013000D11CE11CF11C80E8C81685E0D806E1045A
:10014000F10471F7FF90EF90DF90CF9008950F9337
:100150001F93CF93DF93662309F460C0EC016AE03C
:1001600070E088E090E00E94C508892B81F168E08A
:1001700070E0CB010E94C5088C018FEF800F8230A8
:1001800090F4AE0160E870E080E090E00E940E091B
:10019000A8015527BE0185E395E00E943F0485E351
:1001A00095E00E944B0550E040E06AE070E088E096
:1001B00090E00E94900841E050E064E070E088E048
:1001C00090E0DF91CF911F910F910C94900862E124
:1001D00070E088E090E00E94C508892BF9F065E3A3
:1001E00075E0CE010E94D20485E395E00E944B05A4
:1001F00050E040E062E170E088E090E00E9490080A
:1002000041E050E064E070E088E090E00E949008F7
:10021000DF91CF911F910F910C948600DF91CF91C8
:100220001F910F9108950E94300C0E948E080E9429
:100230008B0985E395E00E943704109237051092F0
:1002400038051092390510927905E1ECF5E011922C
:1002500011921192119211AA12AA13AA14AA85E05E
:10026000E93EF807A1F71092E90510921E061092D8
:10027000EA051092EB051092EC051092ED05109234
:100280001F0610922006109221061092220610924C
:100290002706109228061092290610922A0610921C
:1002A0002B060E9461030E94860085E395E00C9472
:1002B0007E050F931F93CF93DF93EC018C010857BA
:1002C0001F4F20E030E048E452E4F8016081718182
:1002D000828193810E94D50C0E94B80DAB0160E031
:1002E00070E088E090E00E949008F80160817181E0
:1002F000828193810E94B80DAB016EE070E088E0CE
:1003000090E00E949008C354DF4F20E030E048ECBA
:1003100052E4688179818A819B810E94A50E0E94A6
:10032000B80DAB0162E070E088E090E00E949008B8
:10033000688179818A819B810E94B80DAB0160E15F
:1003400070E088E090E00E94900864E070E088E04F
:1003500090E00E94C508892BA1F04AE853E060E8CC
:1003600070E080E090E00E940E0950E040E064E020
:1003700070E088E090E0DF91CF911F910F910C9495
:100380009008DF91CF911F910F910895CF92DF9246
:10039000EF92FF920F931F93CF93DF93CDB7DEB70A
:1003A000C054D1090FB6F894DEBF0FBECDBF109276
:1003B000370549E355E060E870E080E090E00E9496
:1003C0004009E9E3F5E0819187AF882321F085E0DA
:1003D000E937F807C1F789E795E00E945300809359
:1003E0003805682F89E795E00E94A70080E00E9409
:1003F000CF056B017C0120E030E040E151E46091E9
:10040000BD057091BE058091BF059091C0050E9409
:10041000A50EA70196010E94D50C20E030E040E235
:1004200051E40E94460D6093BD057093BE05809314
:10043000BF059093C00581E00E947A036B017C01A7
:1004400020E030E040E151E46091F2057091F30565
:100450008091F4059091F5050E94A50EA7019601E3
:100460000E94D50C20E030E040E251E40E94460DAD
:100470006093F2057093F3058093F4059093F5056E
:100480000E941C0460932306709324068093250623
:10049000909326061091BD050091BE05F090BF0512
:1004A000E090C00520E030E04AEA52E4D801F701CC
:1004B0006B2F7A2F8F2F9E2F0E94A00E181674F08C
:1004C00020E030E040EA51ECD801F7016B2F7A2FA1
:1004D0008F2F9E2F0E94410D87FFABC0EF92FF929E
:1004E0000F931F9382E493E09F938F931F9280E476
:1004F0008F93CE0101969F938F930E94AC100FB6FD
:10050000F894DEBF0FBECDBF11E00091F205F09070
:10051000F305E090F405D090F50520E030E040EAE6
:1005200051E4602F7F2D8E2D9D2D0E94A00E181658
:100530000CF081C0809126068F93809125068F93C1
:10054000809124068F93809123068F93DF92EF9200
:10055000FF920F9387E593E09F938F931F9280E420
:100560008F93CE0101969F938F930E94AC100FB68C
:10057000F894DEBF0FBECDBF81E080932B0646E727
:1005800053E060E071E080E090E00E940E0980910D
:10059000270690912806A0912906B0912A06009777
:1005A000A105B10589F088579C4EAF4FBF4F4091D0
:1005B0002C0650912D0660912E0670912F0648173B
:1005C00059076A077B07C8F0E0913505F0913605B9
:1005D0000081118101151105D9F580912C069091AA
:1005E0002D06A0912E06B0912F068093270690939A
:1005F0002806A0932906B0932A0685E395E00E9479
:10060000590140E05FE060E871E085E395E00E9419
:100610008104C05CDF4F0FB6F894DEBF0FBECDBFC4
:10062000DF91CF911F910F91FF90EF90DF90CF90CE
:10063000089510E06ACF11119FCF10922B064BE85E
:1006400053E060E071E080E090E00E940E09D5CFB9
:10065000F801E080F1808DE793E00E944D0CF701F6
:100660008081811113C087E893E00E944D0CCE0178
:1006700001967C01F70181917F0181110DC08AE112
:100680000E946A0CF80102811381A4CFFFEFEF1AD8
:10069000FF0A0E946A0CE3CF0E946A0CEBCF0F9313
:1006A0001F93CF938C010E945300C82F882321F001
:1006B000682FC8010E94A7008C2FCF911F910F9126
:1006C000089580E090E0A0EFB1E48093410690931C
:1006D0004206A0934306B093440680E090E0A0E079
:1006E000B4E480933D0690933E06A0933F06B093FA
:1006F000400608958F929F92AF92BF92CF92DF9261
:10070000EF92FF921F93CF93DF93182FC8ECD5E0A1
:10071000812F0E94950980934906BC017727072EF7
:10072000000C880B990B0E94F00D6B017C018090EE
:100730003D0690903E06A0903F06B0904006A50171
:1007400094010E94D40C20E030E040E85AE30E947B
:10075000A50EA50194010E94D50C9B01AC0120932C
:100760003D0630933E0640933F0650934006C70136
:10077000B6010E94D40C60934506709346068093A0
:100780004706909348069B01AC010E94A50E60931A
:100790004E0670934F068093500690935106209119
:1007A0004A0630914B0640914C0650914D060E94EE
:1007B000D50C60934A0670934B0680934C06909339
:1007C0004D06219709F0A4CF20E030E049EB54E436
:1007D0000E94460D0E94180F6B017C012DE33AE048
:1007E0004BE95BE3609141067091420680914306BC
:1007F000909144060E94A50EA70196010E94A50EA5
:100800006093390670933A0680933B0690933C06BA
:1008100010924A0610924B0610924C0610924D060A
:10082000DF91CF911F91FF90EF90DF90CF90BF901D
:10083000AF909F908F90089520E030E04CE553E416
:100840000E94A50E08956115710561F0FC01DB01A0
:100850000B9631912D91321305C0E817F907C9F7AE
:1008600081E0089580E00895109230060895009781
:1008700029F0FC0111821082138212820895FF92E6
:100880000F931F93CF93DF93009769F16115710563
:1008900051F1F42EEB018C018FE090E00E946D0F7E
:1008A000DC01009701F1FE01EC01CF010B962191D3
:1008B0002993E817F907D9F71B961C921B971C96EA
:1008C000FC921C971E961C921E921D97E801E881CF
:1008D000F981309779F4B983A883F80182819381F3
:1008E000019693838283DF91CF911F910F91FF90A7
:1008F0000895FC01858596850097D9F7B687A58769
:10090000ECCF8F929F92AF92BF92CF92DF92EF92F5
:10091000FF920F931F93CF93DF93009719F1FC0180
:10092000C081D1812097F1F0480159016A017B0112
:1009300000E010E08C85813011F5F0E81F9FB001D8
:100940001124072E000C880B990B6C0D7D1D8E1D3C
:100950009F1DAE010E940E091F5F0D84DE85C02D14
:10096000209741F7DF91CF911F910F91FF90EF906A
:10097000DF90CF90BF90AF909F908F90089582307E
:1009800061F780E8089FB0011124072E000C880B46
:10099000990B680D791D8A1D9B1DAE010E940E09E1
:1009A0000F5FDBCFCF92DF92EF92FF920F931F93F7
:1009B000CF93DF9361157105F9F00097E9F0FB0122
:1009C000C081D1812097C1F08B017C01BC01CE0197
:1009D0000E942304D12CC12C8823E1F08D859E85B3
:1009E000F80191838083CE010E940910F801828171
:1009F0009381019793838283DF91CF911F910F9110
:100A0000FF90EF90DF90CF9008956E012115310592
:100A100099F3E901B701CE010E9423042D853E859B
:100A2000882399F3F60136872587DDCFEF92FF9271
:100A30000F931F93CF93DF934115510509F1611572
:100A40007105F1F00097E1F07B018C01FA01C081A2
:100A5000D181209729F480E3F8018083118210C0AE
:100A6000B701CE010E942304882389F0F801CE014A
:100A70000B9629912193C817D907D9F7F801138646
:100A8000DF91CF911F910F91FF90EF9008950D840A
:100A9000DE85C02DDECFCF93DF93009791F0EC0180
:100AA000109230066A8190E080E00E947C13809171
:100AB00030068F5F809330060990D881C02D209733
:100AC00019F4DF91CF9108956091300670E04BE00A
:100AD00050E0CE010E94721380913006855F8093B2
:100AE00030066C8590E00E947C13809130068F5F09
:100AF000809330060D84DE85C02DE1CFEF92FF920A
:100B00000F931F93CF93DF93CDB7DEB72C970FB61C
:100B1000F894DEBF0FBECDBF009779F07C01109234
:100B2000300690E080E00E946A13182F81E08093E5
:100B300030061F3F11F011110DC02C960FB6F8941E
:100B4000DEBF0FBECDBFDF91CF911F910F91FF9000
:100B5000EF9008956091300670E04BE050E0CE01D8
:100B600001960E945A13009130068BE0800F80930B
:100B700030061C8690E00E946A13045F00933006E2
:100B8000482FBE016F5F7F4FC7010E943F04115085
:100B9000D2CF0895089508950895089508954F9225
:100BA0005F926F927F928F929F92AF92BF92CF92FD
:100BB000DF92EF92FF92CF93DF93CDB7DEB7289706
:100BC0000FB6F894DEBF0FBECDBF0E949509BC01E1
:100BD000990F880B990B0E94F00D29E031E34BE946
:100BE0005BE30E94A50E6B017C012DEC3CEC4CE319
:100BF00050E40E94A00E18160CF4B6C029E23CE5A1
:100C00004FE05FE3C701B6010E94A00E18160CF07A
:100C100084C028EB3EE145E85FE3C701B6010E94CE
:100C2000A00E18160CF086C022E538EB4EEF5FE3FD
:100C3000C701B6010E94A00E18160CF088C083E010
:100C400090E0FDEC8F2EFCEC9F2EFCE3AF2EF0E449
:100C5000BF2E24E030E0880F991F880F991FFC01F8
:100C6000E450FD4F4080518062807380805F9C4FD4
:100C7000FC01408151816281738149835A836B8376
:100C80007C83220F331F220F331FF901E450FD4FE5
:100C9000A301920160817181828193810E94D40CB1
:100CA0006D837E838F83988729813A814B815C8114
:100CB000C701B6010E94D40C9B01AC016D817E81FD
:100CC0008F8198850E94A50E6B017C0129813A8154
:100CD0004B815C81C501B4010E94D40C9B01AC0125
:100CE000C701B6010E94460DA30192010E94D50CD6
:100CF00028960FB6F894DEBF0FBECDBFDF91CF911F
:100D0000FF90EF90DF90CF90BF90AF909F908F902B
:100D10007F906F905F904F90089590E080E0E9E2BF
:100D20008E2EECE59E2EEFE0AE2EEFE3BE2E21E000
:100D300030E091CF81E090E078EB872E7EE1972E36
:100D400075E8A72E7FE3B72E22E030E084CF82E063
:100D500090E062E5862E68EB962E6EEFA62E6FE38E
:100D6000B62E23E030E077CF60E070E0CB01C0CF5B
:100D7000009711F00C944D0C089508950F931F9354
:100D8000CF93DF931092320694E68091320685303D
:100D900070F010923206D4E6809132068530A8F0C9
:100DA00090E080E0DF91CF911F910F910895899F8E
:100DB000F0011124E050FF4FDF01292F1D922A95E9
:100DC000E9F78F5F80933206E0CF10923106C09131
:100DD00031060091320610E0C436C8F40E94480C77
:100DE000D09FF001D19FF00D1124E050FF4FEC0F88
:100DF000F11D8083809132068D9FC001112468E827
:100E000073E080509F4F0E949210892B89F0C0910F
:100E10003206CD9F8001112400501F4F65E973E019
:100E2000C8010E949210892B49F081E090E0BACF6E
:100E3000809131068F5F80933106C9CF6AE973E0F4
:100E4000C8010E949210892B21F4CF5FC093320613
:100E5000A3CF82E090E0A6CF82EA93E00E944D0CFF
:100E60000C94BE060E942C07019719F080E090E0D8
:100E7000089586EA93E00E944D0C0E94BE060197F9
:100E8000A9F760EB73E084E691E00E94921031E0F4
:100E900020E0892B09F430E0832F922F08950F93DF
:100EA0001F93CF93DF93009709F452C0611571052A
:100EB00009F44EC0EB018C010E942C07019739F018
:100EC00090E080E0DF91CF911F910F9108958BEB1F
:100ED00093E00E944D0C2FE38DE093E02150804081
:100EE0009040E1F700C000000E94BE06019741F764
:100EF0008DE793E00E944D0CC8010E94B80686EC75
:100F000093E00E944D0C2FE38DE093E02150804050
:100F10009040E1F700C00000CE010E94B80687EAC9
:100F200091E60197F1F700C0000089EC93E00E9480
:100F30004D0C9FE32DE083E0915020408040E1F78D
:100F400000C00000DF91CF911F910F910C94BE065D
:100F500083E090E0B7CFEF92FF920F931F93CF9370
:100F6000DF93009709F44BC06115710509F447C080
:100F70004115510509F443C0EA018B017C010E942F
:100F80002C07019749F090E080E0DF91CF911F910D
:100F90000F91FF90EF9008958BEB93E00E944D0C22
:100FA0000E94BE06019779F78DE793E00E944D0CF1
:100FB000C7010E94B80686EC93E00E944D0C83ECBA
:100FC00099E00197F1F700C000008CEC93E00E94DB
:100FD0004D0CC8010E94B80685E294E00E944D0CB9
:100FE000CE010E94B80689EC93E00E944D0CDF917F
:100FF000CF911F910F91FF90EF900C94BE0683E06C
:1010000090E0C3CFCF93DF930097E1F0EC010E9413
:101010002C07019799F487E294E00E944D0C0E94FE
:10102000BE06019759F482E394E00E944D0CCE0174
:101030000E94B80686E394E00E944D0CDF91CF91A8
:101040000C94BE0683E090E0DF91CF9108950F935A
:101050001F93CF93DF938C01EB018BEB93E00E9406
:101060004D0C8AE00E943D0C87EA91E60197F1F76A
:1010700000C000008DE793E00E944D0C8AE00E94C2
:101080003D0C87EA91E60197F1F700C00000C80126
:101090000E94B8068AE00E943D0C87EA91E601971B
:1010A000F1F700C0000086EC93E00E944D0C8AE04E
:1010B0000E943D0C87EA91E60197F1F700C000001D
:1010C000CE010E94B8068AE00E943D0C87EA91E6B4
:1010D0000197F1F700C0000089EC93E00E944D0CED
:1010E0008AE00E943D0C87EA91E60197F1F700C083
:1010F0000000DF91CF911F910F910895CF93DF935F
:10110000EC0182E394E00E944D0CCE010E94B806EF
:1011100086E394E0DF91CF910C944D0C0C94580C25
:10112000EF92FF920F931F93CF93DF93162F072F0A
:10113000F82EE92EEA018AEA0E946A0C8DE30E94E9
:101140006A0C8E2D0E946A0C8F2D0E946A0C802FD3
:101150000E946A0C812F0E946A0C8D2F0E946A0CDB
:101160008C2F0E946A0C8CEC0E946A0C83E30E9414
:101170006A0C83EC0E946A0C8CE3DF91CF911F9183
:101180000F91FF90EF900C946A0C0F931F93CF93E5
:10119000DF93EB01182F092F8AEA0E946A0C8EE375
:1011A0000E946A0C802F0E946A0C812F0E946A0C98
:1011B0008D2F0E946A0C8C2F0E946A0C8CEC0E946E
:1011C0006A0C83E30E946A0C83EC0E946A0C8CE335
:1011D0000E946A0C0E94710C8A3AE1F70E94710C1D
:1011E0008E33E1F70E94710C0E94710CC82FD0E081
:1011F0000E94710C8C3CE1F70E94710C8333E1F783
:101200000E94710C833CE1F70E94710C8C33E1F772
:10121000CE01DF91CF911F910F910895EF92FF9230
:101220000F931F93CF93DF93162F072FF82EE92EDE
:10123000EA018AEA0E946A0C82E40E946A0C8E2DFE
:101240000E946A0C8F2D0E946A0C802F0E946A0CEB
:10125000812F0E946A0CCE010E94780C8CEC0E94B7
:101260006A0C83E30E946A0C83EC0E946A0C8CE394
:10127000DF91CF911F910F91FF90EF900C946A0C2A
:10128000EF92FF920F931F93CF93DF93162F072FA9
:10129000F82EE92EEA018AEA0E946A0C83E40E9491
:1012A0006A0C8E2D0E946A0C8F2D0E946A0C802F72
:1012B0000E946A0C812F0E946A0C8CEC0E946A0CBE
:1012C00083E30E946A0C83EC0E946A0C8CE30E9408
:1012D0006A0C0E94710C8A3AE1F70E94710C833407
:1012E000E1F7CE010E948A0C0E94710C8C3CE1F760
:1012F0000E94710C8333E1F70E94710C833CE1F78B
:101300000E94710C8C33E1F7DF91CF911F910F9107
:10131000FF90EF9008953E9A3F983D983598309A07
:10132000319A329A339A379A089597B1907E892BE1
:1013300087B9369A349BFECF349A84B195B108951B
:1013400097B1907E892B87B9369A08959093340689
:101350008093330608951F920F920FB60F921124B7
:101360002F933F934F935F936F937F938F939F93AD
:10137000AF93BF93EF93FF93E0913306F091340660
:101380000995FF91EF91BF91AF919F918F917F91BF
:101390006F915F914F913F912F910F900FBE0F90E2
:1013A0001F9018958730E0F4E82FF0E0E652F64FF2
:1013B0000C94CE0CE109E309E509E709E909EB0919
:1013C000EE096ABB089567BB089564BB089561BBCD
:1013D000089562B908956093610008956093640070
:1013E0000895413009F05AC0873008F056C0E82F00
:1013F000F0E0E350F64F0C94CE0C040A0E0A180AE3
:10140000220A2C0A360A420A8AB321E030E001C0DF
:10141000220F6A95EAF7822B8ABB089587B321E0F1
:1014200030E001C0220F6A95EAF7822B87BB08954E
:1014300084B321E030E001C0220F6A95EAF7822BE5
:1014400084BB089581B321E030E001C0220F6A958A
:10145000EAF7822B81BB089582B121E030E001C020
:10146000220F6A95EAF7822B82B908958091610074
:1014700021E030E001C0220F6A95EAF7822B8093C9
:10148000610008958091640021E030E001C0220FE6
:101490006A95EAF7822B8093640008954111FDCF8D
:1014A0008730D8F7E82FF0E0E85AF54F0C94CE0CCF
:1014B0005F0A690A730A7D0A870A910A9C0A2AB39D
:1014C00081E090E001C0880F6A95EAF78095822359
:1014D000A3CF27B381E090E001C0880F6A95EAF7B7
:1014E00080958223A3CF24B381E090E001C0880FD0
:1014F0006A95EAF780958223A3CF21B381E090E03B
:1015000001C0880F6A95EAF780958223A3CF22B1A4
:1015100081E090E001C0880F6A95EAF78095822308
:10152000A3CF2091610081E090E001C0880F6A950F
:10153000EAF780958223A3CF2091640081E090E0B8
:1015400001C0880F6A95EAF780958223A4CF87307F
:1015500008F0ADC0E82FF0E0E055F54F0C94CE0C4C
:10156000B70ACF0AE70AFF0A170B2F0B4A0B4130C5
:1015700051F48BB321E030E001C0220F6A95EAF705
:10158000822B8BBB0895411192C02BB381E090E078
:1015900001C0880F6A95EAF780958223F2CF413027
:1015A00051F488B321E030E001C0220F6A95EAF7D8
:1015B000822B88BB089541117AC028B381E090E066
:1015C00001C0880F6A95EAF780958223F2CF4130F7
:1015D00051F485B321E030E001C0220F6A95EAF7AB
:1015E000822B85BB0895411162C025B381E090E054
:1015F00001C0880F6A95EAF780958223F2CF4130C7
:1016000051F482B321E030E001C0220F6A95EAF77D
:10161000822B82BB089541114AC022B381E090E041
:1016200001C0880F6A95EAF780958223F2CF413096
:1016300051F483B121E030E001C0220F6A95EAF74E
:10164000822B83B90895411132C023B181E090E02B
:1016500001C0880F6A95EAF780958223F2CF413066
:1016600061F48091620021E030E001C0220F6A95B0
:10167000EAF7822B809362000895411118C02091EF
:10168000620081E090E001C0880F6A95EAF78095DA
:101690008223F0CF413061F48091650021E030E099
:1016A00001C0220F6A95EAF7822B809365000895A6
:1016B0004111FDCF2091650081E090E001C0880FCD
:1016C0006A95EAF780958223F0CF8730B0F4E82F4F
:1016D000F0E0E359F44F0C94CE0C740B7F0B810BAC
:1016E000830B850B870B890B89B390E002C095951E
:1016F00087956A95E2F7982F9170892F089586B3A0
:10170000F4CF83B3F2CF80B3F0CF81B1EECF80B10D
:10171000ECCF80916300E9CF873008F056C0E82F06
:10172000F0E0EB56F44F0C94CE0C9C0BA60BB00BD8
:10173000BA0BC40BCE0BDA0B8BB321E030E001C047
:10174000220F6A95EAF782278BBB089588B321E0C0
:1017500030E001C0220F6A95EAF7822788BB08951E
:1017600085B321E030E001C0220F6A95EAF78227B5
:1017700085BB089582B321E030E001C0220F6A9555
:10178000EAF7822782BB089583B121E030E001C0EF
:10179000220F6A95EAF7822783B908958091620043
:1017A00021E030E001C0220F6A95EAF7822780939A
:1017B000620008958091650021E030E001C0220FB1
:1017C0006A95EAF782278093650008958730E0F4F0
:1017D000E82FF0E0E251F44F0C94CE0CF50BF70B30
:1017E000F90BFB0BFD0BFF0B020C6BBB089568BBE9
:1017F000089565BB089562BB089563B90895609329
:10180000620008956093650008958730B0F4E82F72
:10181000F0E0E35FF34F0C94CE0C140C210C230C7E
:10182000250C270C290C2C0C2AB330E0062E02C004
:10183000359527950A94E2F72170211110C00C9478
:10184000A70A27B3F2CF24B3F0CF21B3EECF22B152
:10185000ECCF20916100E9CF20916400E6CF08959C
:10186000E5E9F0E08081826080838081846080830C
:1018700087E689B9539A549A08955D9BFECF8CB937
:101880005E9BFECF089590933806809337060895A7
:101890005F9BFECF8CB108950895FC019191911149
:1018A00001C008955D9BFECF9CB95E9BFECFF6CF35
:1018B000EAE9F0E080818B7F808386E080939D0061
:1018C00088E0809399008081806180838081886036
:1018D0008083089590919B0095FFFCCF80939C009E
:1018E000089580919B0087FFFCCF80919C00089514
:1018F000FC019191911107C080919B0085FFFCCF65
:1019000010929C00089580919B0085FFFCCF9093DE
:101910009C00EFCF20919B0027FFFCCF20919C00E3
:10192000FC0120838191811101C0089580919B0069
:1019300087FFFCCF80919C008083F4CFEAE9F0E040
:1019400080818F7E80838081877F80830895629AE3
:10195000619A08959C019FB79F779FBF6DB93FBB68
:101960002EBB629A619A8FB780688FBF6199FECF54
:1019700008959C019FB79F779FBF3FBB2EBB609A86
:101980008FB780688FBF8DB108950E9413010E94A8
:10199000C6018AE394E00E945901F9CFEE0FFF1FC0
:1019A0000590F491E02D09945058BB27AA270E9476
:1019B000EC0C0C94660E0E94580E38F00E945F0EDC
:1019C00020F039F49F3F19F426F40C94550E0EF4D0
:1019D000E095E7FB0C944F0EE92F0E94770E58F329
:1019E000BA17620773078407950720F079F4A6F504
:1019F0000C94990E0EF4E0950B2EBA2FA02D0B012E
:101A0000B90190010C01CA01A0011124FF27591B43
:101A100099F0593F50F4503E68F11A16F040A22F49
:101A2000232F342F4427585FF3CF469537952795BA
:101A3000A795F0405395C9F77EF41F16BA0B620BB9
:101A4000730B840BBAF09150A1F0FF0FBB1F661F00
:101A5000771F881FC2F70EC0BA0F621F731F841F43
:101A600048F4879577956795B795F7959E3F08F069
:101A7000B0CF9395880F08F09927EE0F979587952B
:101A800008950E942B0E08F481E008950E945A0DDB
:101A90000C94660E0E945F0E58F00E94580E40F0A3
:101AA00029F45F3F29F00C944F0E51110C949A0EBB
:101AB0000C94550E0E94770E68F39923B1F35523C9
:101AC00091F3951B550BBB27AA2762177307840751
:101AD00038F09F5F5F4F220F331F441FAA1FA9F3E7
:101AE00035D00E2E3AF0E0E832D091505040E695D5
:101AF000001CCAF72BD0FE2F29D0660F771F881F36
:101B0000BB1F261737074807AB07B0E809F0BB0B28
:101B1000802DBF01FF2793585F4F3AF09E3F51053C
:101B200078F00C944F0E0C949A0E5F3FE4F3983EBD
:101B3000D4F3869577956795B795F7959F5FC9F725
:101B4000880F911D9695879597F90895E1E0660FA6
:101B5000771F881FBB1F621773078407BA0720F01F
:101B6000621B730B840BBA0BEE1F88F7E095089588
:101B70000E94BF0D6894B1110C949A0E08950E94B2
:101B80007F0E88F09F5798F0B92F9927B751B0F082
:101B9000E1F0660F771F881F991F1AF0BA95C9F7F1
:101BA00014C0B13091F00E94990EB1E008950C94E8
:101BB000990E672F782F8827B85F39F0B93FCCF39B
:101BC000869577956795B395D9F73EF4909580956E
:101BD000709561957F4F8F4F9F4F0895E89409C08E
:101BE00097FB3EF490958095709561957F4F8F4F50
:101BF0009F4F9923A9F0F92F96E9BB279395F69566
:101C0000879577956795B795F111F8CFFAF4BB0FE3
:101C100011F460FF1BC06F5F7F4F8F4F9F4F16C047
:101C2000882311F096E911C0772321F09EE8872FD1
:101C3000762F05C0662371F096E8862F70E060E08D
:101C40002AF09A95660F771F881FDAF7880F969506
:101C5000879597F90895990F0008550FAA0BE0E8AA
:101C6000FEEF16161706E807F907C0F0121613065E
:101C7000E407F50798F0621B730B840B950B39F49E
:101C80000A2661F0232B242B252B21F408950A2604
:101C900009F4A140A6958FEF811D811D089597F944
:101CA0009F6780E870E060E008959FEF80EC089502
:101CB00000240A941616170618060906089500242B
:101CC0000A9412161306140605060895092E0394A5
:101CD000000C11F4882352F0BB0F40F4BF2B11F419
:101CE00060FF04C06F5F7F4F8F4F9F4F089557FD78
:101CF0009058440F551F59F05F3F71F04795880F7A
:101D000097FB991F61F09F3F79F087950895121610
:101D100013061406551FF2CF4695F1DF08C01616BC
:101D200017061806991FF1CF86957105610508946D
:101D30000895E894BB2766277727CB0197F9089584
:101D40000E942B0E08F48FEF08950E94B80E0C9499
:101D5000660E0E94580E38F00E945F0E20F0952308
:101D600011F00C944F0E0C94550E11240C949A0EF5
:101D70000E94770E70F3959FC1F3950F50E0551FA9
:101D8000629FF001729FBB27F00DB11D639FAA27D0
:101D9000F00DB11DAA1F649F6627B00DA11D661F1F
:101DA000829F2227B00DA11D621F739FB00DA11D40
:101DB000621F839FA00D611D221F749F3327A00DFA
:101DC000611D231F849F600D211D822F762F6A2F96
:101DD00011249F5750409AF0F1F088234AF0EE0FFB
:101DE000FF1FBB1F661F771F881F91505040A9F728
:101DF0009E3F510580F00C944F0E0C949A0E5F3F5D
:101E0000E4F3983ED4F3869577956795B795F79563
:101E1000E7959F5FC1F7FE2B880F911D96958795DB
:101E200097F9089519F416F40C94550E0C94580F64
:101E30000E947F0EB8F39923C9F3B6F39F57550B51
:101E400087FF0E94660F0024A0E640EA90018058B8
:101E50005695979528F4805C660F771F881F20F0B1
:101E600026173707480730F4621B730B840B2029B1
:101E700031294A2BA69517940794202531254A2706
:101E800058F7660F771F881F20F026173707480777
:101E900030F4620B730B840B200D311D411DA09596
:101EA00081F7B901842F9158880F969587950895E9
:101EB0009F3F31F0915020F4879577956795B795BE
:101EC000880F911D9695879597F9089591505040E8
:101ED000660F771F881FD2F708950F931F93CF9334
:101EE000DF938230910510F482E090E0E091560695
:101EF000F091570630E020E0B0E0A0E0309799F490
:101F00002115310509F44AC0281B390B243031054D
:101F1000D8F58A819B816115710589F1FB01938355
:101F20008283FE0111C040815181028113814817D3
:101F30005907E0F04817590799F4109761F0129685
:101F40000C93129713961C933296CF01DF91CF9189
:101F50001F910F9108950093560610935706F4CFE2
:101F60002115310551F04217530738F0A901DB0163
:101F70009A01BD01DF01F801C1CFEF01F9CF9093C4
:101F8000570680935606CDCFFE01E20FF31F8193D3
:101F900091932250310939832883D7CF2091540659
:101FA00030915506232B41F42091F6023091F7022F
:101FB00030935506209354062091F4023091F50297
:101FC0002115310541F42DB73EB74091F8025091EB
:101FD000F902241B350BE0915406F0915506E217E7
:101FE000F307A0F42E1B3F0B2817390778F0AC013C
:101FF0004E5F5F4F2417350748F04E0F5F1F509319
:10200000550640935406819391939FCFF0E0E0E012
:102010009CCFCF93DF930097E9F0FC0132971382B6
:102020001282A0915606B0915706ED0130E020E0F3
:102030001097A1F420813181820F931F20915406C3
:10204000309155062817390709F061C0F0935506FD
:10205000E0935406DF91CF910895EA01CE17DF0790
:10206000E8F54A815B819E0141155105B1F7E9010F
:10207000FB83EA8349915991C40FD51FEC17FD07E3
:1020800061F4808191810296840F951FE901998303
:102090008883828193819B838A83F0E0E0E01296BB
:1020A0008D919C9113970097B9F52D913C911197C3
:1020B000CD010296820F931F209154063091550650
:1020C0002817390739F6309751F5109257061092B4
:1020D0005606B0935506A0935406BCCFD383C28353
:1020E00040815181840F951FC817D90761F44E5F55
:1020F0005F4F88819981480F591F518340838A819E
:102100009B81938382832115310509F0B0CFF09331
:102110005706E09356069ECFFD01DC01C0CF138227
:102120001282D7CFFB0151915523A9F0BF01DC01E9
:102130004D9145174111E1F759F4CD01019000206F
:1021400049F04D9140154111C9F3FB014111EFCF09
:1021500081E090E001970895AEE0B0E0E2EBF0E1BD
:102160000C9498130D891E898F89988D26E02C83F5
:102170001A83098397FF02C080E090E801979E834D
:102180008D83AE01455E5F4F698D7A8DCE010196DC
:102190000E94DC104D815E8157FD0AC02F81388579
:1021A000421753070CF49A01020F131FF801108213
:1021B0002E96E4E00C94B413ABE0B0E0E2EEF0E174
:1021C0000C948A137C013B018A01FC011782168260
:1021D000838181FFC8C1CE0101965C01F701938123
:1021E000F30193FD859193FF81913F01882309F4C9
:1021F00053C1853239F493FD859193FF81913F015D
:10220000853229F4B70190E00E94CC12E7CF912CDF
:10221000212C312CFFE1F31538F08B3211F190F4C1
:10222000803209F1833229F137FC3CC020ED280FC0
:102230002A3050F536FE20C08AE0989E200D1124E9
:10224000922E06C08D3291F0803371F7689430F889
:10225000F30193FD859193FF81913F018111DACFC5
:1022600021C0689431F8689432F8F2CF689433F85A
:10227000EFCF689434F8ECCFEAE02E9E200D1124C5
:10228000222E689435F8E4CF8E3229F436FC04C14E
:10229000689436F8DDCF8C3619F4689437F8D8CFC7
:1022A0008836B1F2982F9F7D95549330E0F08336B5
:1022B000A1F18337C1F1833509F063C02801F2E051
:1022C0004F0E511CF801C080D180692D70E036FCA2
:1022D00002C06FEF7FEFC6010E94B6124C016894F6
:1022E00037F882010AC00C5F1F4FFFE3F98388248F
:1022F0008394912C6501E89437F833FE2DC0522C5D
:102300008114910471F5552009F468CFB70180E27A
:1023100090E00E94CC125A94F6CFF8018081898314
:102320000E5F1F4FE4CF2801F2E04F0E511CF80161
:10233000C080D180692D70E036FC02C06FEF7FEF66
:10234000C6010E94C1124C018201D5CFB70180E2C3
:1023500090E00E94CC122A942814190409F0B0F7D6
:10236000CECFF60137FC859137FE81916F01B70121
:1023700090E00E94CC1251105A94F1E08F1A91080B
:10238000BFCF843619F0893609F077C0F80137FEDF
:102390006BC060817181828193810C5F1F4FF32D2F
:1023A000FF763F2E97FF09C09095809570956195B7
:1023B0007F4F8F4F9F4F689437F82AE030E0A50198
:1023C0000E94FC12C82ECA188C2C432C36FE0CC05E
:1023D000E89440F8C91440F434FE05C032FC03C050
:1023E000F32DFE7E4F2E892C44FE95C0FE01EC0D90
:1023F000F11D8081803309F087C0242D297E422E73
:10240000842D8870582E43FC95C040FE8FC09C2CB4
:10241000821418F42C0C922C981844FE91C0B70129
:1024200080E390E00E94CC1242FE09C088E790E071
:1024300041FE02C088E590E0B7010E94CC12C914A9
:1024400008F48AC0CA94D12C9FEFC91AD90ACA0CC1
:10245000DB1CF60182916F01B70190E00E94CC1263
:10246000AC14BD04B1F74FCF60817181072E000C11
:10247000880B990B0E5F1F4F92CFD32CE894D4F8A2
:102480002AE030E0853739F1232D297FD22E8F368F
:1024900001F148F48835A9F0F701868197812B96E0
:1024A000E2E10C94A613803749F08837A9F7D4FEEF
:1024B00002C06894D2F820E130E00DC06894D4F8EE
:1024C000F6CF34FE03C0822F8660D82E20E132E0A2
:1024D00002C028E030E0F801D7FE0FC060817181B2
:1024E000828193810C5F1F4FA5010E94FC12C82EB0
:1024F000CA183D2CE89437F867CF6081718190E06D
:1025000080E00E5F1F4FF0CF42FC02C0839478CF73
:102510008394839475CF842D867809F471CFF6CF98
:10252000B70180E290E00E94CC1283948214C0F341
:10253000512C73CF522C5818821408F46ECFF8CF58
:10254000842D867809F47BCF8BE241FE80E247FC44
:102550008DE2B70190E071CFB70180E390E00E9477
:10256000CC129A946CCF8FEF9FEF99CFFC0105901E
:10257000615070400110D8F7809590958E0F9F1F85
:102580000895FC016150704001900110D8F78095CA
:1025900090958E0F9F1F08950F931F93CF93DF93F6
:1025A000182F092FEB018B8181FD09C01FEF0FEF61
:1025B000812F902FDF91CF911F910F91089582FF6E
:1025C00014C02E813F818C819D81281739073CF4EE
:1025D000E881F981CF0101969983888310838E81E8
:1025E0009F8101969F838E83E3CFE885F985812FB4
:1025F0000995892BA1F3DACFFA01AA27283051F1E6
:10260000203181F1E8946F936E7F6E5F7F4F8F4F23
:102610009F4FAF4FB1E03ED0B4E03CD0670F781F82
:10262000891F9A1FA11D680F791F8A1F911DA11D67
:102630006A0F711D811D911DA11D20D009F46894A0
:102640003F912AE0269F11243019305D3193DEF648
:10265000CF010895462F4770405D4193B3E00FD0FE
:10266000C9F7F6CF462F4F70405D4A3318F0495DE9
:1026700031FD4052419302D0A9F7EACFB4E0A695CC
:102680009795879577956795BA95C9F700976105EE
:10269000710508959B01AC010A2E06945795479544
:1026A00037952795BA95C9F7620F731F841F951F39
:1026B000A01D0895DC01CB01FC01F999FECF06C0F5
:1026C000F2BDE1BDF89A319600B40D9241505040F0
:1026D000B8F70895F999FECF92BD81BDF89A992770
:1026E00080B50895DC01CB0103C02D910E947D13BC
:1026F00041505040D0F70895262FF999FECF1FBAC8
:1027000092BD81BD20BD0FB6F894FA9AF99A0FBE1A
:10271000019608952F923F924F925F926F927F920F
:102720008F929F92AF92BF92CF92DF92EF92FF92E1
:102730000F931F93CF93DF93CDB7DEB7CA1BDB0B8D
:102740000FB6F894DEBF0FBECDBF09942A88398832
:1027500048885F846E847D848C849B84AA84B98439
:10276000C884DF80EE80FD800C811B81AA81B98145
:10277000CE0FD11D0FB6F894DEBF0FBECDBFED0159
:062780000895F894FFCF5C
:102786003000000000000000000000000000000013
:102796000000000000000000000000000000000033
:1027A6000000000000000000000000000000000023
:1027B6000000000000000000000000000000000013
:1027C6000000000000000000000000000000000003
:1027D60000000000000000000000000000000000F3
:1027E60000000000300000000000000000000000B3
:1027F60000000000000000000000000000000000D3
:1028060000000000000000000000000000000000C2
:1028160000000000000000000000000000000000B2
:1028260000000000000000000000000000000000A2
:102836000000000000000000000000000000000092
:102846000000000000000000300000000000000052
:102856000000000000000000000000000000000072
:102866000000000000000000000000000000000062
:102876000000000000000000000000000000000052
:102886000000000000000000000000000000000042
:102896000000000000000000000000000000000032
:1028A60000000000000000000000000030000000F2
:1028B6000000000000000000000000000000000012
:1028C6000000000000000000000000000000000002
:1028D60000000000000000000000000000000000F2
:1028E60000000000000000000000000000000000E2
:1028F60000000000000000000000000000000000D2
:1029060000000000000000000000000000000000C1
:102916003000000000000000000000000000000081
:1029260000000000000000000000000000000000A1
:102936000000000000000000000000000000000091
:102946000000000000000000000000000000000081
:102956000000000000000000000000000000000071
:102966000000000000000000000000000000000061
:1029760000000000000058062000050000000000CE
:102986000000C841000048420000C842000016434B
:10299600C1CAA13D295C0F3FB81E853F52B8FE3F14
:1029A600CDCC3C40496E76616C6964204E756D6293
:1029B60065720056616C6964204E756D62657200C1
:1029C600200054454D5020414C41524D3A20543D33
:1029D600252E316620430043555252454E54204120
:1029E6004C41524D3A20493D252E31664120503DFD
:1029F600252E31665700414C41524D210041542B42
:102A0600434D47533D2200220D0A005379737465E6
:102A16006D204F4B004F4B0D0A004552524F520D41
:102A26000A0041540D0041542B435245473F0D00C7
:102A36002B435245473A20302C310041542B434D0D
:102A460047463D310D00220D001A0D00506C6561A0
:102A560073652064656C65746520225B646F745DC4
:102A66002220666F726D20746865206C696E6B201B
:102A760062656C6F77207468656E206F70656E2076
:102A860069742E0D68747470733A2F2F6D617073AC
:102A96002E676F5B646F745D6F676C652E636F6D19
:102AA6002F3F713D002C0041542B434D47463D308E
:0A2AB6000D00415444003B0D0A00DE
:00000001FF
