:100000000C9446000C9465000C9465000C946500FB
:100010000C9465000C9465000C9465000C946500CC
:100020000C9465000C9465000C9465000C946500BC
:100030000C9465000C9465000C9465000C946500AC
:100040000C9465000C9465000C9465000C9465009C
:100050000C9465000C9465000C9465000C9465008C
:100060000C9465000C9465000C9465000C9465007C
:100070000C9465000C9465000C9465000C9465006C
:100080000C9465000C9465000C94650011241FBE4F
:10009000CFEFD0E1DEBFCDBF18E0A0E0B1E0E4EFEC
:1000A000F1E100E00BBF02C007900D92AC3BB1073D
:1000B000D9F729E0ACEBB8E001C01D92AD30B20732
:1000C000E1F70E9432070C94F8080C9400000E949B
:1000D0000A0688E091E00E94FF0584E090E00E941B
:1000E000E2060E949A0283E099E00E94B20283E055
:1000F00099E00E947A0481E391E00E94FF056BE59C
:1001000071E083E090E00C94EC0681E891E00E94BD
:10011000FF0584EA91E00E94FF058CEB91E00E94CC
:10012000FF0587ED91E00E94FF0586EF91E00E94B8
:10013000FF0583E192E00E94FF058DE192E00C94BF
:10014000FF05CF92DF92EF92FF920F931F93CF9311
:10015000DF937C01062F10E0A80170E060E00E94B0
:100160008D08C0E001501109CC2ED12CC016D1064B
:100170000CF50E942306D82F0E941C06D83011F0DF
:10018000DF3769F4CC2381F3C15088E00E941C065C
:1001900080E20E941C0688E00E941C06E5CFF70161
:1001A000EC0DFD1DDD3011F0DA3091F48EED94E0B0
:1001B0000E94FF05EC0CFD1CF70110828C2FDF91D3
:1001C000CF911F910F91FF90EF90DF90CF90089506
:1001D000CF5FD083C9CFFC018081803321F481813E
:1001E00090E0813319F080E00AC09F5FDF01A90F22
:1001F000B11D8C918111F9CF81E09B30A1F7089559
:1002000086E392E00E94FF056FE383EC98E00E9492
:10021000A10083EC98E00E94EB00811104C082E50C
:1002200092E00C94FF058FE892E00E94FF056BE2DC
:1002300087ED98E00E94A1004091D7088FEC840FD1
:10024000823018F085EB92E0ECCF405363EC78E01D
:1002500083E099E00E94BA0283E099E00E94C6031D
:100260008AED92E00E94FF0561E173E083E090E097
:100270000C94EC068DE393E00E94FF056FE383ECA2
:1002800098E00E94A10083EC98E00E94EB008111AD
:1002900004C08CE593E00C94FF0563E079E083EC07
:1002A00098E00E944D0383E099E00E94C6038BE72B
:1002B00093E00E94FF0566EA73E083E090E00C940F
:1002C000EC0686ED93E00E94FF056FE383EC98E077
:1002D0000E94A10083EC98E00E94EB00882321F0AB
:1002E00087EF93E00C94FF0580E194E0FBCFBF9291
:1002F000CF92DF92EF92FF920F931F93CF93DF93F2
:10030000CDB7DEB72A970FB6F894DEBF0FBECDBFCC
:100310006C0180E594E00E94FF05D6010D911C91CF
:10032000E12C81E00115110509F067C0E11004C05E
:100330008CE694E00E94FF058AE894E00E94FF05A5
:10034000F60100811181F12C81E00115110509F000
:1003500070C0F11004C08FE994E00E94FF0589EBA2
:1003600094E00E94FF05D60112968D919C9120E0A9
:100370008E010F5F1F4F3AE0C32ED12CF801E20F20
:10038000F11DB6010E944007805D8083CB012F5F85
:100390000097A1F7F801E20FF11D10822695B80130
:1003A0003197862F801B821708F45FC0C8010E9416
:1003B000FF0583EC94E00E94FF0580E38E0D0E9410
:1003C0001C068EEC94E00E94FF0580E38F0D0E94D6
:1003D0001C0689ED94E00E94FF052A960FB6F8945A
:1003E000DEBF0FBECDBFDF91CF911F910F91FF9068
:1003F000EF90DF90CF90BF900895F80194859130F1
:1004000099F4FF24F394F80E805D0E941C0689E69F
:1004100094E00E94FF05C8010E94FF058EED94E064
:100420000E94FF05E3948F2DD8011D960D911C911C
:1004300079CFD8011C969C91923099F4BB24B39447
:10044000B80E805D0E941C0689E694E00E94FF05BC
:10045000C8010E94FF058EED94E00E94FF05F39411
:100460008B2DF8010585168570CFDB018D91BD01BF
:100470009081AD0141505109DA019C93808390CF66
:1004800081EE94E00E94FF05809105099091060994
:10049000892B21F480E095E00C94FF0583E099E03E
:1004A0000C9477016FE383EC98E00E94A1008091A7
:1004B000C3088333C9F040F4813391F0823391F063
:1004C00088E295E00C94FF05843381F08533C1F711
:1004D0008BE195E00E94FF0581E08093BC080895C0
:1004E0000C9400010C943A010C9440020C946101AC
:1004F00008950895611520E472078105910549F476
:1005000081E09091BD08911180E08093BD0890E05A
:100510000895611570458105910549F48091BD08E4
:10052000882329F01092BD0881E090E0089590E0C2
:1005300080E008958CE495E00C94FF056115710549
:1005400061F0FC01DB010B9631912D91321305C056
:10055000E817F907C9F781E0089580E0089510923F
:10056000BE080895009729F0FC01118210821382C1
:1005700012820895FF920F931F93CF93DF930097FA
:1005800069F16115710551F1F42EEB018C018FE0D9
:1005900090E00E946807DC01009701F1FE01EC0188
:1005A000CF010B9621912993E817F907D9F71B96EC
:1005B0001C921B971C96FC921C971E961C921E92D6
:1005C0001D97E801E881F981309779F4B983A88310
:1005D000F80182819381019693838283DF91CF9189
:1005E0001F910F91FF900895FC01858596850097D6
:1005F000D9F7B687A587ECCF8F929F92AF92BF9223
:10060000CF92DF92EF92FF920F931F93CF93DF93DE
:10061000009719F1FC01C081D1812097F1F04801C8
:1006200059016A017B0100E010E08C85813011F5F1
:10063000F0E81F9FB0011124072E000C880B990BC6
:100640006C0D7D1D8E1D9F1DAE010E9478021F5FE7
:100650000D84DE85C02D209741F7DF91CF911F914A
:100660000F91FF90EF90DF90CF90BF90AF909F9051
:100670008F900895823061F780E8089FB0011124BF
:10068000072E000C880B990B680D791D8A1D9B1D88
:10069000AE010E9478020F5FDBCFCF92DF92EF9224
:1006A000FF920F931F93CF93DF9361157105F9F0BC
:1006B0000097E9F0FB01C081D1812097C1F08B0147
:1006C0007C01BC01CE010E949E02D12CC12C88234A
:1006D000E1F08D859E85F80191838083CE010E9493
:1006E0000408F80182819381019793838283DF91CB
:1006F000CF911F910F91FF90EF90DF90CF900895D1
:100700006E012115310599F3E901B701CE010E946F
:100710009E022D853E85882399F3F601368725872D
:10072000DDCFEF92FF920F931F93CF93DF9341158D
:10073000510509F161157105F1F00097E1F07B01B8
:100740008C01FA01C081D181209729F480E3F8015E
:100750008083118210C0B701CE010E949E028823BF
:1007600089F0F801CE010B9629912193C817D9077A
:10077000D9F7F8011386DF91CF911F910F91FF9068
:10078000EF9008950D84DE85C02DDECFFF920F938C
:100790001F93CF93DF93CDB7DEB72C970FB6F894A6
:1007A000DEBF0FBECDBF8C0164E775E081E090E055
:1007B00001151105B9F162EA75E083E090E00E944D
:1007C000EC064AE0BE016F5F7F4FF80182819381A2
:1007D0000E949408AE014F5F5F4F69EC75E084E0C2
:1007E00090E00E9408071092BE0865ED75E083E076
:1007F00090E00E94EC068091BE08F801628190E0D2
:100800000E94EB088091BE088F5F8093BE08F801BC
:1008100000811181F12C0115110591F468E476E055
:1008200083E090E00E94EC062C960FB6F894DEBFB1
:100830000FBECDBFDF91CF911F910F91FF90089513
:100840004AE0BE016F5F7F4F8F2D90E00E949408B9
:10085000AE014F5F5F4F67EF75E084E090E00E946C
:1008600008078091BE084AE0BE016F5F7F4F90E0AD
:100870000E949408AE014F5F5F4F66E076E084E02F
:1008800090E00E940807A80162E276E084E090E030
:100890000E9408076091BE0870E04BE050E0C8017C
:1008A0000E94E1088091BE08855F8093BE08F80130
:1008B00084854AE0BE016F5F7F4F90E00E949408FC
:1008C000AE014F5F5F4F61E376E084E090E00E940D
:1008D00008078091BE08F801648590E00E94EB084B
:1008E0008091BE088F5F8093BE08F801058516854C
:1008F000F39491CFBF92CF92DF92EF92FF920F933A
:100900001F93CF93DF93CDB7DEB768970FB6F894F8
:10091000DEBF0FBECDBF6C016EE676E081E090E0F9
:10092000C114D104F1F16DE976E083E090E00E941A
:10093000EC061092BE0890E080E00E94D908182FC3
:1009400081E08093BE08E12EF12C4AE0BE016F5F8A
:100950007F4FC7010E949408AE014F5F5F4F65EC67
:1009600076E084E090E00E9408071F3FB1F010E0BD
:1009700000E04AE0BE016F5F7F4FC8010E151F0502
:1009800011F50E949408AE014F5F5F4F6DE677E06E
:1009900083E090E00E94080706C068ED76E082E000
:1009A00090E00E94EC0668960FB6F894DEBF0FBE8A
:1009B000CDBFDF91CF911F910F91FF90EF90DF900E
:1009C000CF90BF9008950E949408AE014F5F5F4F93
:1009D00068E177E084E090E00E9408078091BE081B
:1009E0004AE0BE016F5F7F4F90E00E949408AE0125
:1009F0004F5F5F4F67E277E084E090E00E94080776
:100A00006091BE0870E04BE050E0CE010D960E9470
:100A1000C9088091BE08855F8093BE08188EAE011C
:100A2000435F5F4F65E477E084E090E00E94080751
:100A30008091BE0890E00E94D908B82E4AE0BE011D
:100A40006F5F7F4F90E00E949408AE014F5F5F4F51
:100A500069E577E084E090E00E9408078091BE0895
:100A60008F5F8093BE084B2DBE01635F7F4FC60131
:100A70000E94BA020F5F1F4F7CCF0895089508951A
:100A8000EF92FF921F93CF93DF93CDB7DEB72C97F2
:100A90000FB6F894DEBF0FBECDBF7C016EE977E0E4
:100AA00081E090E0E114F10409F474C0A70169EC5D
:100AB00077E083E090E00E9408071092BE0890E083
:100AC00080E00E94D908182F4AE0BE016F5F7F4F77
:100AD00090E00E949408AE014F5F5F4F69EE77E0AF
:100AE00084E090E00E9408071F3F39F467E078E057
:100AF00083E090E00E94EC0610E01F5F4AE0BE0138
:100B00006F5F7F4F812F90E00E949408AE014F5F8E
:100B10005F4F61E378E084E090E00E9408078091F5
:100B2000BE08612F90E00E94EB088CE0189F102D0A
:100B300011241B501093BE084AE0BE016F5F7F4F27
:100B4000812F90E00E949408AE014F5F5F4F66E0F6
:100B500076E084E090E00E9408076091BE0870E0B3
:100B60004BE050E0C7010E94E1088091BE08855F1C
:100B70008093BE0861E478E083E090E00E94EC0698
:100B80008091BE0861E090E00E94EB0868E678E0A2
:100B900083E090E00E94EC062C960FB6F894DEBF3E
:100BA0000FBECDBFDF91CF911F91FF90EF900895C1
:100BB000009711F00C9440050895009711F00C94E3
:100BC000D8050895E5E9F0E0808182608083808126
:100BD0008460808387E689B9539A549A08955D9B0F
:100BE000FECF8CB95E9BFECF08959093C208809390
:100BF000C10808955F9BFECF8CB108950895FC0154
:100C00009191911101C008955D9BFECF9CB95E9BAF
:100C1000FECFF6CFEAE9F0E080818B7F808386E02B
:100C200080939D0087E68093990080818061808316
:100C3000808188608083089590919B0095FFFCCF10
:100C400080939C00089580919B0087FFFCCF80914A
:100C50009C000895FC019191911107C080919B0027
:100C600085FFFCCF10929C00089580919B0085FF2A
:100C7000FCCF90939C00EFCF20919B0027FFFCCFEF
:100C800020919C00FC0120838191811101C0089575
:100C900080919B0087FFFCCF80919C008083F4CFE4
:100CA000EAE9F0E080818F7E80838081877F808386
:100CB0000895629A619A08959C019FB79F779FBF9C
:100CC0006DB93FBB2EBB629A619A8FB780688FBFA8
:100CD0006199FECF08959C019FB79F779FBF3FBB4F
:100CE0002EBB609A8FB780688FBF8DB10895CF9368
:100CF000DF939B0121503109FC01E60FF71FDC0156
:100D0000AD01481B590B421753071CF0DF91CF91DF
:100D100008954D915291ED012197588340832150C0
:100D20003109EECFCF92DF92EF92FF920F931F9394
:100D3000CF93DF93EB016A01009769F480E3888326
:100D40001982CE01DF91CF911F910F91FF90EF900B
:100D5000DF90CF90089597FF32C04A30510579F562
:100D600091958195910901E010E07E01F0E0E0E0CD
:100D700001C0F901B6010E9454078A309105ECF0D8
:100D8000895A9F012F5F3F4FD7018D937D01CB0182
:100D9000009779F7012B41F02C0F3D1F8DE2D9010F
:100DA0008C939F012E5F3F4FFE01E20FF31F1082D5
:100DB000B901CE010E947706C4CF805DE2CF10E07A
:100DC00000E0D3CF90930101809300010E940A06B6
:100DD00088E998E00C942A06CF93DF9320910001D4
:100DE000309101012817390780F0EB0183EB98E07F
:100DF0000E942A06CE010E942A068DE00E941C064F
:100E00008AE0DF91CF910C941C06DF91CF91089579
:100E10000F931F93CF93DF93209100013091010135
:100E200028173907D0F0EA018B0183EB98E00E9484
:100E30002A06C8010E942A0683E392E00E942A063D
:100E4000CE010E942A068DE00E941C068AE0DF91F6
:100E5000CF911F910F910C941C06DF91CF911F91A0
:100E60000F9108950E9467008091BC08882319F0B3
:100E700090E080E008950E9485000E945202F4CF25
:100E8000AA1BBB1B51E107C0AA1FBB1FA617B707B0
:100E900010F0A61BB70B881F991F5A95A9F78095CC
:100EA0009095BC01CD01089597FB072E16F4009490
:100EB00007D077FD09D00E94400707FC05D03EF41B
:100EC000909581959F4F0895709561957F4F0895F6
:100ED0000F931F93CF93DF938230910510F482E03C
:100EE00090E0E0910B09F0910C0930E020E0B0E0D7
:100EF000A0E0309799F42115310509F44AC0281B68
:100F0000390B24303105D8F58A819B816115710533
:100F100089F1FB0193838283FE0111C040815181DD
:100F20000281138148175907E0F04817590799F4CF
:100F3000109761F012960C93129713961C933296A9
:100F4000CF01DF91CF911F910F91089500930B096D
:100F500010930C09F4CF2115310551F042175307B6
:100F600038F0A901DB019A01BD01DF01F801C1CF11
:100F7000EF01F9CF90930C0980930B09CDCFFE01BF
:100F8000E20FF31F81939193225031093983288313
:100F9000D7CF2091090930910A09232B41F42091E0
:100FA00004013091050130930A0920930909209129
:100FB0000201309103012115310541F42DB73EB7EF
:100FC0004091060150910701241B350BE09109095E
:100FD000F0910A09E217F307A0F42E1B3F0B281724
:100FE000390778F0AC014E5F5F4F2417350748F0A2
:100FF0004E0F5F1F50930A09409309098193919303
:101000009FCFF0E0E0E09CCFCF93DF930097E9F033
:10101000FC01329713821282A0910B09B0910C0946
:10102000ED0130E020E01097A1F420813181820FA2
:10103000931F2091090930910A092817390709F0EF
:1010400061C0F0930A09E0930909DF91CF910895F7
:10105000EA01CE17DF07E8F54A815B819E01411561
:101060005105B1F7E901FB83EA8349915991C40F16
:10107000D51FEC17FD0761F4808191810296840FE2
:10108000951FE90199838883828193819B838A8359
:10109000F0E0E0E012968D919C9113970097B9F5DE
:1010A0002D913C911197CD010296820F931F2091B3
:1010B000090930910A092817390739F6309751F58F
:1010C00010920C0910920B09B0930A09A093090918
:1010D000BCCFD383C28340815181840F951FC81731
:1010E000D90761F44E5F5F4F88819981480F591F7E
:1010F000518340838A819B819383828321153105AB
:1011000009F0B0CFF0930C09E0930B099ECFFD01DD
:10111000DC01C0CF13821282D7CFDC0101C06D93F6
:1011200041505040E0F70895BB274A3031F49923ED
:1011300022F4BDE2909581959F4F0C94A008BB27A7
:10114000FB015527AA27880F991FAA1FA41710F083
:10115000A41B83955051B9F7A05DAA3308F0A95D8F
:10116000A193009779F7B111B1931192CB010C942F
:10117000B908DC01FC01672F71917723E1F7329701
:1011800004C07C916D9370836291AE17BF07C8F362
:101190000895DC01CB01FC01E199FECF06C0FFBB45
:1011A000EEBBE09A31960DB20D9241505040B8F727
:1011B0000895E199FECF9FBB8EBBE09A99278DB32E
:1011C0000895DC01CB0103C02D910E94EC08415031
:1011D0005040D0F70895262FE199FECF9FBB8EBBDC
:1011E0002DBB0FB6F894E29AE19A0FBE01960895CE
:0411F000F894FFCFA1
:1011F400030000000D0920000D0A0D0A2A2A2A20E6
:1012040050686F6E65204C697374205465737469FB
:101214006E67205574696C697479202A2A2A0D0A2C
:101224000053797374656D20696E697469616C69C2
:101234007A65642E20454550524F4D206461746197
:10124400206C6F616465642E0D0A00494E464F3A66
:101254002050686F6E65206C6973742074657374B4
:10126400207574696C69747920737461727465642F
:10127400000D0A2D2D2D2D2D2D2D2D2D2D2D2D2D0A
:101284002D2D2D2D2D2D2D2D2D2D2D2D2D2D2D2D8A
:101294002D0D0A00312E2041646420612070686F96
:1012A4006E65206E756D6265720D0A00322E2052D5
:1012B400656D6F766520612070686F6E65206E7550
:1012C4006D6265720D0A00332E20446973706C617F
:1012D4007920616C6C2070686F6E65206E756D622C
:1012E4006572730D0A00342E2056616C6964617452
:1012F4006520612070686F6E65206E756D62657221
:101304000D0A00352E20457869740D0A0053656C6A
:1013140065637420616E206F7074696F6E2028316C
:101324002D35293A2000456E7465722070686F6E01
:1013340065206E756D62657220746F206164643A15
:101344002000496E76616C69642070686F6E652058
:101354006E756D6265722E204D75737420737461A1
:101364007274207769746820303120616E64206261
:1013740065203131206469676974732E0D0A005346
:10138400656C656374206C6973742074797065206E
:1013940028313D43616C6C696E672C20323D534D9E
:1013A40053293A2000496E76616C6964206C697334
:1013B4007420747970652E204D75737420626520D5
:1013C40031206F7220322E0D0A0050686F6E652036
:1013D4006E756D6265722061646465642073756303
:1013E4006365737366756C6C7920616E64207361D8
:1013F40076656420746F20454550524F4D2E0D0A7A
:1014040000494E464F3A2050686F6E65206E756DE8
:1014140062657220616464656420746F206C697312
:101424007420616E6420454550524F4D00456E74E2
:1014340065722070686F6E65206E756D62657220CE
:10144400746F2072656D6F76653A2000496E76611F
:101454006C69642070686F6E65206E756D6265726C
:1014640020666F726D61742E0D0A0050686F6E6590
:10147400206E756D6265722072656D6F766564208D
:10148400616E6420454550524F4D207570646174FF
:1014940065642E0D0A00494E464F3A2050686F6E1F
:1014A40065206E756D6265722072656D6F76656418
:1014B4002066726F6D206C69737420616E642045C0
:1014C4004550524F4D00456E7465722070686F6EC2
:1014D40065206E756D62657220746F2076616C692B
:1014E400646174653A200050686F6E65206E756D96
:1014F4006265722069732076616C69642E0D0A003E
:1015040050686F6E65206E756D6265722069732018
:10151400696E76616C69642E204D757374207374E2
:10152400617274207769746820303120616E6420A0
:101534006265203131206469676974732E0D0A0075
:101544000D0A2D2D2D2043414C4C494E47204C492A
:101554005354202D2D2D0D0A002E20004E6F206E89
:10156400756D6265727320696E2063616C6C696E5F
:1015740067206C6973742E0D0A000D0A2D2D2D2021
:10158400534D53204C495354202D2D2D0D0A004EFC
:101594006F206E756D6265727320696E20534D53B2
:1015A400206C6973742E0D0A000D0A546F74616CFB
:1015B4003A2000206E756D626572732028002063E6
:1015C400616C6C696E672C200020534D53290D0A01
:1015D400000D0A2D2D2D2050686F6E65204E756DFF
:1015E40062657273204C697374202D2D2D0D0A00D1
:1015F4005468652070686F6E65206C697374206927
:101604007320656D7074792E0D0A004578697469CC
:101614006E672E2E2E0D0A00496E76616C69642069
:101624006F7074696F6E2E20506C656173652074E1
:10163400727920616761696E2E0D0A004C43442063
:101644007374756220696E697469616C697A656422
:1016540020287465726D696E616C206D6F646529F4
:101664002E0D0A004552524F523A204E756C6C2092
:101674006C69737420706F696E74657220696E2072
:1016840053746F72654C697374546F454550524F6F
:101694004D00494E464F3A205374617274696E6727
:1016A40020746F2073746F7265206C697374207476
:1016B4006F20454550524F4D004C69737420736937
:1016C4007A653A2000494E464F3A20577269746948
:1016D4006E67206C6973742073697A6520746F2057
:1016E400454550524F4D0057726974696E67206EBC
:1016F4006F646520230057726974696E6720746F84
:1017040020454550524F4D20616464726573733AAD
:10171400200050686F6E65206E756D6265723A20A8
:101724000057726974696E6720534D5343414C4CA2
:1017340020666C61673A2000494E464F3A2046695C
:101744006E69736865642073746F72696E67206C68
:1017540069737420746F20454550524F4D004552B3
:10176400524F523A204E756C6C206C697374207021
:101774006F696E74657220696E20526561644C698C
:10178400737446726F6D454550524F4D00494E4635
:101794004F3A205374617274696E6720746F2072BB
:1017A400656164206C6973742066726F6D204545B1
:1017B40050524F4D0053746F726564206C6973749A
:1017C4002073697A653A20005741524E494E473A90
:1017D40020496E76616C696420454550524F4D2016
:1017E40076616C75652064657465637465642C202A
:1017F400706F737369626C79206669727374207494
:10180400696D65207573650052656164696E672052
:101814006E6F646520230052656164696E6720669B
:10182400726F6D20454550524F4D2061646472655E
:1018340073733A2000526561642070686F6E65208E
:101844006E756D6265723A20005265616420534D75
:101854005343414C4C20666C61673A200046696EE4
:1018640069736865642072656164696E67206C6978
:1018740073742066726F6D20454550524F4D2C2075
:101884006E6F64657320666F756E643A200045520E
:10189400524F523A204E756C6C2070686F6E652002
:1018A4006E756D62657220696E204164644E756D5B
:1018B400546F454550524F4D00416464696E672032
:1018C40070686F6E65206E756D62657220746F202E
:1018D400454550524F4D3A200043757272656E74FF
:1018E400206C6973742073697A6520696E2045459C
:1018F40050524F4D3A2000494E464F3A20496E69A6
:101904007469616C697A696E6720454550524F4D20
:10191400207769746820656D707479206C697374BC
:10192400004E6577206C6973742073697A653A2078
:1019340000494E464F3A2053657474696E672061BE
:10194400732043616C6C696E675F6C697374207497
:101954007970652028312900494E464F3A20506855
:101964006F6E65206E756D62657220616464656476
:1019740020746F20454550524F4D20737563636545
:10198400737366756C6C79004445425547204C4F1F
:101994004747455220494E495449414C495A4544C8
:0C19A4000D0A005B44454255475D2000E1
:00000001FF
